{"contracts/OrganDonation.sol":{"OrganDonation":{"abi":[{"inputs":[],"stateMutability":"nonpayable","type":"constructor"},{"anonymous":false,"inputs":[{"indexed":true,"internalType":"address","name":"donor","type":"address"}],"name":"DonorCommitmentRevoked","type":"event"},{"anonymous":false,"inputs":[{"indexed":true,"internalType":"address","name":"donor","type":"address"}],"name":"DonorCommitmentValidated","type":"event"},{"anonymous":false,"inputs":[{"indexed":true,"internalType":"address","name":"donor","type":"address"}],"name":"DonorDeceased","type":"event"},{"anonymous":false,"inputs":[{"indexed":true,"internalType":"address","name":"donor","type":"address"},{"indexed":true,"internalType":"address","name":"patient","type":"address"}],"name":"MatchFound","type":"event"},{"anonymous":false,"inputs":[{"indexed":true,"internalType":"address","name":"donor","type":"address"},{"indexed":false,"internalType":"enum OrganDonation.OrganType[]","name":"organs","type":"uint8[]"},{"indexed":false,"internalType":"uint256","name":"age","type":"uint256"}],"name":"OrganRegistered","type":"event"},{"anonymous":false,"inputs":[{"indexed":true,"internalType":"address","name":"user","type":"address"}],"name":"UserFlagged","type":"event"},{"anonymous":false,"inputs":[{"indexed":true,"internalType":"address","name":"user","type":"address"}],"name":"UserSuspended","type":"event"},{"anonymous":false,"inputs":[{"indexed":true,"internalType":"address","name":"user","type":"address"},{"indexed":false,"internalType":"enum OrganDonation.Role","name":"role","type":"uint8"}],"name":"UserVerified","type":"event"},{"inputs":[{"internalType":"uint256","name":"","type":"uint256"}],"name":"donorList","outputs":[{"internalType":"address","name":"","type":"address"}],"stateMutability":"view","type":"function"},{"inputs":[{"internalType":"address","name":"","type":"address"}],"name":"donors","outputs":[{"internalType":"address","name":"donorAddress","type":"address"},{"internalType":"string","name":"name","type":"string"},{"internalType":"uint256","name":"age","type":"uint256"},{"internalType":"string","name":"bloodType","type":"string"},{"internalType":"string","name":"location","type":"string"},{"internalType":"bool","name":"deceased","type":"bool"},{"internalType":"bool","name":"verified","type":"bool"},{"internalType":"bool","name":"suspended","type":"bool"},{"internalType":"bool","name":"flagged","type":"bool"},{"internalType":"bool","name":"committed","type":"bool"},{"internalType":"string","name":"ipfsHash","type":"string"}],"stateMutability":"view","type":"function"},{"inputs":[{"internalType":"address","name":"user","type":"address"}],"name":"flagUser","outputs":[],"stateMutability":"nonpayable","type":"function"},{"inputs":[],"name":"getAvailableOrgans","outputs":[{"components":[{"internalType":"address","name":"donorAddress","type":"address"},{"internalType":"string","name":"name","type":"string"},{"internalType":"uint256","name":"age","type":"uint256"},{"internalType":"string","name":"bloodType","type":"string"},{"internalType":"enum OrganDonation.OrganType[]","name":"organs","type":"uint8[]"},{"internalType":"string","name":"location","type":"string"},{"internalType":"bool","name":"deceased","type":"bool"},{"internalType":"bool","name":"verified","type":"bool"},{"internalType":"bool","name":"suspended","type":"bool"},{"internalType":"bool","name":"flagged","type":"bool"},{"internalType":"bool","name":"committed","type":"bool"},{"internalType":"string","name":"ipfsHash","type":"string"}],"internalType":"struct OrganDonation.Donor[]","name":"","type":"tuple[]"}],"stateMutability":"view","type":"function"},{"inputs":[{"internalType":"address","name":"_donorAddress","type":"address"}],"name":"getDonorDetails","outputs":[{"internalType":"address","name":"donorAddress","type":"address"},{"internalType":"string","name":"name","type":"string"},{"internalType":"uint256","name":"age","type":"uint256"},{"internalType":"string","name":"bloodType","type":"string"},{"internalType":"enum OrganDonation.OrganType[]","name":"organs","type":"uint8[]"},{"internalType":"string","name":"location","type":"string"},{"internalType":"bool","name":"deceased","type":"bool"},{"internalType":"bool","name":"verified","type":"bool"},{"internalType":"bool","name":"suspended","type":"bool"},{"internalType":"bool","name":"flagged","type":"bool"},{"internalType":"bool","name":"committed","type":"bool"},{"internalType":"string","name":"ipfsHash","type":"string"}],"stateMutability":"view","type":"function"},{"inputs":[],"name":"getDonorList","outputs":[{"internalType":"address[]","name":"","type":"address[]"}],"stateMutability":"view","type":"function"},{"inputs":[{"internalType":"address","name":"_patientAddress","type":"address"}],"name":"getPatientDetails","outputs":[{"internalType":"address","name":"patientAddress","type":"address"},{"internalType":"string","name":"name","type":"string"},{"internalType":"uint256","name":"age","type":"uint256"},{"internalType":"string","name":"bloodType","type":"string"},{"internalType":"string","name":"neededOrgan","type":"string"},{"internalType":"string","name":"urgency","type":"string"},{"internalType":"string","name":"location","type":"string"},{"internalType":"bool","name":"verified","type":"bool"},{"internalType":"bool","name":"suspended","type":"bool"},{"internalType":"bool","name":"flagged","type":"bool"},{"internalType":"string","name":"ipfsHash","type":"string"}],"stateMutability":"view","type":"function"},{"inputs":[],"name":"getPatientList","outputs":[{"internalType":"address[]","name":"","type":"address[]"}],"stateMutability":"view","type":"function"},{"inputs":[{"internalType":"address","name":"donor","type":"address"}],"name":"markDonorDeceased","outputs":[],"stateMutability":"nonpayable","type":"function"},{"inputs":[{"internalType":"address","name":"donor","type":"address"},{"internalType":"address","name":"patient","type":"address"}],"name":"markOrganAsMatched","outputs":[],"stateMutability":"nonpayable","type":"function"},{"inputs":[],"name":"owner","outputs":[{"internalType":"address","name":"","type":"address"}],"stateMutability":"view","type":"function"},{"inputs":[{"internalType":"uint256","name":"","type":"uint256"}],"name":"patientList","outputs":[{"internalType":"address","name":"","type":"address"}],"stateMutability":"view","type":"function"},{"inputs":[{"internalType":"address","name":"","type":"address"}],"name":"patients","outputs":[{"internalType":"address","name":"patientAddress","type":"address"},{"internalType":"string","name":"name","type":"string"},{"internalType":"uint256","name":"age","type":"uint256"},{"internalType":"string","name":"bloodType","type":"string"},{"internalType":"string","name":"neededOrgan","type":"string"},{"internalType":"string","name":"urgency","type":"string"},{"internalType":"string","name":"location","type":"string"},{"internalType":"bool","name":"verified","type":"bool"},{"internalType":"bool","name":"suspended","type":"bool"},{"internalType":"bool","name":"flagged","type":"bool"},{"internalType":"string","name":"ipfsHash","type":"string"}],"stateMutability":"view","type":"function"},{"inputs":[{"internalType":"string","name":"name","type":"string"},{"internalType":"uint256","name":"_age","type":"uint256"},{"internalType":"string","name":"bloodType","type":"string"},{"internalType":"enum OrganDonation.OrganType[]","name":"organs","type":"uint8[]"},{"internalType":"string","name":"location","type":"string"},{"internalType":"string","name":"ipfsHash","type":"string"}],"name":"registerDonor","outputs":[],"stateMutability":"nonpayable","type":"function"},{"inputs":[{"internalType":"string","name":"name","type":"string"},{"internalType":"string","name":"bloodType","type":"string"},{"internalType":"string","name":"neededOrgan","type":"string"},{"internalType":"string","name":"urgency","type":"string"},{"internalType":"string","name":"location","type":"string"},{"internalType":"string","name":"ipfsHash","type":"string"},{"internalType":"uint256","name":"_age","type":"uint256"}],"name":"registerPatient","outputs":[],"stateMutability":"nonpayable","type":"function"},{"inputs":[{"internalType":"address","name":"donor","type":"address"}],"name":"revokeDonorCommitment","outputs":[],"stateMutability":"nonpayable","type":"function"},{"inputs":[{"internalType":"address","name":"","type":"address"}],"name":"roles","outputs":[{"internalType":"enum OrganDonation.Role","name":"","type":"uint8"}],"stateMutability":"view","type":"function"},{"inputs":[{"internalType":"address","name":"user","type":"address"}],"name":"suspendUser","outputs":[],"stateMutability":"nonpayable","type":"function"},{"inputs":[{"internalType":"address","name":"donor","type":"address"}],"name":"validateDonorCommitment","outputs":[],"stateMutability":"nonpayable","type":"function"},{"inputs":[{"internalType":"address","name":"user","type":"address"},{"internalType":"enum OrganDonation.Role","name":"roleToVerify","type":"uint8"}],"name":"verifyUser","outputs":[],"stateMutability":"nonpayable","type":"function"}],"evm":{"bytecode":{"linkReferences":{},"object":"60806040523480156200001157600080fd5b50336000806101000a81548173ffffffffffffffffffffffffffffffffffffffff021916908373ffffffffffffffffffffffffffffffffffffffff1602179055506003600160003373ffffffffffffffffffffffffffffffffffffffff1673ffffffffffffffffffffffffffffffffffffffff16815260200190815260200160002060006101000a81548160ff02191690836003811115620000b857620000b7620000c3565b5b0217905550620000f2565b7f4e487b7100000000000000000000000000000000000000000000000000000000600052602160045260246000fd5b61514380620001026000396000f3fe608060405234801561001057600080fd5b506004361061012c5760003560e01c806399374642116100ad578063c2c3242511610071578063c2c3242514610354578063c5f3781314610370578063c9047be71461038c578063ca0cdea8146103aa578063efe2ccc1146103e45761012c565b80639937464214610281578063a33a2d80146102b1578063afcb67d3146102cd578063babb1d4114610308578063bbad68a6146103385761012c565b8063503b1354116100f4578063503b1354146101dd5780635eed3dcb146101fb5780637bb848fc1461022b5780638371a454146102475780638da5cb5b146102635761012c565b80630869cfbc146101315780631e153acb1461016b578063312b6d4d1461018757806348cfc779146101a35780634c1da6a9146101c1575b600080fd5b61014b6004803603810190610146919061380c565b61041e565b6040516101629b9a9998979695949392919061390c565b60405180910390f35b6101856004803603810190610180919061380c565b6107ef565b005b6101a1600480360381019061019c919061380c565b610a94565b005b6101ab610be7565b6040516101b89190613a9f565b60405180910390f35b6101db60048036038101906101d6919061380c565b610c75565b005b6101e5610dc8565b6040516101f29190613a9f565b60405180910390f35b61021560048036038101906102109190613aed565b610e56565b6040516102229190613b1a565b60405180910390f35b61024560048036038101906102409190613d57565b610e95565b005b610261600480360381019061025c9190613e70565b61132e565b005b61026b61143e565b6040516102789190613b1a565b60405180910390f35b61029b6004803603810190610296919061380c565b611462565b6040516102a89190613f27565b60405180910390f35b6102cb60048036038101906102c6919061380c565b611482565b005b6102e760048036038101906102e2919061380c565b611727565b6040516102ff9c9b9a99989796959493929190614039565b60405180910390f35b610322600480360381019061031d9190613aed565b611c62565b60405161032f9190613b1a565b60405180910390f35b610352600480360381019061034d919061380c565b611ca1565b005b61036e6004803603810190610369919061413b565b611df4565b005b61038a6004803603810190610385919061417b565b612209565b005b610394612659565b6040516103a1919061457e565b60405180910390f35b6103c460048036038101906103bf919061380c565b612dd9565b6040516103db9b9a999897969594939291906145a0565b60405180910390f35b6103fe60048036038101906103f9919061380c565b6130b4565b6040516104159b9a9998979695949392919061390c565b60405180910390f35b60036020528060005260406000206000915090508060000160009054906101000a900473ffffffffffffffffffffffffffffffffffffffff169080600101805461046790614696565b80601f016020809104026020016040519081016040528092919081815260200182805461049390614696565b80156104e05780601f106104b5576101008083540402835291602001916104e0565b820191906000526020600020905b8154815290600101906020018083116104c357829003601f168201915b5050505050908060020154908060030180546104fb90614696565b80601f016020809104026020016040519081016040528092919081815260200182805461052790614696565b80156105745780601f1061054957610100808354040283529160200191610574565b820191906000526020600020905b81548152906001019060200180831161055757829003601f168201915b50505050509080600401805461058990614696565b80601f01602080910402602001604051908101604052809291908181526020018280546105b590614696565b80156106025780601f106105d757610100808354040283529160200191610602565b820191906000526020600020905b8154815290600101906020018083116105e557829003601f168201915b50505050509080600501805461061790614696565b80601f016020809104026020016040519081016040528092919081815260200182805461064390614696565b80156106905780601f1061066557610100808354040283529160200191610690565b820191906000526020600020905b81548152906001019060200180831161067357829003601f168201915b5050505050908060060180546106a590614696565b80601f01602080910402602001604051908101604052809291908181526020018280546106d190614696565b801561071e5780601f106106f35761010080835404028352916020019161071e565b820191906000526020600020905b81548152906001019060200180831161070157829003601f168201915b5050505050908060070160009054906101000a900460ff16908060070160019054906101000a900460ff16908060070160029054906101000a900460ff169080600801805461076c90614696565b80601f016020809104026020016040519081016040528092919081815260200182805461079890614696565b80156107e55780601f106107ba576101008083540402835291602001916107e5565b820191906000526020600020905b8154815290600101906020018083116107c857829003601f168201915b505050505090508b565b60038081111561080257610801613eb0565b5b600160003373ffffffffffffffffffffffffffffffffffffffff1673ffffffffffffffffffffffffffffffffffffffff16815260200190815260200160002060009054906101000a900460ff16600381111561086157610860613eb0565b5b146108a1576040517f08c379a000000000000000000000000000000000000000000000000000000000815260040161089890614713565b60405180910390fd5b600160038111156108b5576108b4613eb0565b5b600160008373ffffffffffffffffffffffffffffffffffffffff1673ffffffffffffffffffffffffffffffffffffffff16815260200190815260200160002060009054906101000a900460ff16600381111561091457610913613eb0565b5b03610979576001600260008373ffffffffffffffffffffffffffffffffffffffff1673ffffffffffffffffffffffffffffffffffffffff16815260200190815260200160002060060160026101000a81548160ff021916908315150217905550610a4e565b6002600381111561098d5761098c613eb0565b5b600160008373ffffffffffffffffffffffffffffffffffffffff1673ffffffffffffffffffffffffffffffffffffffff16815260200190815260200160002060009054906101000a900460ff1660038111156109ec576109eb613eb0565b5b03610a4d576001600360008373ffffffffffffffffffffffffffffffffffffffff1673ffffffffffffffffffffffffffffffffffffffff16815260200190815260200160002060070160016101000a81548160ff0219169083151502179055505b5b8073ffffffffffffffffffffffffffffffffffffffff167f904d1985d199946aad94a6990736c4602adcc5b717b04d0436ed05446b07169d60405160405180910390a250565b600380811115610aa757610aa6613eb0565b5b600160003373ffffffffffffffffffffffffffffffffffffffff1673ffffffffffffffffffffffffffffffffffffffff16815260200190815260200160002060009054906101000a900460ff166003811115610b0657610b05613eb0565b5b14610b46576040517f08c379a0000000000000000000000000000000000000000000000000000000008152600401610b3d90614713565b60405180910390fd5b6000600260008373ffffffffffffffffffffffffffffffffffffffff1673ffffffffffffffffffffffffffffffffffffffff16815260200190815260200160002060060160046101000a81548160ff0219169083151502179055508073ffffffffffffffffffffffffffffffffffffffff167ff2f9e1301b8fc7b02f69f6ec7d37d40ca019ddcb0a1ec4ea542256fba95cf69260405160405180910390a250565b60606004805480602002602001604051908101604052809291908181526020018280548015610c6b57602002820191906000526020600020905b8160009054906101000a900473ffffffffffffffffffffffffffffffffffffffff1673ffffffffffffffffffffffffffffffffffffffff1681526020019060010190808311610c21575b5050505050905090565b600380811115610c8857610c87613eb0565b5b600160003373ffffffffffffffffffffffffffffffffffffffff1673ffffffffffffffffffffffffffffffffffffffff16815260200190815260200160002060009054906101000a900460ff166003811115610ce757610ce6613eb0565b5b14610d27576040517f08c379a0000000000000000000000000000000000000000000000000000000008152600401610d1e90614713565b60405180910390fd5b6001600260008373ffffffffffffffffffffffffffffffffffffffff1673ffffffffffffffffffffffffffffffffffffffff16815260200190815260200160002060060160006101000a81548160ff0219169083151502179055508073ffffffffffffffffffffffffffffffffffffffff167f5d1f8ae728605f1c5a96c33df7ee3b56ded21030717a9f48200f94737da9fd2960405160405180910390a250565b60606005805480602002602001604051908101604052809291908181526020018280548015610e4c57602002820191906000526020600020905b8160009054906101000a900473ffffffffffffffffffffffffffffffffffffffff1673ffffffffffffffffffffffffffffffffffffffff1681526020019060010190808311610e02575b5050505050905090565b60048181548110610e6657600080fd5b906000526020600020016000915054906101000a900473ffffffffffffffffffffffffffffffffffffffff1681565b6000865111610ed9576040517f08c379a0000000000000000000000000000000000000000000000000000000008152600401610ed09061477f565b60405180910390fd5b6012851015610f1d576040517f08c379a0000000000000000000000000000000000000000000000000000000008152600401610f1490614811565b60405180910390fd5b6000845111610f61576040517f08c379a0000000000000000000000000000000000000000000000000000000008152600401610f589061487d565b60405180910390fd5b6000835111610fa5576040517f08c379a0000000000000000000000000000000000000000000000000000000008152600401610f9c9061490f565b60405180910390fd5b6000825111610fe9576040517f08c379a0000000000000000000000000000000000000000000000000000000008152600401610fe09061497b565b60405180910390fd5b6040518061018001604052803373ffffffffffffffffffffffffffffffffffffffff16815260200187815260200186815260200185815260200184815260200183815260200160001515815260200160001515815260200160001515815260200160001515815260200160001515815260200182815250600260003373ffffffffffffffffffffffffffffffffffffffff1673ffffffffffffffffffffffffffffffffffffffff16815260200190815260200160002060008201518160000160006101000a81548173ffffffffffffffffffffffffffffffffffffffff021916908373ffffffffffffffffffffffffffffffffffffffff16021790555060208201518160010190816110fb9190614b47565b5060408201518160020155606082015181600301908161111b9190614b47565b506080820151816004019080519060200190611138929190613646565b5060a082015181600501908161114e9190614b47565b5060c08201518160060160006101000a81548160ff02191690831515021790555060e08201518160060160016101000a81548160ff0219169083151502179055506101008201518160060160026101000a81548160ff0219169083151502179055506101208201518160060160036101000a81548160ff0219169083151502179055506101408201518160060160046101000a81548160ff0219169083151502179055506101608201518160070190816112089190614b47565b5090505060018060003373ffffffffffffffffffffffffffffffffffffffff1673ffffffffffffffffffffffffffffffffffffffff16815260200190815260200160002060006101000a81548160ff0219169083600381111561126e5761126d613eb0565b5b02179055506004339080600181540180825580915050600190039060005260206000200160009091909190916101000a81548173ffffffffffffffffffffffffffffffffffffffff021916908373ffffffffffffffffffffffffffffffffffffffff1602179055503373ffffffffffffffffffffffffffffffffffffffff167f7555fbe7a03a1845d092ae34447e52cc2cf366bbd2a8c185275753f775b0c3cc848760405161131e929190614c19565b60405180910390a2505050505050565b60038081111561134157611340613eb0565b5b600160003373ffffffffffffffffffffffffffffffffffffffff1673ffffffffffffffffffffffffffffffffffffffff16815260200190815260200160002060009054906101000a900460ff1660038111156113a05761139f613eb0565b5b146113e0576040517f08c379a00000000000000000000000000000000000000000000000000000000081526004016113d790614713565b60405180910390fd5b8073ffffffffffffffffffffffffffffffffffffffff168273ffffffffffffffffffffffffffffffffffffffff167f3182b38841de065eded850f9e9fa30850bb37c3a57df9bef3841138a94b7295660405160405180910390a35050565b60008054906101000a900473ffffffffffffffffffffffffffffffffffffffff1681565b60016020528060005260406000206000915054906101000a900460ff1681565b60038081111561149557611494613eb0565b5b600160003373ffffffffffffffffffffffffffffffffffffffff1673ffffffffffffffffffffffffffffffffffffffff16815260200190815260200160002060009054906101000a900460ff1660038111156114f4576114f3613eb0565b5b14611534576040517f08c379a000000000000000000000000000000000000000000000000000000000815260040161152b90614713565b60405180910390fd5b6001600381111561154857611547613eb0565b5b600160008373ffffffffffffffffffffffffffffffffffffffff1673ffffffffffffffffffffffffffffffffffffffff16815260200190815260200160002060009054906101000a900460ff1660038111156115a7576115a6613eb0565b5b0361160c576001600260008373ffffffffffffffffffffffffffffffffffffffff1673ffffffffffffffffffffffffffffffffffffffff16815260200190815260200160002060060160036101000a81548160ff0219169083151502179055506116e1565b600260038111156116205761161f613eb0565b5b600160008373ffffffffffffffffffffffffffffffffffffffff1673ffffffffffffffffffffffffffffffffffffffff16815260200190815260200160002060009054906101000a900460ff16600381111561167f5761167e613eb0565b5b036116e0576001600360008373ffffffffffffffffffffffffffffffffffffffff1673ffffffffffffffffffffffffffffffffffffffff16815260200190815260200160002060070160026101000a81548160ff0219169083151502179055505b5b8073ffffffffffffffffffffffffffffffffffffffff167faea35fc9a27361aba75788b01d0206dbe6018a2061ba0c177d99b2b18dd3728960405160405180910390a250565b600060606000606080606060008060008060006060600160038111156117505761174f613eb0565b5b600160008f73ffffffffffffffffffffffffffffffffffffffff1673ffffffffffffffffffffffffffffffffffffffff16815260200190815260200160002060009054906101000a900460ff1660038111156117af576117ae613eb0565b5b146117ef576040517f08c379a00000000000000000000000000000000000000000000000000000000081526004016117e690614cbb565b60405180910390fd5b6000600260008f73ffffffffffffffffffffffffffffffffffffffff1673ffffffffffffffffffffffffffffffffffffffff168152602001908152602001600020604051806101800160405290816000820160009054906101000a900473ffffffffffffffffffffffffffffffffffffffff1673ffffffffffffffffffffffffffffffffffffffff1673ffffffffffffffffffffffffffffffffffffffff1681526020016001820180546118a290614696565b80601f01602080910402602001604051908101604052809291908181526020018280546118ce90614696565b801561191b5780601f106118f05761010080835404028352916020019161191b565b820191906000526020600020905b8154815290600101906020018083116118fe57829003601f168201915b505050505081526020016002820154815260200160038201805461193e90614696565b80601f016020809104026020016040519081016040528092919081815260200182805461196a90614696565b80156119b75780601f1061198c576101008083540402835291602001916119b7565b820191906000526020600020905b81548152906001019060200180831161199a57829003601f168201915b5050505050815260200160048201805480602002602001604051908101604052809291908181526020018280548015611a4457602002820191906000526020600020906000905b82829054906101000a900460ff166004811115611a1e57611a1d613eb0565b5b815260200190600101906020826000010492830192600103820291508084116119fe5790505b50505050508152602001600582018054611a5d90614696565b80601f0160208091040260200160405190810160405280929190818152602001828054611a8990614696565b8015611ad65780601f10611aab57610100808354040283529160200191611ad6565b820191906000526020600020905b815481529060010190602001808311611ab957829003601f168201915b505050505081526020016006820160009054906101000a900460ff161515151581526020016006820160019054906101000a900460ff161515151581526020016006820160029054906101000a900460ff161515151581526020016006820160039054906101000a900460ff161515151581526020016006820160049054906101000a900460ff16151515158152602001600782018054611b7690614696565b80601f0160208091040260200160405190810160405280929190818152602001828054611ba290614696565b8015611bef5780601f10611bc457610100808354040283529160200191611bef565b820191906000526020600020905b815481529060010190602001808311611bd257829003601f168201915b5050505050815250509050806000015181602001518260400151836060015184608001518560a001518660c001518760e001518861010001518961012001518a61014001518b61016001519c509c509c509c509c509c509c509c509c509c509c509c505091939597999b5091939597999b565b60058181548110611c7257600080fd5b906000526020600020016000915054906101000a900473ffffffffffffffffffffffffffffffffffffffff1681565b600380811115611cb457611cb3613eb0565b5b600160003373ffffffffffffffffffffffffffffffffffffffff1673ffffffffffffffffffffffffffffffffffffffff16815260200190815260200160002060009054906101000a900460ff166003811115611d1357611d12613eb0565b5b14611d53576040517f08c379a0000000000000000000000000000000000000000000000000000000008152600401611d4a90614713565b60405180910390fd5b6001600260008373ffffffffffffffffffffffffffffffffffffffff1673ffffffffffffffffffffffffffffffffffffffff16815260200190815260200160002060060160046101000a81548160ff0219169083151502179055508073ffffffffffffffffffffffffffffffffffffffff167fd3246ded9638f3a0c0ba5c93a9a153d20c9176e5c705e1e0a3f7e92e0cb0500b60405160405180910390a250565b600380811115611e0757611e06613eb0565b5b600160003373ffffffffffffffffffffffffffffffffffffffff1673ffffffffffffffffffffffffffffffffffffffff16815260200190815260200160002060009054906101000a900460ff166003811115611e6657611e65613eb0565b5b14611ea6576040517f08c379a0000000000000000000000000000000000000000000000000000000008152600401611e9d90614713565b60405180910390fd5b60016003811115611eba57611eb9613eb0565b5b816003811115611ecd57611ecc613eb0565b5b1480611efd575060026003811115611ee857611ee7613eb0565b5b816003811115611efb57611efa613eb0565b5b145b611f3c576040517f08c379a0000000000000000000000000000000000000000000000000000000008152600401611f3390614d4d565b60405180910390fd5b60016003811115611f5057611f4f613eb0565b5b816003811115611f6357611f62613eb0565b5b0361207b5760016003811115611f7c57611f7b613eb0565b5b600160008473ffffffffffffffffffffffffffffffffffffffff1673ffffffffffffffffffffffffffffffffffffffff16815260200190815260200160002060009054906101000a900460ff166003811115611fdb57611fda613eb0565b5b1461201b576040517f08c379a000000000000000000000000000000000000000000000000000000000815260040161201290614ddf565b60405180910390fd5b6001600260008473ffffffffffffffffffffffffffffffffffffffff1673ffffffffffffffffffffffffffffffffffffffff16815260200190815260200160002060060160016101000a81548160ff0219169083151502179055506121b7565b6002600381111561208f5761208e613eb0565b5b8160038111156120a2576120a1613eb0565b5b036121b657600260038111156120bb576120ba613eb0565b5b600160008473ffffffffffffffffffffffffffffffffffffffff1673ffffffffffffffffffffffffffffffffffffffff16815260200190815260200160002060009054906101000a900460ff16600381111561211a57612119613eb0565b5b1461215a576040517f08c379a000000000000000000000000000000000000000000000000000000000815260040161215190614e71565b60405180910390fd5b6001600360008473ffffffffffffffffffffffffffffffffffffffff1673ffffffffffffffffffffffffffffffffffffffff16815260200190815260200160002060070160006101000a81548160ff0219169083151502179055505b5b8173ffffffffffffffffffffffffffffffffffffffff167f3e60282061aa9f0ac8f17cb522ab49946225e94f8597d84e6504593ee06a81e0826040516121fd9190613f27565b60405180910390a25050565b600087511161224d576040517f08c379a00000000000000000000000000000000000000000000000000000000081526004016122449061477f565b60405180910390fd5b6000865111612291576040517f08c379a00000000000000000000000000000000000000000000000000000000081526004016122889061487d565b60405180910390fd5b60008551116122d5576040517f08c379a00000000000000000000000000000000000000000000000000000000081526004016122cc90614edd565b60405180910390fd5b6000845111612319576040517f08c379a000000000000000000000000000000000000000000000000000000000815260040161231090614f49565b60405180910390fd5b600083511161235d576040517f08c379a00000000000000000000000000000000000000000000000000000000081526004016123549061497b565b60405180910390fd5b600081116123a0576040517f08c379a000000000000000000000000000000000000000000000000000000000815260040161239790614fb5565b60405180910390fd5b6040518061016001604052803373ffffffffffffffffffffffffffffffffffffffff16815260200188815260200182815260200187815260200186815260200185815260200184815260200160001515815260200160001515815260200160001515815260200183815250600360003373ffffffffffffffffffffffffffffffffffffffff1673ffffffffffffffffffffffffffffffffffffffff16815260200190815260200160002060008201518160000160006101000a81548173ffffffffffffffffffffffffffffffffffffffff021916908373ffffffffffffffffffffffffffffffffffffffff16021790555060208201518160010190816124a69190614b47565b506040820151816002015560608201518160030190816124c69190614b47565b5060808201518160040190816124dc9190614b47565b5060a08201518160050190816124f29190614b47565b5060c08201518160060190816125089190614b47565b5060e08201518160070160006101000a81548160ff0219169083151502179055506101008201518160070160016101000a81548160ff0219169083151502179055506101208201518160070160026101000a81548160ff0219169083151502179055506101408201518160080190816125819190614b47565b509050506002600160003373ffffffffffffffffffffffffffffffffffffffff1673ffffffffffffffffffffffffffffffffffffffff16815260200190815260200160002060006101000a81548160ff021916908360038111156125e8576125e7613eb0565b5b02179055506005339080600181540180825580915050600190039060005260206000200160009091909190916101000a81548173ffffffffffffffffffffffffffffffffffffffff021916908373ffffffffffffffffffffffffffffffffffffffff16021790555050505050505050565b60606000805b6004805490508110156127b857600260006004838154811061268457612683614fd5565b5b9060005260206000200160009054906101000a900473ffffffffffffffffffffffffffffffffffffffff1673ffffffffffffffffffffffffffffffffffffffff1673ffffffffffffffffffffffffffffffffffffffff16815260200190815260200160002060060160009054906101000a900460ff161580156127915750600260006004838154811061271a57612719614fd5565b5b9060005260206000200160009054906101000a900473ffffffffffffffffffffffffffffffffffffffff1673ffffffffffffffffffffffffffffffffffffffff1673ffffffffffffffffffffffffffffffffffffffff16815260200190815260200160002060060160019054906101000a900460ff165b156127a55781806127a190615033565b9250505b80806127b090615033565b91505061265f565b5060008167ffffffffffffffff8111156127d5576127d4613b3f565b5b60405190808252806020026020018201604052801561280e57816020015b6127fb6136fc565b8152602001906001900390816127f35790505b5090506000805b600480549050811015612dcf57600260006004838154811061283a57612839614fd5565b5b9060005260206000200160009054906101000a900473ffffffffffffffffffffffffffffffffffffffff1673ffffffffffffffffffffffffffffffffffffffff1673ffffffffffffffffffffffffffffffffffffffff16815260200190815260200160002060060160009054906101000a900460ff16158015612947575060026000600483815481106128d0576128cf614fd5565b5b9060005260206000200160009054906101000a900473ffffffffffffffffffffffffffffffffffffffff1673ffffffffffffffffffffffffffffffffffffffff1673ffffffffffffffffffffffffffffffffffffffff16815260200190815260200160002060060160019054906101000a900460ff165b15612dbc57600260006004838154811061296457612963614fd5565b5b9060005260206000200160009054906101000a900473ffffffffffffffffffffffffffffffffffffffff1673ffffffffffffffffffffffffffffffffffffffff1673ffffffffffffffffffffffffffffffffffffffff168152602001908152602001600020604051806101800160405290816000820160009054906101000a900473ffffffffffffffffffffffffffffffffffffffff1673ffffffffffffffffffffffffffffffffffffffff1673ffffffffffffffffffffffffffffffffffffffff168152602001600182018054612a3b90614696565b80601f0160208091040260200160405190810160405280929190818152602001828054612a6790614696565b8015612ab45780601f10612a8957610100808354040283529160200191612ab4565b820191906000526020600020905b815481529060010190602001808311612a9757829003601f168201915b5050505050815260200160028201548152602001600382018054612ad790614696565b80601f0160208091040260200160405190810160405280929190818152602001828054612b0390614696565b8015612b505780601f10612b2557610100808354040283529160200191612b50565b820191906000526020600020905b815481529060010190602001808311612b3357829003601f168201915b5050505050815260200160048201805480602002602001604051908101604052809291908181526020018280548015612bdd57602002820191906000526020600020906000905b82829054906101000a900460ff166004811115612bb757612bb6613eb0565b5b81526020019060010190602082600001049283019260010382029150808411612b975790505b50505050508152602001600582018054612bf690614696565b80601f0160208091040260200160405190810160405280929190818152602001828054612c2290614696565b8015612c6f5780601f10612c4457610100808354040283529160200191612c6f565b820191906000526020600020905b815481529060010190602001808311612c5257829003601f168201915b505050505081526020016006820160009054906101000a900460ff161515151581526020016006820160019054906101000a900460ff161515151581526020016006820160029054906101000a900460ff161515151581526020016006820160039054906101000a900460ff161515151581526020016006820160049054906101000a900460ff16151515158152602001600782018054612d0f90614696565b80601f0160208091040260200160405190810160405280929190818152602001828054612d3b90614696565b8015612d885780601f10612d5d57610100808354040283529160200191612d88565b820191906000526020600020905b815481529060010190602001808311612d6b57829003601f168201915b505050505081525050838380612d9d90615033565b945081518110612db057612daf614fd5565b5b60200260200101819052505b8080612dc790615033565b915050612815565b5081935050505090565b60026020528060005260406000206000915090508060000160009054906101000a900473ffffffffffffffffffffffffffffffffffffffff1690806001018054612e2290614696565b80601f0160208091040260200160405190810160405280929190818152602001828054612e4e90614696565b8015612e9b5780601f10612e7057610100808354040283529160200191612e9b565b820191906000526020600020905b815481529060010190602001808311612e7e57829003601f168201915b505050505090806002015490806003018054612eb690614696565b80601f0160208091040260200160405190810160405280929190818152602001828054612ee290614696565b8015612f2f5780601f10612f0457610100808354040283529160200191612f2f565b820191906000526020600020905b815481529060010190602001808311612f1257829003601f168201915b505050505090806005018054612f4490614696565b80601f0160208091040260200160405190810160405280929190818152602001828054612f7090614696565b8015612fbd5780601f10612f9257610100808354040283529160200191612fbd565b820191906000526020600020905b815481529060010190602001808311612fa057829003601f168201915b5050505050908060060160009054906101000a900460ff16908060060160019054906101000a900460ff16908060060160029054906101000a900460ff16908060060160039054906101000a900460ff16908060060160049054906101000a900460ff169080600701805461303190614696565b80601f016020809104026020016040519081016040528092919081815260200182805461305d90614696565b80156130aa5780601f1061307f576101008083540402835291602001916130aa565b820191906000526020600020905b81548152906001019060200180831161308d57829003601f168201915b505050505090508b565b60006060600060608060608060008060006060600260038111156130db576130da613eb0565b5b600160008e73ffffffffffffffffffffffffffffffffffffffff1673ffffffffffffffffffffffffffffffffffffffff16815260200190815260200160002060009054906101000a900460ff16600381111561313a57613139613eb0565b5b1461317a576040517f08c379a0000000000000000000000000000000000000000000000000000000008152600401613171906150ed565b60405180910390fd5b6000600360008e73ffffffffffffffffffffffffffffffffffffffff1673ffffffffffffffffffffffffffffffffffffffff168152602001908152602001600020604051806101600160405290816000820160009054906101000a900473ffffffffffffffffffffffffffffffffffffffff1673ffffffffffffffffffffffffffffffffffffffff1673ffffffffffffffffffffffffffffffffffffffff16815260200160018201805461322d90614696565b80601f016020809104026020016040519081016040528092919081815260200182805461325990614696565b80156132a65780601f1061327b576101008083540402835291602001916132a6565b820191906000526020600020905b81548152906001019060200180831161328957829003601f168201915b50505050508152602001600282015481526020016003820180546132c990614696565b80601f01602080910402602001604051908101604052809291908181526020018280546132f590614696565b80156133425780601f1061331757610100808354040283529160200191613342565b820191906000526020600020905b81548152906001019060200180831161332557829003601f168201915b5050505050815260200160048201805461335b90614696565b80601f016020809104026020016040519081016040528092919081815260200182805461338790614696565b80156133d45780601f106133a9576101008083540402835291602001916133d4565b820191906000526020600020905b8154815290600101906020018083116133b757829003601f168201915b505050505081526020016005820180546133ed90614696565b80601f016020809104026020016040519081016040528092919081815260200182805461341990614696565b80156134665780601f1061343b57610100808354040283529160200191613466565b820191906000526020600020905b81548152906001019060200180831161344957829003601f168201915b5050505050815260200160068201805461347f90614696565b80601f01602080910402602001604051908101604052809291908181526020018280546134ab90614696565b80156134f85780601f106134cd576101008083540402835291602001916134f8565b820191906000526020600020905b8154815290600101906020018083116134db57829003601f168201915b505050505081526020016007820160009054906101000a900460ff161515151581526020016007820160019054906101000a900460ff161515151581526020016007820160029054906101000a900460ff1615151515815260200160088201805461356290614696565b80601f016020809104026020016040519081016040528092919081815260200182805461358e90614696565b80156135db5780601f106135b0576101008083540402835291602001916135db565b820191906000526020600020905b8154815290600101906020018083116135be57829003601f168201915b5050505050815250509050806000015181602001518260400151836060015184608001518560a001518660c001518760e001518861010001518961012001518a61014001519b509b509b509b509b509b509b509b509b509b509b505091939597999b90929496989a50565b82805482825590600052602060002090601f016020900481019282156136eb5791602002820160005b838211156136bc57835183826101000a81548160ff0219169083600481111561369b5761369a613eb0565b5b0217905550926020019260010160208160000104928301926001030261366f565b80156136e95782816101000a81549060ff02191690556001016020816000010492830192600103026136bc565b505b5090506136f8919061377d565b5090565b604051806101800160405280600073ffffffffffffffffffffffffffffffffffffffff1681526020016060815260200160008152602001606081526020016060815260200160608152602001600015158152602001600015158152602001600015158152602001600015158152602001600015158152602001606081525090565b5b8082111561379657600081600090555060010161377e565b5090565b6000604051905090565b600080fd5b600080fd5b600073ffffffffffffffffffffffffffffffffffffffff82169050919050565b60006137d9826137ae565b9050919050565b6137e9816137ce565b81146137f457600080fd5b50565b600081359050613806816137e0565b92915050565b600060208284031215613822576138216137a4565b5b6000613830848285016137f7565b91505092915050565b613842816137ce565b82525050565b600081519050919050565b600082825260208201905092915050565b60005b83811015613882578082015181840152602081019050613867565b60008484015250505050565b6000601f19601f8301169050919050565b60006138aa82613848565b6138b48185613853565b93506138c4818560208601613864565b6138cd8161388e565b840191505092915050565b6000819050919050565b6138eb816138d8565b82525050565b60008115159050919050565b613906816138f1565b82525050565b600061016082019050613922600083018e613839565b8181036020830152613934818d61389f565b9050613943604083018c6138e2565b8181036060830152613955818b61389f565b90508181036080830152613969818a61389f565b905081810360a083015261397d818961389f565b905081810360c0830152613991818861389f565b90506139a060e08301876138fd565b6139ae6101008301866138fd565b6139bc6101208301856138fd565b8181036101408301526139cf818461389f565b90509c9b505050505050505050505050565b600081519050919050565b600082825260208201905092915050565b6000819050602082019050919050565b613a16816137ce565b82525050565b6000613a288383613a0d565b60208301905092915050565b6000602082019050919050565b6000613a4c826139e1565b613a5681856139ec565b9350613a61836139fd565b8060005b83811015613a92578151613a798882613a1c565b9750613a8483613a34565b925050600181019050613a65565b5085935050505092915050565b60006020820190508181036000830152613ab98184613a41565b905092915050565b613aca816138d8565b8114613ad557600080fd5b50565b600081359050613ae781613ac1565b92915050565b600060208284031215613b0357613b026137a4565b5b6000613b1184828501613ad8565b91505092915050565b6000602082019050613b2f6000830184613839565b92915050565b600080fd5b600080fd5b7f4e487b7100000000000000000000000000000000000000000000000000000000600052604160045260246000fd5b613b778261388e565b810181811067ffffffffffffffff82111715613b9657613b95613b3f565b5b80604052505050565b6000613ba961379a565b9050613bb58282613b6e565b919050565b600067ffffffffffffffff821115613bd557613bd4613b3f565b5b613bde8261388e565b9050602081019050919050565b82818337600083830152505050565b6000613c0d613c0884613bba565b613b9f565b905082815260208101848484011115613c2957613c28613b3a565b5b613c34848285613beb565b509392505050565b600082601f830112613c5157613c50613b35565b5b8135613c61848260208601613bfa565b91505092915050565b600067ffffffffffffffff821115613c8557613c84613b3f565b5b602082029050602081019050919050565b600080fd5b60058110613ca857600080fd5b50565b600081359050613cba81613c9b565b92915050565b6000613cd3613cce84613c6a565b613b9f565b90508083825260208201905060208402830185811115613cf657613cf5613c96565b5b835b81811015613d1f5780613d0b8882613cab565b845260208401935050602081019050613cf8565b5050509392505050565b600082601f830112613d3e57613d3d613b35565b5b8135613d4e848260208601613cc0565b91505092915050565b60008060008060008060c08789031215613d7457613d736137a4565b5b600087013567ffffffffffffffff811115613d9257613d916137a9565b5b613d9e89828a01613c3c565b9650506020613daf89828a01613ad8565b955050604087013567ffffffffffffffff811115613dd057613dcf6137a9565b5b613ddc89828a01613c3c565b945050606087013567ffffffffffffffff811115613dfd57613dfc6137a9565b5b613e0989828a01613d29565b935050608087013567ffffffffffffffff811115613e2a57613e296137a9565b5b613e3689828a01613c3c565b92505060a087013567ffffffffffffffff811115613e5757613e566137a9565b5b613e6389828a01613c3c565b9150509295509295509295565b60008060408385031215613e8757613e866137a4565b5b6000613e95858286016137f7565b9250506020613ea6858286016137f7565b9150509250929050565b7f4e487b7100000000000000000000000000000000000000000000000000000000600052602160045260246000fd5b60048110613ef057613eef613eb0565b5b50565b6000819050613f0182613edf565b919050565b6000613f1182613ef3565b9050919050565b613f2181613f06565b82525050565b6000602082019050613f3c6000830184613f18565b92915050565b600081519050919050565b600082825260208201905092915050565b6000819050602082019050919050565b60058110613f7f57613f7e613eb0565b5b50565b6000819050613f9082613f6e565b919050565b6000613fa082613f82565b9050919050565b613fb081613f95565b82525050565b6000613fc28383613fa7565b60208301905092915050565b6000602082019050919050565b6000613fe682613f42565b613ff08185613f4d565b9350613ffb83613f5e565b8060005b8381101561402c5781516140138882613fb6565b975061401e83613fce565b925050600181019050613fff565b5085935050505092915050565b60006101808201905061404f600083018f613839565b8181036020830152614061818e61389f565b9050614070604083018d6138e2565b8181036060830152614082818c61389f565b90508181036080830152614096818b613fdb565b905081810360a08301526140aa818a61389f565b90506140b960c08301896138fd565b6140c660e08301886138fd565b6140d46101008301876138fd565b6140e26101208301866138fd565b6140f06101408301856138fd565b818103610160830152614103818461389f565b90509d9c50505050505050505050505050565b6004811061412357600080fd5b50565b60008135905061413581614116565b92915050565b60008060408385031215614152576141516137a4565b5b6000614160858286016137f7565b925050602061417185828601614126565b9150509250929050565b600080600080600080600060e0888a03121561419a576141996137a4565b5b600088013567ffffffffffffffff8111156141b8576141b76137a9565b5b6141c48a828b01613c3c565b975050602088013567ffffffffffffffff8111156141e5576141e46137a9565b5b6141f18a828b01613c3c565b965050604088013567ffffffffffffffff811115614212576142116137a9565b5b61421e8a828b01613c3c565b955050606088013567ffffffffffffffff81111561423f5761423e6137a9565b5b61424b8a828b01613c3c565b945050608088013567ffffffffffffffff81111561426c5761426b6137a9565b5b6142788a828b01613c3c565b93505060a088013567ffffffffffffffff811115614299576142986137a9565b5b6142a58a828b01613c3c565b92505060c06142b68a828b01613ad8565b91505092959891949750929550565b600081519050919050565b600082825260208201905092915050565b6000819050602082019050919050565b600082825260208201905092915050565b600061430d82613848565b61431781856142f1565b9350614327818560208601613864565b6143308161388e565b840191505092915050565b614344816138d8565b82525050565b600082825260208201905092915050565b600061436682613f42565b614370818561434a565b935061437b83613f5e565b8060005b838110156143ac5781516143938882613fb6565b975061439e83613fce565b92505060018101905061437f565b5085935050505092915050565b6143c2816138f1565b82525050565b6000610180830160008301516143e16000860182613a0d565b50602083015184820360208601526143f98282614302565b915050604083015161440e604086018261433b565b50606083015184820360608601526144268282614302565b91505060808301518482036080860152614440828261435b565b91505060a083015184820360a086015261445a8282614302565b91505060c083015161446f60c08601826143b9565b5060e083015161448260e08601826143b9565b506101008301516144976101008601826143b9565b506101208301516144ac6101208601826143b9565b506101408301516144c16101408601826143b9565b506101608301518482036101608601526144db8282614302565b9150508091505092915050565b60006144f483836143c8565b905092915050565b6000602082019050919050565b6000614514826142c5565b61451e81856142d0565b935083602082028501614530856142e1565b8060005b8581101561456c578484038952815161454d85826144e8565b9450614558836144fc565b925060208a01995050600181019050614534565b50829750879550505050505092915050565b600060208201905081810360008301526145988184614509565b905092915050565b6000610160820190506145b6600083018e613839565b81810360208301526145c8818d61389f565b90506145d7604083018c6138e2565b81810360608301526145e9818b61389f565b905081810360808301526145fd818a61389f565b905061460c60a08301896138fd565b61461960c08301886138fd565b61462660e08301876138fd565b6146346101008301866138fd565b6146426101208301856138fd565b818103610140830152614655818461389f565b90509c9b505050505050505050505050565b7f4e487b7100000000000000000000000000000000000000000000000000000000600052602260045260246000fd5b600060028204905060018216806146ae57607f821691505b6020821081036146c1576146c0614667565b5b50919050565b7f4f6e6c792061646d696e00000000000000000000000000000000000000000000600082015250565b60006146fd600a83613853565b9150614708826146c7565b602082019050919050565b6000602082019050818103600083015261472c816146f0565b9050919050565b7f4e616d6520697320726571756972656400000000000000000000000000000000600082015250565b6000614769601083613853565b915061477482614733565b602082019050919050565b600060208201905081810360008301526147988161475c565b9050919050565b7f446f6e6f72206d757374206265206174206c656173742031382079656172732060008201527f6f6c640000000000000000000000000000000000000000000000000000000000602082015250565b60006147fb602383613853565b91506148068261479f565b604082019050919050565b6000602082019050818103600083015261482a816147ee565b9050919050565b7f426c6f6f64207479706520697320726571756972656400000000000000000000600082015250565b6000614867601683613853565b915061487282614831565b602082019050919050565b600060208201905081810360008301526148968161485a565b9050919050565b7f4174206c65617374206f6e65206f7267616e206d75737420626520737065636960008201527f6669656400000000000000000000000000000000000000000000000000000000602082015250565b60006148f9602483613853565b91506149048261489d565b604082019050919050565b60006020820190508181036000830152614928816148ec565b9050919050565b7f4c6f636174696f6e206973207265717569726564000000000000000000000000600082015250565b6000614965601483613853565b91506149708261492f565b602082019050919050565b6000602082019050818103600083015261499481614958565b9050919050565b60008190508160005260206000209050919050565b60006020601f8301049050919050565b600082821b905092915050565b6000600883026149fd7fffffffffffffffffffffffffffffffffffffffffffffffffffffffffffffffff826149c0565b614a0786836149c0565b95508019841693508086168417925050509392505050565b6000819050919050565b6000614a44614a3f614a3a846138d8565b614a1f565b6138d8565b9050919050565b6000819050919050565b614a5e83614a29565b614a72614a6a82614a4b565b8484546149cd565b825550505050565b600090565b614a87614a7a565b614a92818484614a55565b505050565b5b81811015614ab657614aab600082614a7f565b600181019050614a98565b5050565b601f821115614afb57614acc8161499b565b614ad5846149b0565b81016020851015614ae4578190505b614af8614af0856149b0565b830182614a97565b50505b505050565b600082821c905092915050565b6000614b1e60001984600802614b00565b1980831691505092915050565b6000614b378383614b0d565b9150826002028217905092915050565b614b5082613848565b67ffffffffffffffff811115614b6957614b68613b3f565b5b614b738254614696565b614b7e828285614aba565b600060209050601f831160018114614bb15760008415614b9f578287015190505b614ba98582614b2b565b865550614c11565b601f198416614bbf8661499b565b60005b82811015614be757848901518255600182019150602085019450602081019050614bc2565b86831015614c045784890151614c00601f891682614b0d565b8355505b6001600288020188555050505b505050505050565b60006040820190508181036000830152614c338185613fdb565b9050614c4260208301846138e2565b9392505050565b7f41646472657373206973206e6f742061207265676973746572656420646f6e6f60008201527f7200000000000000000000000000000000000000000000000000000000000000602082015250565b6000614ca5602183613853565b9150614cb082614c49565b604082019050919050565b60006020820190508181036000830152614cd481614c98565b9050919050565b7f43616e206f6e6c792076657269667920446f6e6f72206f722050617469656e7460008201527f20726f6c65730000000000000000000000000000000000000000000000000000602082015250565b6000614d37602683613853565b9150614d4282614cdb565b604082019050919050565b60006020820190508181036000830152614d6681614d2a565b9050919050565b7f55736572206973206e6f742072656769737465726564206173206120446f6e6f60008201527f7220746f20766572696679000000000000000000000000000000000000000000602082015250565b6000614dc9602b83613853565b9150614dd482614d6d565b604082019050919050565b60006020820190508181036000830152614df881614dbc565b9050919050565b7f55736572206973206e6f7420726567697374657265642061732061205061746960008201527f656e7420746f2076657269667900000000000000000000000000000000000000602082015250565b6000614e5b602d83613853565b9150614e6682614dff565b604082019050919050565b60006020820190508181036000830152614e8a81614e4e565b9050919050565b7f4e6565646564206f7267616e2069732072657175697265640000000000000000600082015250565b6000614ec7601883613853565b9150614ed282614e91565b602082019050919050565b60006020820190508181036000830152614ef681614eba565b9050919050565b7f557267656e637920697320726571756972656400000000000000000000000000600082015250565b6000614f33601383613853565b9150614f3e82614efd565b602082019050919050565b60006020820190508181036000830152614f6281614f26565b9050919050565b7f416765206d7573742062652067726561746572207468616e2030000000000000600082015250565b6000614f9f601a83613853565b9150614faa82614f69565b602082019050919050565b60006020820190508181036000830152614fce81614f92565b9050919050565b7f4e487b7100000000000000000000000000000000000000000000000000000000600052603260045260246000fd5b7f4e487b7100000000000000000000000000000000000000000000000000000000600052601160045260246000fd5b600061503e826138d8565b91507fffffffffffffffffffffffffffffffffffffffffffffffffffffffffffffffff82036150705761506f615004565b5b600182019050919050565b7f41646472657373206973206e6f7420612072656769737465726564207061746960008201527f656e740000000000000000000000000000000000000000000000000000000000602082015250565b60006150d7602383613853565b91506150e28261507b565b604082019050919050565b60006020820190508181036000830152615106816150ca565b905091905056fea264697066735822122050ccf3a8032e45692846c11e38d2afb55bfa48550f46224ce50109cf6d15234564736f6c63430008140033","opcodes":"PUSH1 0x80 PUSH1 0x40 MSTORE CALLVALUE DUP1 ISZERO PUSH3 0x11 JUMPI PUSH1 0x0 DUP1 REVERT JUMPDEST POP CALLER PUSH1 0x0 DUP1 PUSH2 0x100 EXP DUP2 SLOAD DUP2 PUSH20 0xFFFFFFFFFFFFFFFFFFFFFFFFFFFFFFFFFFFFFFFF MUL NOT AND SWAP1 DUP4 PUSH20 0xFFFFFFFFFFFFFFFFFFFFFFFFFFFFFFFFFFFFFFFF AND MUL OR SWAP1 SSTORE POP PUSH1 0x3 PUSH1 0x1 PUSH1 0x0 CALLER PUSH20 0xFFFFFFFFFFFFFFFFFFFFFFFFFFFFFFFFFFFFFFFF AND PUSH20 0xFFFFFFFFFFFFFFFFFFFFFFFFFFFFFFFFFFFFFFFF AND DUP2 MSTORE PUSH1 0x20 ADD SWAP1 DUP2 MSTORE PUSH1 0x20 ADD PUSH1 0x0 KECCAK256 PUSH1 0x0 PUSH2 0x100 EXP DUP2 SLOAD DUP2 PUSH1 0xFF MUL NOT AND SWAP1 DUP4 PUSH1 0x3 DUP2 GT ISZERO PUSH3 0xB8 JUMPI PUSH3 0xB7 PUSH3 0xC3 JUMP JUMPDEST JUMPDEST MUL OR SWAP1 SSTORE POP PUSH3 0xF2 JUMP JUMPDEST PUSH32 0x4E487B7100000000000000000000000000000000000000000000000000000000 PUSH1 0x0 MSTORE PUSH1 0x21 PUSH1 0x4 MSTORE PUSH1 0x24 PUSH1 0x0 REVERT JUMPDEST PUSH2 0x5143 DUP1 PUSH3 0x102 PUSH1 0x0 CODECOPY PUSH1 0x0 RETURN INVALID PUSH1 0x80 PUSH1 0x40 MSTORE CALLVALUE DUP1 ISZERO PUSH2 0x10 JUMPI PUSH1 0x0 DUP1 REVERT JUMPDEST POP PUSH1 0x4 CALLDATASIZE LT PUSH2 0x12C JUMPI PUSH1 0x0 CALLDATALOAD PUSH1 0xE0 SHR DUP1 PUSH4 0x99374642 GT PUSH2 0xAD JUMPI DUP1 PUSH4 0xC2C32425 GT PUSH2 0x71 JUMPI DUP1 PUSH4 0xC2C32425 EQ PUSH2 0x354 JUMPI DUP1 PUSH4 0xC5F37813 EQ PUSH2 0x370 JUMPI DUP1 PUSH4 0xC9047BE7 EQ PUSH2 0x38C JUMPI DUP1 PUSH4 0xCA0CDEA8 EQ PUSH2 0x3AA JUMPI DUP1 PUSH4 0xEFE2CCC1 EQ PUSH2 0x3E4 JUMPI PUSH2 0x12C JUMP JUMPDEST DUP1 PUSH4 0x99374642 EQ PUSH2 0x281 JUMPI DUP1 PUSH4 0xA33A2D80 EQ PUSH2 0x2B1 JUMPI DUP1 PUSH4 0xAFCB67D3 EQ PUSH2 0x2CD JUMPI DUP1 PUSH4 0xBABB1D41 EQ PUSH2 0x308 JUMPI DUP1 PUSH4 0xBBAD68A6 EQ PUSH2 0x338 JUMPI PUSH2 0x12C JUMP JUMPDEST DUP1 PUSH4 0x503B1354 GT PUSH2 0xF4 JUMPI DUP1 PUSH4 0x503B1354 EQ PUSH2 0x1DD JUMPI DUP1 PUSH4 0x5EED3DCB EQ PUSH2 0x1FB JUMPI DUP1 PUSH4 0x7BB848FC EQ PUSH2 0x22B JUMPI DUP1 PUSH4 0x8371A454 EQ PUSH2 0x247 JUMPI DUP1 PUSH4 0x8DA5CB5B EQ PUSH2 0x263 JUMPI PUSH2 0x12C JUMP JUMPDEST DUP1 PUSH4 0x869CFBC EQ PUSH2 0x131 JUMPI DUP1 PUSH4 0x1E153ACB EQ PUSH2 0x16B JUMPI DUP1 PUSH4 0x312B6D4D EQ PUSH2 0x187 JUMPI DUP1 PUSH4 0x48CFC779 EQ PUSH2 0x1A3 JUMPI DUP1 PUSH4 0x4C1DA6A9 EQ PUSH2 0x1C1 JUMPI JUMPDEST PUSH1 0x0 DUP1 REVERT JUMPDEST PUSH2 0x14B PUSH1 0x4 DUP1 CALLDATASIZE SUB DUP2 ADD SWAP1 PUSH2 0x146 SWAP2 SWAP1 PUSH2 0x380C JUMP JUMPDEST PUSH2 0x41E JUMP JUMPDEST PUSH1 0x40 MLOAD PUSH2 0x162 SWAP12 SWAP11 SWAP10 SWAP9 SWAP8 SWAP7 SWAP6 SWAP5 SWAP4 SWAP3 SWAP2 SWAP1 PUSH2 0x390C JUMP JUMPDEST PUSH1 0x40 MLOAD DUP1 SWAP2 SUB SWAP1 RETURN JUMPDEST PUSH2 0x185 PUSH1 0x4 DUP1 CALLDATASIZE SUB DUP2 ADD SWAP1 PUSH2 0x180 SWAP2 SWAP1 PUSH2 0x380C JUMP JUMPDEST PUSH2 0x7EF JUMP JUMPDEST STOP JUMPDEST PUSH2 0x1A1 PUSH1 0x4 DUP1 CALLDATASIZE SUB DUP2 ADD SWAP1 PUSH2 0x19C SWAP2 SWAP1 PUSH2 0x380C JUMP JUMPDEST PUSH2 0xA94 JUMP JUMPDEST STOP JUMPDEST PUSH2 0x1AB PUSH2 0xBE7 JUMP JUMPDEST PUSH1 0x40 MLOAD PUSH2 0x1B8 SWAP2 SWAP1 PUSH2 0x3A9F JUMP JUMPDEST PUSH1 0x40 MLOAD DUP1 SWAP2 SUB SWAP1 RETURN JUMPDEST PUSH2 0x1DB PUSH1 0x4 DUP1 CALLDATASIZE SUB DUP2 ADD SWAP1 PUSH2 0x1D6 SWAP2 SWAP1 PUSH2 0x380C JUMP JUMPDEST PUSH2 0xC75 JUMP JUMPDEST STOP JUMPDEST PUSH2 0x1E5 PUSH2 0xDC8 JUMP JUMPDEST PUSH1 0x40 MLOAD PUSH2 0x1F2 SWAP2 SWAP1 PUSH2 0x3A9F JUMP JUMPDEST PUSH1 0x40 MLOAD DUP1 SWAP2 SUB SWAP1 RETURN JUMPDEST PUSH2 0x215 PUSH1 0x4 DUP1 CALLDATASIZE SUB DUP2 ADD SWAP1 PUSH2 0x210 SWAP2 SWAP1 PUSH2 0x3AED JUMP JUMPDEST PUSH2 0xE56 JUMP JUMPDEST PUSH1 0x40 MLOAD PUSH2 0x222 SWAP2 SWAP1 PUSH2 0x3B1A JUMP JUMPDEST PUSH1 0x40 MLOAD DUP1 SWAP2 SUB SWAP1 RETURN JUMPDEST PUSH2 0x245 PUSH1 0x4 DUP1 CALLDATASIZE SUB DUP2 ADD SWAP1 PUSH2 0x240 SWAP2 SWAP1 PUSH2 0x3D57 JUMP JUMPDEST PUSH2 0xE95 JUMP JUMPDEST STOP JUMPDEST PUSH2 0x261 PUSH1 0x4 DUP1 CALLDATASIZE SUB DUP2 ADD SWAP1 PUSH2 0x25C SWAP2 SWAP1 PUSH2 0x3E70 JUMP JUMPDEST PUSH2 0x132E JUMP JUMPDEST STOP JUMPDEST PUSH2 0x26B PUSH2 0x143E JUMP JUMPDEST PUSH1 0x40 MLOAD PUSH2 0x278 SWAP2 SWAP1 PUSH2 0x3B1A JUMP JUMPDEST PUSH1 0x40 MLOAD DUP1 SWAP2 SUB SWAP1 RETURN JUMPDEST PUSH2 0x29B PUSH1 0x4 DUP1 CALLDATASIZE SUB DUP2 ADD SWAP1 PUSH2 0x296 SWAP2 SWAP1 PUSH2 0x380C JUMP JUMPDEST PUSH2 0x1462 JUMP JUMPDEST PUSH1 0x40 MLOAD PUSH2 0x2A8 SWAP2 SWAP1 PUSH2 0x3F27 JUMP JUMPDEST PUSH1 0x40 MLOAD DUP1 SWAP2 SUB SWAP1 RETURN JUMPDEST PUSH2 0x2CB PUSH1 0x4 DUP1 CALLDATASIZE SUB DUP2 ADD SWAP1 PUSH2 0x2C6 SWAP2 SWAP1 PUSH2 0x380C JUMP JUMPDEST PUSH2 0x1482 JUMP JUMPDEST STOP JUMPDEST PUSH2 0x2E7 PUSH1 0x4 DUP1 CALLDATASIZE SUB DUP2 ADD SWAP1 PUSH2 0x2E2 SWAP2 SWAP1 PUSH2 0x380C JUMP JUMPDEST PUSH2 0x1727 JUMP JUMPDEST PUSH1 0x40 MLOAD PUSH2 0x2FF SWAP13 SWAP12 SWAP11 SWAP10 SWAP9 SWAP8 SWAP7 SWAP6 SWAP5 SWAP4 SWAP3 SWAP2 SWAP1 PUSH2 0x4039 JUMP JUMPDEST PUSH1 0x40 MLOAD DUP1 SWAP2 SUB SWAP1 RETURN JUMPDEST PUSH2 0x322 PUSH1 0x4 DUP1 CALLDATASIZE SUB DUP2 ADD SWAP1 PUSH2 0x31D SWAP2 SWAP1 PUSH2 0x3AED JUMP JUMPDEST PUSH2 0x1C62 JUMP JUMPDEST PUSH1 0x40 MLOAD PUSH2 0x32F SWAP2 SWAP1 PUSH2 0x3B1A JUMP JUMPDEST PUSH1 0x40 MLOAD DUP1 SWAP2 SUB SWAP1 RETURN JUMPDEST PUSH2 0x352 PUSH1 0x4 DUP1 CALLDATASIZE SUB DUP2 ADD SWAP1 PUSH2 0x34D SWAP2 SWAP1 PUSH2 0x380C JUMP JUMPDEST PUSH2 0x1CA1 JUMP JUMPDEST STOP JUMPDEST PUSH2 0x36E PUSH1 0x4 DUP1 CALLDATASIZE SUB DUP2 ADD SWAP1 PUSH2 0x369 SWAP2 SWAP1 PUSH2 0x413B JUMP JUMPDEST PUSH2 0x1DF4 JUMP JUMPDEST STOP JUMPDEST PUSH2 0x38A PUSH1 0x4 DUP1 CALLDATASIZE SUB DUP2 ADD SWAP1 PUSH2 0x385 SWAP2 SWAP1 PUSH2 0x417B JUMP JUMPDEST PUSH2 0x2209 JUMP JUMPDEST STOP JUMPDEST PUSH2 0x394 PUSH2 0x2659 JUMP JUMPDEST PUSH1 0x40 MLOAD PUSH2 0x3A1 SWAP2 SWAP1 PUSH2 0x457E JUMP JUMPDEST PUSH1 0x40 MLOAD DUP1 SWAP2 SUB SWAP1 RETURN JUMPDEST PUSH2 0x3C4 PUSH1 0x4 DUP1 CALLDATASIZE SUB DUP2 ADD SWAP1 PUSH2 0x3BF SWAP2 SWAP1 PUSH2 0x380C JUMP JUMPDEST PUSH2 0x2DD9 JUMP JUMPDEST PUSH1 0x40 MLOAD PUSH2 0x3DB SWAP12 SWAP11 SWAP10 SWAP9 SWAP8 SWAP7 SWAP6 SWAP5 SWAP4 SWAP3 SWAP2 SWAP1 PUSH2 0x45A0 JUMP JUMPDEST PUSH1 0x40 MLOAD DUP1 SWAP2 SUB SWAP1 RETURN JUMPDEST PUSH2 0x3FE PUSH1 0x4 DUP1 CALLDATASIZE SUB DUP2 ADD SWAP1 PUSH2 0x3F9 SWAP2 SWAP1 PUSH2 0x380C JUMP JUMPDEST PUSH2 0x30B4 JUMP JUMPDEST PUSH1 0x40 MLOAD PUSH2 0x415 SWAP12 SWAP11 SWAP10 SWAP9 SWAP8 SWAP7 SWAP6 SWAP5 SWAP4 SWAP3 SWAP2 SWAP1 PUSH2 0x390C JUMP JUMPDEST PUSH1 0x40 MLOAD DUP1 SWAP2 SUB SWAP1 RETURN JUMPDEST PUSH1 0x3 PUSH1 0x20 MSTORE DUP1 PUSH1 0x0 MSTORE PUSH1 0x40 PUSH1 0x0 KECCAK256 PUSH1 0x0 SWAP2 POP SWAP1 POP DUP1 PUSH1 0x0 ADD PUSH1 0x0 SWAP1 SLOAD SWAP1 PUSH2 0x100 EXP SWAP1 DIV PUSH20 0xFFFFFFFFFFFFFFFFFFFFFFFFFFFFFFFFFFFFFFFF AND SWAP1 DUP1 PUSH1 0x1 ADD DUP1 SLOAD PUSH2 0x467 SWAP1 PUSH2 0x4696 JUMP JUMPDEST DUP1 PUSH1 0x1F ADD PUSH1 0x20 DUP1 SWAP2 DIV MUL PUSH1 0x20 ADD PUSH1 0x40 MLOAD SWAP1 DUP2 ADD PUSH1 0x40 MSTORE DUP1 SWAP3 SWAP2 SWAP1 DUP2 DUP2 MSTORE PUSH1 0x20 ADD DUP3 DUP1 SLOAD PUSH2 0x493 SWAP1 PUSH2 0x4696 JUMP JUMPDEST DUP1 ISZERO PUSH2 0x4E0 JUMPI DUP1 PUSH1 0x1F LT PUSH2 0x4B5 JUMPI PUSH2 0x100 DUP1 DUP4 SLOAD DIV MUL DUP4 MSTORE SWAP2 PUSH1 0x20 ADD SWAP2 PUSH2 0x4E0 JUMP JUMPDEST DUP3 ADD SWAP2 SWAP1 PUSH1 0x0 MSTORE PUSH1 0x20 PUSH1 0x0 KECCAK256 SWAP1 JUMPDEST DUP2 SLOAD DUP2 MSTORE SWAP1 PUSH1 0x1 ADD SWAP1 PUSH1 0x20 ADD DUP1 DUP4 GT PUSH2 0x4C3 JUMPI DUP3 SWAP1 SUB PUSH1 0x1F AND DUP3 ADD SWAP2 JUMPDEST POP POP POP POP POP SWAP1 DUP1 PUSH1 0x2 ADD SLOAD SWAP1 DUP1 PUSH1 0x3 ADD DUP1 SLOAD PUSH2 0x4FB SWAP1 PUSH2 0x4696 JUMP JUMPDEST DUP1 PUSH1 0x1F ADD PUSH1 0x20 DUP1 SWAP2 DIV MUL PUSH1 0x20 ADD PUSH1 0x40 MLOAD SWAP1 DUP2 ADD PUSH1 0x40 MSTORE DUP1 SWAP3 SWAP2 SWAP1 DUP2 DUP2 MSTORE PUSH1 0x20 ADD DUP3 DUP1 SLOAD PUSH2 0x527 SWAP1 PUSH2 0x4696 JUMP JUMPDEST DUP1 ISZERO PUSH2 0x574 JUMPI DUP1 PUSH1 0x1F LT PUSH2 0x549 JUMPI PUSH2 0x100 DUP1 DUP4 SLOAD DIV MUL DUP4 MSTORE SWAP2 PUSH1 0x20 ADD SWAP2 PUSH2 0x574 JUMP JUMPDEST DUP3 ADD SWAP2 SWAP1 PUSH1 0x0 MSTORE PUSH1 0x20 PUSH1 0x0 KECCAK256 SWAP1 JUMPDEST DUP2 SLOAD DUP2 MSTORE SWAP1 PUSH1 0x1 ADD SWAP1 PUSH1 0x20 ADD DUP1 DUP4 GT PUSH2 0x557 JUMPI DUP3 SWAP1 SUB PUSH1 0x1F AND DUP3 ADD SWAP2 JUMPDEST POP POP POP POP POP SWAP1 DUP1 PUSH1 0x4 ADD DUP1 SLOAD PUSH2 0x589 SWAP1 PUSH2 0x4696 JUMP JUMPDEST DUP1 PUSH1 0x1F ADD PUSH1 0x20 DUP1 SWAP2 DIV MUL PUSH1 0x20 ADD PUSH1 0x40 MLOAD SWAP1 DUP2 ADD PUSH1 0x40 MSTORE DUP1 SWAP3 SWAP2 SWAP1 DUP2 DUP2 MSTORE PUSH1 0x20 ADD DUP3 DUP1 SLOAD PUSH2 0x5B5 SWAP1 PUSH2 0x4696 JUMP JUMPDEST DUP1 ISZERO PUSH2 0x602 JUMPI DUP1 PUSH1 0x1F LT PUSH2 0x5D7 JUMPI PUSH2 0x100 DUP1 DUP4 SLOAD DIV MUL DUP4 MSTORE SWAP2 PUSH1 0x20 ADD SWAP2 PUSH2 0x602 JUMP JUMPDEST DUP3 ADD SWAP2 SWAP1 PUSH1 0x0 MSTORE PUSH1 0x20 PUSH1 0x0 KECCAK256 SWAP1 JUMPDEST DUP2 SLOAD DUP2 MSTORE SWAP1 PUSH1 0x1 ADD SWAP1 PUSH1 0x20 ADD DUP1 DUP4 GT PUSH2 0x5E5 JUMPI DUP3 SWAP1 SUB PUSH1 0x1F AND DUP3 ADD SWAP2 JUMPDEST POP POP POP POP POP SWAP1 DUP1 PUSH1 0x5 ADD DUP1 SLOAD PUSH2 0x617 SWAP1 PUSH2 0x4696 JUMP JUMPDEST DUP1 PUSH1 0x1F ADD PUSH1 0x20 DUP1 SWAP2 DIV MUL PUSH1 0x20 ADD PUSH1 0x40 MLOAD SWAP1 DUP2 ADD PUSH1 0x40 MSTORE DUP1 SWAP3 SWAP2 SWAP1 DUP2 DUP2 MSTORE PUSH1 0x20 ADD DUP3 DUP1 SLOAD PUSH2 0x643 SWAP1 PUSH2 0x4696 JUMP JUMPDEST DUP1 ISZERO PUSH2 0x690 JUMPI DUP1 PUSH1 0x1F LT PUSH2 0x665 JUMPI PUSH2 0x100 DUP1 DUP4 SLOAD DIV MUL DUP4 MSTORE SWAP2 PUSH1 0x20 ADD SWAP2 PUSH2 0x690 JUMP JUMPDEST DUP3 ADD SWAP2 SWAP1 PUSH1 0x0 MSTORE PUSH1 0x20 PUSH1 0x0 KECCAK256 SWAP1 JUMPDEST DUP2 SLOAD DUP2 MSTORE SWAP1 PUSH1 0x1 ADD SWAP1 PUSH1 0x20 ADD DUP1 DUP4 GT PUSH2 0x673 JUMPI DUP3 SWAP1 SUB PUSH1 0x1F AND DUP3 ADD SWAP2 JUMPDEST POP POP POP POP POP SWAP1 DUP1 PUSH1 0x6 ADD DUP1 SLOAD PUSH2 0x6A5 SWAP1 PUSH2 0x4696 JUMP JUMPDEST DUP1 PUSH1 0x1F ADD PUSH1 0x20 DUP1 SWAP2 DIV MUL PUSH1 0x20 ADD PUSH1 0x40 MLOAD SWAP1 DUP2 ADD PUSH1 0x40 MSTORE DUP1 SWAP3 SWAP2 SWAP1 DUP2 DUP2 MSTORE PUSH1 0x20 ADD DUP3 DUP1 SLOAD PUSH2 0x6D1 SWAP1 PUSH2 0x4696 JUMP JUMPDEST DUP1 ISZERO PUSH2 0x71E JUMPI DUP1 PUSH1 0x1F LT PUSH2 0x6F3 JUMPI PUSH2 0x100 DUP1 DUP4 SLOAD DIV MUL DUP4 MSTORE SWAP2 PUSH1 0x20 ADD SWAP2 PUSH2 0x71E JUMP JUMPDEST DUP3 ADD SWAP2 SWAP1 PUSH1 0x0 MSTORE PUSH1 0x20 PUSH1 0x0 KECCAK256 SWAP1 JUMPDEST DUP2 SLOAD DUP2 MSTORE SWAP1 PUSH1 0x1 ADD SWAP1 PUSH1 0x20 ADD DUP1 DUP4 GT PUSH2 0x701 JUMPI DUP3 SWAP1 SUB PUSH1 0x1F AND DUP3 ADD SWAP2 JUMPDEST POP POP POP POP POP SWAP1 DUP1 PUSH1 0x7 ADD PUSH1 0x0 SWAP1 SLOAD SWAP1 PUSH2 0x100 EXP SWAP1 DIV PUSH1 0xFF AND SWAP1 DUP1 PUSH1 0x7 ADD PUSH1 0x1 SWAP1 SLOAD SWAP1 PUSH2 0x100 EXP SWAP1 DIV PUSH1 0xFF AND SWAP1 DUP1 PUSH1 0x7 ADD PUSH1 0x2 SWAP1 SLOAD SWAP1 PUSH2 0x100 EXP SWAP1 DIV PUSH1 0xFF AND SWAP1 DUP1 PUSH1 0x8 ADD DUP1 SLOAD PUSH2 0x76C SWAP1 PUSH2 0x4696 JUMP JUMPDEST DUP1 PUSH1 0x1F ADD PUSH1 0x20 DUP1 SWAP2 DIV MUL PUSH1 0x20 ADD PUSH1 0x40 MLOAD SWAP1 DUP2 ADD PUSH1 0x40 MSTORE DUP1 SWAP3 SWAP2 SWAP1 DUP2 DUP2 MSTORE PUSH1 0x20 ADD DUP3 DUP1 SLOAD PUSH2 0x798 SWAP1 PUSH2 0x4696 JUMP JUMPDEST DUP1 ISZERO PUSH2 0x7E5 JUMPI DUP1 PUSH1 0x1F LT PUSH2 0x7BA JUMPI PUSH2 0x100 DUP1 DUP4 SLOAD DIV MUL DUP4 MSTORE SWAP2 PUSH1 0x20 ADD SWAP2 PUSH2 0x7E5 JUMP JUMPDEST DUP3 ADD SWAP2 SWAP1 PUSH1 0x0 MSTORE PUSH1 0x20 PUSH1 0x0 KECCAK256 SWAP1 JUMPDEST DUP2 SLOAD DUP2 MSTORE SWAP1 PUSH1 0x1 ADD SWAP1 PUSH1 0x20 ADD DUP1 DUP4 GT PUSH2 0x7C8 JUMPI DUP3 SWAP1 SUB PUSH1 0x1F AND DUP3 ADD SWAP2 JUMPDEST POP POP POP POP POP SWAP1 POP DUP12 JUMP JUMPDEST PUSH1 0x3 DUP1 DUP2 GT ISZERO PUSH2 0x802 JUMPI PUSH2 0x801 PUSH2 0x3EB0 JUMP JUMPDEST JUMPDEST PUSH1 0x1 PUSH1 0x0 CALLER PUSH20 0xFFFFFFFFFFFFFFFFFFFFFFFFFFFFFFFFFFFFFFFF AND PUSH20 0xFFFFFFFFFFFFFFFFFFFFFFFFFFFFFFFFFFFFFFFF AND DUP2 MSTORE PUSH1 0x20 ADD SWAP1 DUP2 MSTORE PUSH1 0x20 ADD PUSH1 0x0 KECCAK256 PUSH1 0x0 SWAP1 SLOAD SWAP1 PUSH2 0x100 EXP SWAP1 DIV PUSH1 0xFF AND PUSH1 0x3 DUP2 GT ISZERO PUSH2 0x861 JUMPI PUSH2 0x860 PUSH2 0x3EB0 JUMP JUMPDEST JUMPDEST EQ PUSH2 0x8A1 JUMPI PUSH1 0x40 MLOAD PUSH32 0x8C379A000000000000000000000000000000000000000000000000000000000 DUP2 MSTORE PUSH1 0x4 ADD PUSH2 0x898 SWAP1 PUSH2 0x4713 JUMP JUMPDEST PUSH1 0x40 MLOAD DUP1 SWAP2 SUB SWAP1 REVERT JUMPDEST PUSH1 0x1 PUSH1 0x3 DUP2 GT ISZERO PUSH2 0x8B5 JUMPI PUSH2 0x8B4 PUSH2 0x3EB0 JUMP JUMPDEST JUMPDEST PUSH1 0x1 PUSH1 0x0 DUP4 PUSH20 0xFFFFFFFFFFFFFFFFFFFFFFFFFFFFFFFFFFFFFFFF AND PUSH20 0xFFFFFFFFFFFFFFFFFFFFFFFFFFFFFFFFFFFFFFFF AND DUP2 MSTORE PUSH1 0x20 ADD SWAP1 DUP2 MSTORE PUSH1 0x20 ADD PUSH1 0x0 KECCAK256 PUSH1 0x0 SWAP1 SLOAD SWAP1 PUSH2 0x100 EXP SWAP1 DIV PUSH1 0xFF AND PUSH1 0x3 DUP2 GT ISZERO PUSH2 0x914 JUMPI PUSH2 0x913 PUSH2 0x3EB0 JUMP JUMPDEST JUMPDEST SUB PUSH2 0x979 JUMPI PUSH1 0x1 PUSH1 0x2 PUSH1 0x0 DUP4 PUSH20 0xFFFFFFFFFFFFFFFFFFFFFFFFFFFFFFFFFFFFFFFF AND PUSH20 0xFFFFFFFFFFFFFFFFFFFFFFFFFFFFFFFFFFFFFFFF AND DUP2 MSTORE PUSH1 0x20 ADD SWAP1 DUP2 MSTORE PUSH1 0x20 ADD PUSH1 0x0 KECCAK256 PUSH1 0x6 ADD PUSH1 0x2 PUSH2 0x100 EXP DUP2 SLOAD DUP2 PUSH1 0xFF MUL NOT AND SWAP1 DUP4 ISZERO ISZERO MUL OR SWAP1 SSTORE POP PUSH2 0xA4E JUMP JUMPDEST PUSH1 0x2 PUSH1 0x3 DUP2 GT ISZERO PUSH2 0x98D JUMPI PUSH2 0x98C PUSH2 0x3EB0 JUMP JUMPDEST JUMPDEST PUSH1 0x1 PUSH1 0x0 DUP4 PUSH20 0xFFFFFFFFFFFFFFFFFFFFFFFFFFFFFFFFFFFFFFFF AND PUSH20 0xFFFFFFFFFFFFFFFFFFFFFFFFFFFFFFFFFFFFFFFF AND DUP2 MSTORE PUSH1 0x20 ADD SWAP1 DUP2 MSTORE PUSH1 0x20 ADD PUSH1 0x0 KECCAK256 PUSH1 0x0 SWAP1 SLOAD SWAP1 PUSH2 0x100 EXP SWAP1 DIV PUSH1 0xFF AND PUSH1 0x3 DUP2 GT ISZERO PUSH2 0x9EC JUMPI PUSH2 0x9EB PUSH2 0x3EB0 JUMP JUMPDEST JUMPDEST SUB PUSH2 0xA4D JUMPI PUSH1 0x1 PUSH1 0x3 PUSH1 0x0 DUP4 PUSH20 0xFFFFFFFFFFFFFFFFFFFFFFFFFFFFFFFFFFFFFFFF AND PUSH20 0xFFFFFFFFFFFFFFFFFFFFFFFFFFFFFFFFFFFFFFFF AND DUP2 MSTORE PUSH1 0x20 ADD SWAP1 DUP2 MSTORE PUSH1 0x20 ADD PUSH1 0x0 KECCAK256 PUSH1 0x7 ADD PUSH1 0x1 PUSH2 0x100 EXP DUP2 SLOAD DUP2 PUSH1 0xFF MUL NOT AND SWAP1 DUP4 ISZERO ISZERO MUL OR SWAP1 SSTORE POP JUMPDEST JUMPDEST DUP1 PUSH20 0xFFFFFFFFFFFFFFFFFFFFFFFFFFFFFFFFFFFFFFFF AND PUSH32 0x904D1985D199946AAD94A6990736C4602ADCC5B717B04D0436ED05446B07169D PUSH1 0x40 MLOAD PUSH1 0x40 MLOAD DUP1 SWAP2 SUB SWAP1 LOG2 POP JUMP JUMPDEST PUSH1 0x3 DUP1 DUP2 GT ISZERO PUSH2 0xAA7 JUMPI PUSH2 0xAA6 PUSH2 0x3EB0 JUMP JUMPDEST JUMPDEST PUSH1 0x1 PUSH1 0x0 CALLER PUSH20 0xFFFFFFFFFFFFFFFFFFFFFFFFFFFFFFFFFFFFFFFF AND PUSH20 0xFFFFFFFFFFFFFFFFFFFFFFFFFFFFFFFFFFFFFFFF AND DUP2 MSTORE PUSH1 0x20 ADD SWAP1 DUP2 MSTORE PUSH1 0x20 ADD PUSH1 0x0 KECCAK256 PUSH1 0x0 SWAP1 SLOAD SWAP1 PUSH2 0x100 EXP SWAP1 DIV PUSH1 0xFF AND PUSH1 0x3 DUP2 GT ISZERO PUSH2 0xB06 JUMPI PUSH2 0xB05 PUSH2 0x3EB0 JUMP JUMPDEST JUMPDEST EQ PUSH2 0xB46 JUMPI PUSH1 0x40 MLOAD PUSH32 0x8C379A000000000000000000000000000000000000000000000000000000000 DUP2 MSTORE PUSH1 0x4 ADD PUSH2 0xB3D SWAP1 PUSH2 0x4713 JUMP JUMPDEST PUSH1 0x40 MLOAD DUP1 SWAP2 SUB SWAP1 REVERT JUMPDEST PUSH1 0x0 PUSH1 0x2 PUSH1 0x0 DUP4 PUSH20 0xFFFFFFFFFFFFFFFFFFFFFFFFFFFFFFFFFFFFFFFF AND PUSH20 0xFFFFFFFFFFFFFFFFFFFFFFFFFFFFFFFFFFFFFFFF AND DUP2 MSTORE PUSH1 0x20 ADD SWAP1 DUP2 MSTORE PUSH1 0x20 ADD PUSH1 0x0 KECCAK256 PUSH1 0x6 ADD PUSH1 0x4 PUSH2 0x100 EXP DUP2 SLOAD DUP2 PUSH1 0xFF MUL NOT AND SWAP1 DUP4 ISZERO ISZERO MUL OR SWAP1 SSTORE POP DUP1 PUSH20 0xFFFFFFFFFFFFFFFFFFFFFFFFFFFFFFFFFFFFFFFF AND PUSH32 0xF2F9E1301B8FC7B02F69F6EC7D37D40CA019DDCB0A1EC4EA542256FBA95CF692 PUSH1 0x40 MLOAD PUSH1 0x40 MLOAD DUP1 SWAP2 SUB SWAP1 LOG2 POP JUMP JUMPDEST PUSH1 0x60 PUSH1 0x4 DUP1 SLOAD DUP1 PUSH1 0x20 MUL PUSH1 0x20 ADD PUSH1 0x40 MLOAD SWAP1 DUP2 ADD PUSH1 0x40 MSTORE DUP1 SWAP3 SWAP2 SWAP1 DUP2 DUP2 MSTORE PUSH1 0x20 ADD DUP3 DUP1 SLOAD DUP1 ISZERO PUSH2 0xC6B JUMPI PUSH1 0x20 MUL DUP3 ADD SWAP2 SWAP1 PUSH1 0x0 MSTORE PUSH1 0x20 PUSH1 0x0 KECCAK256 SWAP1 JUMPDEST DUP2 PUSH1 0x0 SWAP1 SLOAD SWAP1 PUSH2 0x100 EXP SWAP1 DIV PUSH20 0xFFFFFFFFFFFFFFFFFFFFFFFFFFFFFFFFFFFFFFFF AND PUSH20 0xFFFFFFFFFFFFFFFFFFFFFFFFFFFFFFFFFFFFFFFF AND DUP2 MSTORE PUSH1 0x20 ADD SWAP1 PUSH1 0x1 ADD SWAP1 DUP1 DUP4 GT PUSH2 0xC21 JUMPI JUMPDEST POP POP POP POP POP SWAP1 POP SWAP1 JUMP JUMPDEST PUSH1 0x3 DUP1 DUP2 GT ISZERO PUSH2 0xC88 JUMPI PUSH2 0xC87 PUSH2 0x3EB0 JUMP JUMPDEST JUMPDEST PUSH1 0x1 PUSH1 0x0 CALLER PUSH20 0xFFFFFFFFFFFFFFFFFFFFFFFFFFFFFFFFFFFFFFFF AND PUSH20 0xFFFFFFFFFFFFFFFFFFFFFFFFFFFFFFFFFFFFFFFF AND DUP2 MSTORE PUSH1 0x20 ADD SWAP1 DUP2 MSTORE PUSH1 0x20 ADD PUSH1 0x0 KECCAK256 PUSH1 0x0 SWAP1 SLOAD SWAP1 PUSH2 0x100 EXP SWAP1 DIV PUSH1 0xFF AND PUSH1 0x3 DUP2 GT ISZERO PUSH2 0xCE7 JUMPI PUSH2 0xCE6 PUSH2 0x3EB0 JUMP JUMPDEST JUMPDEST EQ PUSH2 0xD27 JUMPI PUSH1 0x40 MLOAD PUSH32 0x8C379A000000000000000000000000000000000000000000000000000000000 DUP2 MSTORE PUSH1 0x4 ADD PUSH2 0xD1E SWAP1 PUSH2 0x4713 JUMP JUMPDEST PUSH1 0x40 MLOAD DUP1 SWAP2 SUB SWAP1 REVERT JUMPDEST PUSH1 0x1 PUSH1 0x2 PUSH1 0x0 DUP4 PUSH20 0xFFFFFFFFFFFFFFFFFFFFFFFFFFFFFFFFFFFFFFFF AND PUSH20 0xFFFFFFFFFFFFFFFFFFFFFFFFFFFFFFFFFFFFFFFF AND DUP2 MSTORE PUSH1 0x20 ADD SWAP1 DUP2 MSTORE PUSH1 0x20 ADD PUSH1 0x0 KECCAK256 PUSH1 0x6 ADD PUSH1 0x0 PUSH2 0x100 EXP DUP2 SLOAD DUP2 PUSH1 0xFF MUL NOT AND SWAP1 DUP4 ISZERO ISZERO MUL OR SWAP1 SSTORE POP DUP1 PUSH20 0xFFFFFFFFFFFFFFFFFFFFFFFFFFFFFFFFFFFFFFFF AND PUSH32 0x5D1F8AE728605F1C5A96C33DF7EE3B56DED21030717A9F48200F94737DA9FD29 PUSH1 0x40 MLOAD PUSH1 0x40 MLOAD DUP1 SWAP2 SUB SWAP1 LOG2 POP JUMP JUMPDEST PUSH1 0x60 PUSH1 0x5 DUP1 SLOAD DUP1 PUSH1 0x20 MUL PUSH1 0x20 ADD PUSH1 0x40 MLOAD SWAP1 DUP2 ADD PUSH1 0x40 MSTORE DUP1 SWAP3 SWAP2 SWAP1 DUP2 DUP2 MSTORE PUSH1 0x20 ADD DUP3 DUP1 SLOAD DUP1 ISZERO PUSH2 0xE4C JUMPI PUSH1 0x20 MUL DUP3 ADD SWAP2 SWAP1 PUSH1 0x0 MSTORE PUSH1 0x20 PUSH1 0x0 KECCAK256 SWAP1 JUMPDEST DUP2 PUSH1 0x0 SWAP1 SLOAD SWAP1 PUSH2 0x100 EXP SWAP1 DIV PUSH20 0xFFFFFFFFFFFFFFFFFFFFFFFFFFFFFFFFFFFFFFFF AND PUSH20 0xFFFFFFFFFFFFFFFFFFFFFFFFFFFFFFFFFFFFFFFF AND DUP2 MSTORE PUSH1 0x20 ADD SWAP1 PUSH1 0x1 ADD SWAP1 DUP1 DUP4 GT PUSH2 0xE02 JUMPI JUMPDEST POP POP POP POP POP SWAP1 POP SWAP1 JUMP JUMPDEST PUSH1 0x4 DUP2 DUP2 SLOAD DUP2 LT PUSH2 0xE66 JUMPI PUSH1 0x0 DUP1 REVERT JUMPDEST SWAP1 PUSH1 0x0 MSTORE PUSH1 0x20 PUSH1 0x0 KECCAK256 ADD PUSH1 0x0 SWAP2 POP SLOAD SWAP1 PUSH2 0x100 EXP SWAP1 DIV PUSH20 0xFFFFFFFFFFFFFFFFFFFFFFFFFFFFFFFFFFFFFFFF AND DUP2 JUMP JUMPDEST PUSH1 0x0 DUP7 MLOAD GT PUSH2 0xED9 JUMPI PUSH1 0x40 MLOAD PUSH32 0x8C379A000000000000000000000000000000000000000000000000000000000 DUP2 MSTORE PUSH1 0x4 ADD PUSH2 0xED0 SWAP1 PUSH2 0x477F JUMP JUMPDEST PUSH1 0x40 MLOAD DUP1 SWAP2 SUB SWAP1 REVERT JUMPDEST PUSH1 0x12 DUP6 LT ISZERO PUSH2 0xF1D JUMPI PUSH1 0x40 MLOAD PUSH32 0x8C379A000000000000000000000000000000000000000000000000000000000 DUP2 MSTORE PUSH1 0x4 ADD PUSH2 0xF14 SWAP1 PUSH2 0x4811 JUMP JUMPDEST PUSH1 0x40 MLOAD DUP1 SWAP2 SUB SWAP1 REVERT JUMPDEST PUSH1 0x0 DUP5 MLOAD GT PUSH2 0xF61 JUMPI PUSH1 0x40 MLOAD PUSH32 0x8C379A000000000000000000000000000000000000000000000000000000000 DUP2 MSTORE PUSH1 0x4 ADD PUSH2 0xF58 SWAP1 PUSH2 0x487D JUMP JUMPDEST PUSH1 0x40 MLOAD DUP1 SWAP2 SUB SWAP1 REVERT JUMPDEST PUSH1 0x0 DUP4 MLOAD GT PUSH2 0xFA5 JUMPI PUSH1 0x40 MLOAD PUSH32 0x8C379A000000000000000000000000000000000000000000000000000000000 DUP2 MSTORE PUSH1 0x4 ADD PUSH2 0xF9C SWAP1 PUSH2 0x490F JUMP JUMPDEST PUSH1 0x40 MLOAD DUP1 SWAP2 SUB SWAP1 REVERT JUMPDEST PUSH1 0x0 DUP3 MLOAD GT PUSH2 0xFE9 JUMPI PUSH1 0x40 MLOAD PUSH32 0x8C379A000000000000000000000000000000000000000000000000000000000 DUP2 MSTORE PUSH1 0x4 ADD PUSH2 0xFE0 SWAP1 PUSH2 0x497B JUMP JUMPDEST PUSH1 0x40 MLOAD DUP1 SWAP2 SUB SWAP1 REVERT JUMPDEST PUSH1 0x40 MLOAD DUP1 PUSH2 0x180 ADD PUSH1 0x40 MSTORE DUP1 CALLER PUSH20 0xFFFFFFFFFFFFFFFFFFFFFFFFFFFFFFFFFFFFFFFF AND DUP2 MSTORE PUSH1 0x20 ADD DUP8 DUP2 MSTORE PUSH1 0x20 ADD DUP7 DUP2 MSTORE PUSH1 0x20 ADD DUP6 DUP2 MSTORE PUSH1 0x20 ADD DUP5 DUP2 MSTORE PUSH1 0x20 ADD DUP4 DUP2 MSTORE PUSH1 0x20 ADD PUSH1 0x0 ISZERO ISZERO DUP2 MSTORE PUSH1 0x20 ADD PUSH1 0x0 ISZERO ISZERO DUP2 MSTORE PUSH1 0x20 ADD PUSH1 0x0 ISZERO ISZERO DUP2 MSTORE PUSH1 0x20 ADD PUSH1 0x0 ISZERO ISZERO DUP2 MSTORE PUSH1 0x20 ADD PUSH1 0x0 ISZERO ISZERO DUP2 MSTORE PUSH1 0x20 ADD DUP3 DUP2 MSTORE POP PUSH1 0x2 PUSH1 0x0 CALLER PUSH20 0xFFFFFFFFFFFFFFFFFFFFFFFFFFFFFFFFFFFFFFFF AND PUSH20 0xFFFFFFFFFFFFFFFFFFFFFFFFFFFFFFFFFFFFFFFF AND DUP2 MSTORE PUSH1 0x20 ADD SWAP1 DUP2 MSTORE PUSH1 0x20 ADD PUSH1 0x0 KECCAK256 PUSH1 0x0 DUP3 ADD MLOAD DUP2 PUSH1 0x0 ADD PUSH1 0x0 PUSH2 0x100 EXP DUP2 SLOAD DUP2 PUSH20 0xFFFFFFFFFFFFFFFFFFFFFFFFFFFFFFFFFFFFFFFF MUL NOT AND SWAP1 DUP4 PUSH20 0xFFFFFFFFFFFFFFFFFFFFFFFFFFFFFFFFFFFFFFFF AND MUL OR SWAP1 SSTORE POP PUSH1 0x20 DUP3 ADD MLOAD DUP2 PUSH1 0x1 ADD SWAP1 DUP2 PUSH2 0x10FB SWAP2 SWAP1 PUSH2 0x4B47 JUMP JUMPDEST POP PUSH1 0x40 DUP3 ADD MLOAD DUP2 PUSH1 0x2 ADD SSTORE PUSH1 0x60 DUP3 ADD MLOAD DUP2 PUSH1 0x3 ADD SWAP1 DUP2 PUSH2 0x111B SWAP2 SWAP1 PUSH2 0x4B47 JUMP JUMPDEST POP PUSH1 0x80 DUP3 ADD MLOAD DUP2 PUSH1 0x4 ADD SWAP1 DUP1 MLOAD SWAP1 PUSH1 0x20 ADD SWAP1 PUSH2 0x1138 SWAP3 SWAP2 SWAP1 PUSH2 0x3646 JUMP JUMPDEST POP PUSH1 0xA0 DUP3 ADD MLOAD DUP2 PUSH1 0x5 ADD SWAP1 DUP2 PUSH2 0x114E SWAP2 SWAP1 PUSH2 0x4B47 JUMP JUMPDEST POP PUSH1 0xC0 DUP3 ADD MLOAD DUP2 PUSH1 0x6 ADD PUSH1 0x0 PUSH2 0x100 EXP DUP2 SLOAD DUP2 PUSH1 0xFF MUL NOT AND SWAP1 DUP4 ISZERO ISZERO MUL OR SWAP1 SSTORE POP PUSH1 0xE0 DUP3 ADD MLOAD DUP2 PUSH1 0x6 ADD PUSH1 0x1 PUSH2 0x100 EXP DUP2 SLOAD DUP2 PUSH1 0xFF MUL NOT AND SWAP1 DUP4 ISZERO ISZERO MUL OR SWAP1 SSTORE POP PUSH2 0x100 DUP3 ADD MLOAD DUP2 PUSH1 0x6 ADD PUSH1 0x2 PUSH2 0x100 EXP DUP2 SLOAD DUP2 PUSH1 0xFF MUL NOT AND SWAP1 DUP4 ISZERO ISZERO MUL OR SWAP1 SSTORE POP PUSH2 0x120 DUP3 ADD MLOAD DUP2 PUSH1 0x6 ADD PUSH1 0x3 PUSH2 0x100 EXP DUP2 SLOAD DUP2 PUSH1 0xFF MUL NOT AND SWAP1 DUP4 ISZERO ISZERO MUL OR SWAP1 SSTORE POP PUSH2 0x140 DUP3 ADD MLOAD DUP2 PUSH1 0x6 ADD PUSH1 0x4 PUSH2 0x100 EXP DUP2 SLOAD DUP2 PUSH1 0xFF MUL NOT AND SWAP1 DUP4 ISZERO ISZERO MUL OR SWAP1 SSTORE POP PUSH2 0x160 DUP3 ADD MLOAD DUP2 PUSH1 0x7 ADD SWAP1 DUP2 PUSH2 0x1208 SWAP2 SWAP1 PUSH2 0x4B47 JUMP JUMPDEST POP SWAP1 POP POP PUSH1 0x1 DUP1 PUSH1 0x0 CALLER PUSH20 0xFFFFFFFFFFFFFFFFFFFFFFFFFFFFFFFFFFFFFFFF AND PUSH20 0xFFFFFFFFFFFFFFFFFFFFFFFFFFFFFFFFFFFFFFFF AND DUP2 MSTORE PUSH1 0x20 ADD SWAP1 DUP2 MSTORE PUSH1 0x20 ADD PUSH1 0x0 KECCAK256 PUSH1 0x0 PUSH2 0x100 EXP DUP2 SLOAD DUP2 PUSH1 0xFF MUL NOT AND SWAP1 DUP4 PUSH1 0x3 DUP2 GT ISZERO PUSH2 0x126E JUMPI PUSH2 0x126D PUSH2 0x3EB0 JUMP JUMPDEST JUMPDEST MUL OR SWAP1 SSTORE POP PUSH1 0x4 CALLER SWAP1 DUP1 PUSH1 0x1 DUP2 SLOAD ADD DUP1 DUP3 SSTORE DUP1 SWAP2 POP POP PUSH1 0x1 SWAP1 SUB SWAP1 PUSH1 0x0 MSTORE PUSH1 0x20 PUSH1 0x0 KECCAK256 ADD PUSH1 0x0 SWAP1 SWAP2 SWAP1 SWAP2 SWAP1 SWAP2 PUSH2 0x100 EXP DUP2 SLOAD DUP2 PUSH20 0xFFFFFFFFFFFFFFFFFFFFFFFFFFFFFFFFFFFFFFFF MUL NOT AND SWAP1 DUP4 PUSH20 0xFFFFFFFFFFFFFFFFFFFFFFFFFFFFFFFFFFFFFFFF AND MUL OR SWAP1 SSTORE POP CALLER PUSH20 0xFFFFFFFFFFFFFFFFFFFFFFFFFFFFFFFFFFFFFFFF AND PUSH32 0x7555FBE7A03A1845D092AE34447E52CC2CF366BBD2A8C185275753F775B0C3CC DUP5 DUP8 PUSH1 0x40 MLOAD PUSH2 0x131E SWAP3 SWAP2 SWAP1 PUSH2 0x4C19 JUMP JUMPDEST PUSH1 0x40 MLOAD DUP1 SWAP2 SUB SWAP1 LOG2 POP POP POP POP POP POP JUMP JUMPDEST PUSH1 0x3 DUP1 DUP2 GT ISZERO PUSH2 0x1341 JUMPI PUSH2 0x1340 PUSH2 0x3EB0 JUMP JUMPDEST JUMPDEST PUSH1 0x1 PUSH1 0x0 CALLER PUSH20 0xFFFFFFFFFFFFFFFFFFFFFFFFFFFFFFFFFFFFFFFF AND PUSH20 0xFFFFFFFFFFFFFFFFFFFFFFFFFFFFFFFFFFFFFFFF AND DUP2 MSTORE PUSH1 0x20 ADD SWAP1 DUP2 MSTORE PUSH1 0x20 ADD PUSH1 0x0 KECCAK256 PUSH1 0x0 SWAP1 SLOAD SWAP1 PUSH2 0x100 EXP SWAP1 DIV PUSH1 0xFF AND PUSH1 0x3 DUP2 GT ISZERO PUSH2 0x13A0 JUMPI PUSH2 0x139F PUSH2 0x3EB0 JUMP JUMPDEST JUMPDEST EQ PUSH2 0x13E0 JUMPI PUSH1 0x40 MLOAD PUSH32 0x8C379A000000000000000000000000000000000000000000000000000000000 DUP2 MSTORE PUSH1 0x4 ADD PUSH2 0x13D7 SWAP1 PUSH2 0x4713 JUMP JUMPDEST PUSH1 0x40 MLOAD DUP1 SWAP2 SUB SWAP1 REVERT JUMPDEST DUP1 PUSH20 0xFFFFFFFFFFFFFFFFFFFFFFFFFFFFFFFFFFFFFFFF AND DUP3 PUSH20 0xFFFFFFFFFFFFFFFFFFFFFFFFFFFFFFFFFFFFFFFF AND PUSH32 0x3182B38841DE065EDED850F9E9FA30850BB37C3A57DF9BEF3841138A94B72956 PUSH1 0x40 MLOAD PUSH1 0x40 MLOAD DUP1 SWAP2 SUB SWAP1 LOG3 POP POP JUMP JUMPDEST PUSH1 0x0 DUP1 SLOAD SWAP1 PUSH2 0x100 EXP SWAP1 DIV PUSH20 0xFFFFFFFFFFFFFFFFFFFFFFFFFFFFFFFFFFFFFFFF AND DUP2 JUMP JUMPDEST PUSH1 0x1 PUSH1 0x20 MSTORE DUP1 PUSH1 0x0 MSTORE PUSH1 0x40 PUSH1 0x0 KECCAK256 PUSH1 0x0 SWAP2 POP SLOAD SWAP1 PUSH2 0x100 EXP SWAP1 DIV PUSH1 0xFF AND DUP2 JUMP JUMPDEST PUSH1 0x3 DUP1 DUP2 GT ISZERO PUSH2 0x1495 JUMPI PUSH2 0x1494 PUSH2 0x3EB0 JUMP JUMPDEST JUMPDEST PUSH1 0x1 PUSH1 0x0 CALLER PUSH20 0xFFFFFFFFFFFFFFFFFFFFFFFFFFFFFFFFFFFFFFFF AND PUSH20 0xFFFFFFFFFFFFFFFFFFFFFFFFFFFFFFFFFFFFFFFF AND DUP2 MSTORE PUSH1 0x20 ADD SWAP1 DUP2 MSTORE PUSH1 0x20 ADD PUSH1 0x0 KECCAK256 PUSH1 0x0 SWAP1 SLOAD SWAP1 PUSH2 0x100 EXP SWAP1 DIV PUSH1 0xFF AND PUSH1 0x3 DUP2 GT ISZERO PUSH2 0x14F4 JUMPI PUSH2 0x14F3 PUSH2 0x3EB0 JUMP JUMPDEST JUMPDEST EQ PUSH2 0x1534 JUMPI PUSH1 0x40 MLOAD PUSH32 0x8C379A000000000000000000000000000000000000000000000000000000000 DUP2 MSTORE PUSH1 0x4 ADD PUSH2 0x152B SWAP1 PUSH2 0x4713 JUMP JUMPDEST PUSH1 0x40 MLOAD DUP1 SWAP2 SUB SWAP1 REVERT JUMPDEST PUSH1 0x1 PUSH1 0x3 DUP2 GT ISZERO PUSH2 0x1548 JUMPI PUSH2 0x1547 PUSH2 0x3EB0 JUMP JUMPDEST JUMPDEST PUSH1 0x1 PUSH1 0x0 DUP4 PUSH20 0xFFFFFFFFFFFFFFFFFFFFFFFFFFFFFFFFFFFFFFFF AND PUSH20 0xFFFFFFFFFFFFFFFFFFFFFFFFFFFFFFFFFFFFFFFF AND DUP2 MSTORE PUSH1 0x20 ADD SWAP1 DUP2 MSTORE PUSH1 0x20 ADD PUSH1 0x0 KECCAK256 PUSH1 0x0 SWAP1 SLOAD SWAP1 PUSH2 0x100 EXP SWAP1 DIV PUSH1 0xFF AND PUSH1 0x3 DUP2 GT ISZERO PUSH2 0x15A7 JUMPI PUSH2 0x15A6 PUSH2 0x3EB0 JUMP JUMPDEST JUMPDEST SUB PUSH2 0x160C JUMPI PUSH1 0x1 PUSH1 0x2 PUSH1 0x0 DUP4 PUSH20 0xFFFFFFFFFFFFFFFFFFFFFFFFFFFFFFFFFFFFFFFF AND PUSH20 0xFFFFFFFFFFFFFFFFFFFFFFFFFFFFFFFFFFFFFFFF AND DUP2 MSTORE PUSH1 0x20 ADD SWAP1 DUP2 MSTORE PUSH1 0x20 ADD PUSH1 0x0 KECCAK256 PUSH1 0x6 ADD PUSH1 0x3 PUSH2 0x100 EXP DUP2 SLOAD DUP2 PUSH1 0xFF MUL NOT AND SWAP1 DUP4 ISZERO ISZERO MUL OR SWAP1 SSTORE POP PUSH2 0x16E1 JUMP JUMPDEST PUSH1 0x2 PUSH1 0x3 DUP2 GT ISZERO PUSH2 0x1620 JUMPI PUSH2 0x161F PUSH2 0x3EB0 JUMP JUMPDEST JUMPDEST PUSH1 0x1 PUSH1 0x0 DUP4 PUSH20 0xFFFFFFFFFFFFFFFFFFFFFFFFFFFFFFFFFFFFFFFF AND PUSH20 0xFFFFFFFFFFFFFFFFFFFFFFFFFFFFFFFFFFFFFFFF AND DUP2 MSTORE PUSH1 0x20 ADD SWAP1 DUP2 MSTORE PUSH1 0x20 ADD PUSH1 0x0 KECCAK256 PUSH1 0x0 SWAP1 SLOAD SWAP1 PUSH2 0x100 EXP SWAP1 DIV PUSH1 0xFF AND PUSH1 0x3 DUP2 GT ISZERO PUSH2 0x167F JUMPI PUSH2 0x167E PUSH2 0x3EB0 JUMP JUMPDEST JUMPDEST SUB PUSH2 0x16E0 JUMPI PUSH1 0x1 PUSH1 0x3 PUSH1 0x0 DUP4 PUSH20 0xFFFFFFFFFFFFFFFFFFFFFFFFFFFFFFFFFFFFFFFF AND PUSH20 0xFFFFFFFFFFFFFFFFFFFFFFFFFFFFFFFFFFFFFFFF AND DUP2 MSTORE PUSH1 0x20 ADD SWAP1 DUP2 MSTORE PUSH1 0x20 ADD PUSH1 0x0 KECCAK256 PUSH1 0x7 ADD PUSH1 0x2 PUSH2 0x100 EXP DUP2 SLOAD DUP2 PUSH1 0xFF MUL NOT AND SWAP1 DUP4 ISZERO ISZERO MUL OR SWAP1 SSTORE POP JUMPDEST JUMPDEST DUP1 PUSH20 0xFFFFFFFFFFFFFFFFFFFFFFFFFFFFFFFFFFFFFFFF AND PUSH32 0xAEA35FC9A27361ABA75788B01D0206DBE6018A2061BA0C177D99B2B18DD37289 PUSH1 0x40 MLOAD PUSH1 0x40 MLOAD DUP1 SWAP2 SUB SWAP1 LOG2 POP JUMP JUMPDEST PUSH1 0x0 PUSH1 0x60 PUSH1 0x0 PUSH1 0x60 DUP1 PUSH1 0x60 PUSH1 0x0 DUP1 PUSH1 0x0 DUP1 PUSH1 0x0 PUSH1 0x60 PUSH1 0x1 PUSH1 0x3 DUP2 GT ISZERO PUSH2 0x1750 JUMPI PUSH2 0x174F PUSH2 0x3EB0 JUMP JUMPDEST JUMPDEST PUSH1 0x1 PUSH1 0x0 DUP16 PUSH20 0xFFFFFFFFFFFFFFFFFFFFFFFFFFFFFFFFFFFFFFFF AND PUSH20 0xFFFFFFFFFFFFFFFFFFFFFFFFFFFFFFFFFFFFFFFF AND DUP2 MSTORE PUSH1 0x20 ADD SWAP1 DUP2 MSTORE PUSH1 0x20 ADD PUSH1 0x0 KECCAK256 PUSH1 0x0 SWAP1 SLOAD SWAP1 PUSH2 0x100 EXP SWAP1 DIV PUSH1 0xFF AND PUSH1 0x3 DUP2 GT ISZERO PUSH2 0x17AF JUMPI PUSH2 0x17AE PUSH2 0x3EB0 JUMP JUMPDEST JUMPDEST EQ PUSH2 0x17EF JUMPI PUSH1 0x40 MLOAD PUSH32 0x8C379A000000000000000000000000000000000000000000000000000000000 DUP2 MSTORE PUSH1 0x4 ADD PUSH2 0x17E6 SWAP1 PUSH2 0x4CBB JUMP JUMPDEST PUSH1 0x40 MLOAD DUP1 SWAP2 SUB SWAP1 REVERT JUMPDEST PUSH1 0x0 PUSH1 0x2 PUSH1 0x0 DUP16 PUSH20 0xFFFFFFFFFFFFFFFFFFFFFFFFFFFFFFFFFFFFFFFF AND PUSH20 0xFFFFFFFFFFFFFFFFFFFFFFFFFFFFFFFFFFFFFFFF AND DUP2 MSTORE PUSH1 0x20 ADD SWAP1 DUP2 MSTORE PUSH1 0x20 ADD PUSH1 0x0 KECCAK256 PUSH1 0x40 MLOAD DUP1 PUSH2 0x180 ADD PUSH1 0x40 MSTORE SWAP1 DUP2 PUSH1 0x0 DUP3 ADD PUSH1 0x0 SWAP1 SLOAD SWAP1 PUSH2 0x100 EXP SWAP1 DIV PUSH20 0xFFFFFFFFFFFFFFFFFFFFFFFFFFFFFFFFFFFFFFFF AND PUSH20 0xFFFFFFFFFFFFFFFFFFFFFFFFFFFFFFFFFFFFFFFF AND PUSH20 0xFFFFFFFFFFFFFFFFFFFFFFFFFFFFFFFFFFFFFFFF AND DUP2 MSTORE PUSH1 0x20 ADD PUSH1 0x1 DUP3 ADD DUP1 SLOAD PUSH2 0x18A2 SWAP1 PUSH2 0x4696 JUMP JUMPDEST DUP1 PUSH1 0x1F ADD PUSH1 0x20 DUP1 SWAP2 DIV MUL PUSH1 0x20 ADD PUSH1 0x40 MLOAD SWAP1 DUP2 ADD PUSH1 0x40 MSTORE DUP1 SWAP3 SWAP2 SWAP1 DUP2 DUP2 MSTORE PUSH1 0x20 ADD DUP3 DUP1 SLOAD PUSH2 0x18CE SWAP1 PUSH2 0x4696 JUMP JUMPDEST DUP1 ISZERO PUSH2 0x191B JUMPI DUP1 PUSH1 0x1F LT PUSH2 0x18F0 JUMPI PUSH2 0x100 DUP1 DUP4 SLOAD DIV MUL DUP4 MSTORE SWAP2 PUSH1 0x20 ADD SWAP2 PUSH2 0x191B JUMP JUMPDEST DUP3 ADD SWAP2 SWAP1 PUSH1 0x0 MSTORE PUSH1 0x20 PUSH1 0x0 KECCAK256 SWAP1 JUMPDEST DUP2 SLOAD DUP2 MSTORE SWAP1 PUSH1 0x1 ADD SWAP1 PUSH1 0x20 ADD DUP1 DUP4 GT PUSH2 0x18FE JUMPI DUP3 SWAP1 SUB PUSH1 0x1F AND DUP3 ADD SWAP2 JUMPDEST POP POP POP POP POP DUP2 MSTORE PUSH1 0x20 ADD PUSH1 0x2 DUP3 ADD SLOAD DUP2 MSTORE PUSH1 0x20 ADD PUSH1 0x3 DUP3 ADD DUP1 SLOAD PUSH2 0x193E SWAP1 PUSH2 0x4696 JUMP JUMPDEST DUP1 PUSH1 0x1F ADD PUSH1 0x20 DUP1 SWAP2 DIV MUL PUSH1 0x20 ADD PUSH1 0x40 MLOAD SWAP1 DUP2 ADD PUSH1 0x40 MSTORE DUP1 SWAP3 SWAP2 SWAP1 DUP2 DUP2 MSTORE PUSH1 0x20 ADD DUP3 DUP1 SLOAD PUSH2 0x196A SWAP1 PUSH2 0x4696 JUMP JUMPDEST DUP1 ISZERO PUSH2 0x19B7 JUMPI DUP1 PUSH1 0x1F LT PUSH2 0x198C JUMPI PUSH2 0x100 DUP1 DUP4 SLOAD DIV MUL DUP4 MSTORE SWAP2 PUSH1 0x20 ADD SWAP2 PUSH2 0x19B7 JUMP JUMPDEST DUP3 ADD SWAP2 SWAP1 PUSH1 0x0 MSTORE PUSH1 0x20 PUSH1 0x0 KECCAK256 SWAP1 JUMPDEST DUP2 SLOAD DUP2 MSTORE SWAP1 PUSH1 0x1 ADD SWAP1 PUSH1 0x20 ADD DUP1 DUP4 GT PUSH2 0x199A JUMPI DUP3 SWAP1 SUB PUSH1 0x1F AND DUP3 ADD SWAP2 JUMPDEST POP POP POP POP POP DUP2 MSTORE PUSH1 0x20 ADD PUSH1 0x4 DUP3 ADD DUP1 SLOAD DUP1 PUSH1 0x20 MUL PUSH1 0x20 ADD PUSH1 0x40 MLOAD SWAP1 DUP2 ADD PUSH1 0x40 MSTORE DUP1 SWAP3 SWAP2 SWAP1 DUP2 DUP2 MSTORE PUSH1 0x20 ADD DUP3 DUP1 SLOAD DUP1 ISZERO PUSH2 0x1A44 JUMPI PUSH1 0x20 MUL DUP3 ADD SWAP2 SWAP1 PUSH1 0x0 MSTORE PUSH1 0x20 PUSH1 0x0 KECCAK256 SWAP1 PUSH1 0x0 SWAP1 JUMPDEST DUP3 DUP3 SWAP1 SLOAD SWAP1 PUSH2 0x100 EXP SWAP1 DIV PUSH1 0xFF AND PUSH1 0x4 DUP2 GT ISZERO PUSH2 0x1A1E JUMPI PUSH2 0x1A1D PUSH2 0x3EB0 JUMP JUMPDEST JUMPDEST DUP2 MSTORE PUSH1 0x20 ADD SWAP1 PUSH1 0x1 ADD SWAP1 PUSH1 0x20 DUP3 PUSH1 0x0 ADD DIV SWAP3 DUP4 ADD SWAP3 PUSH1 0x1 SUB DUP3 MUL SWAP2 POP DUP1 DUP5 GT PUSH2 0x19FE JUMPI SWAP1 POP JUMPDEST POP POP POP POP POP DUP2 MSTORE PUSH1 0x20 ADD PUSH1 0x5 DUP3 ADD DUP1 SLOAD PUSH2 0x1A5D SWAP1 PUSH2 0x4696 JUMP JUMPDEST DUP1 PUSH1 0x1F ADD PUSH1 0x20 DUP1 SWAP2 DIV MUL PUSH1 0x20 ADD PUSH1 0x40 MLOAD SWAP1 DUP2 ADD PUSH1 0x40 MSTORE DUP1 SWAP3 SWAP2 SWAP1 DUP2 DUP2 MSTORE PUSH1 0x20 ADD DUP3 DUP1 SLOAD PUSH2 0x1A89 SWAP1 PUSH2 0x4696 JUMP JUMPDEST DUP1 ISZERO PUSH2 0x1AD6 JUMPI DUP1 PUSH1 0x1F LT PUSH2 0x1AAB JUMPI PUSH2 0x100 DUP1 DUP4 SLOAD DIV MUL DUP4 MSTORE SWAP2 PUSH1 0x20 ADD SWAP2 PUSH2 0x1AD6 JUMP JUMPDEST DUP3 ADD SWAP2 SWAP1 PUSH1 0x0 MSTORE PUSH1 0x20 PUSH1 0x0 KECCAK256 SWAP1 JUMPDEST DUP2 SLOAD DUP2 MSTORE SWAP1 PUSH1 0x1 ADD SWAP1 PUSH1 0x20 ADD DUP1 DUP4 GT PUSH2 0x1AB9 JUMPI DUP3 SWAP1 SUB PUSH1 0x1F AND DUP3 ADD SWAP2 JUMPDEST POP POP POP POP POP DUP2 MSTORE PUSH1 0x20 ADD PUSH1 0x6 DUP3 ADD PUSH1 0x0 SWAP1 SLOAD SWAP1 PUSH2 0x100 EXP SWAP1 DIV PUSH1 0xFF AND ISZERO ISZERO ISZERO ISZERO DUP2 MSTORE PUSH1 0x20 ADD PUSH1 0x6 DUP3 ADD PUSH1 0x1 SWAP1 SLOAD SWAP1 PUSH2 0x100 EXP SWAP1 DIV PUSH1 0xFF AND ISZERO ISZERO ISZERO ISZERO DUP2 MSTORE PUSH1 0x20 ADD PUSH1 0x6 DUP3 ADD PUSH1 0x2 SWAP1 SLOAD SWAP1 PUSH2 0x100 EXP SWAP1 DIV PUSH1 0xFF AND ISZERO ISZERO ISZERO ISZERO DUP2 MSTORE PUSH1 0x20 ADD PUSH1 0x6 DUP3 ADD PUSH1 0x3 SWAP1 SLOAD SWAP1 PUSH2 0x100 EXP SWAP1 DIV PUSH1 0xFF AND ISZERO ISZERO ISZERO ISZERO DUP2 MSTORE PUSH1 0x20 ADD PUSH1 0x6 DUP3 ADD PUSH1 0x4 SWAP1 SLOAD SWAP1 PUSH2 0x100 EXP SWAP1 DIV PUSH1 0xFF AND ISZERO ISZERO ISZERO ISZERO DUP2 MSTORE PUSH1 0x20 ADD PUSH1 0x7 DUP3 ADD DUP1 SLOAD PUSH2 0x1B76 SWAP1 PUSH2 0x4696 JUMP JUMPDEST DUP1 PUSH1 0x1F ADD PUSH1 0x20 DUP1 SWAP2 DIV MUL PUSH1 0x20 ADD PUSH1 0x40 MLOAD SWAP1 DUP2 ADD PUSH1 0x40 MSTORE DUP1 SWAP3 SWAP2 SWAP1 DUP2 DUP2 MSTORE PUSH1 0x20 ADD DUP3 DUP1 SLOAD PUSH2 0x1BA2 SWAP1 PUSH2 0x4696 JUMP JUMPDEST DUP1 ISZERO PUSH2 0x1BEF JUMPI DUP1 PUSH1 0x1F LT PUSH2 0x1BC4 JUMPI PUSH2 0x100 DUP1 DUP4 SLOAD DIV MUL DUP4 MSTORE SWAP2 PUSH1 0x20 ADD SWAP2 PUSH2 0x1BEF JUMP JUMPDEST DUP3 ADD SWAP2 SWAP1 PUSH1 0x0 MSTORE PUSH1 0x20 PUSH1 0x0 KECCAK256 SWAP1 JUMPDEST DUP2 SLOAD DUP2 MSTORE SWAP1 PUSH1 0x1 ADD SWAP1 PUSH1 0x20 ADD DUP1 DUP4 GT PUSH2 0x1BD2 JUMPI DUP3 SWAP1 SUB PUSH1 0x1F AND DUP3 ADD SWAP2 JUMPDEST POP POP POP POP POP DUP2 MSTORE POP POP SWAP1 POP DUP1 PUSH1 0x0 ADD MLOAD DUP2 PUSH1 0x20 ADD MLOAD DUP3 PUSH1 0x40 ADD MLOAD DUP4 PUSH1 0x60 ADD MLOAD DUP5 PUSH1 0x80 ADD MLOAD DUP6 PUSH1 0xA0 ADD MLOAD DUP7 PUSH1 0xC0 ADD MLOAD DUP8 PUSH1 0xE0 ADD MLOAD DUP9 PUSH2 0x100 ADD MLOAD DUP10 PUSH2 0x120 ADD MLOAD DUP11 PUSH2 0x140 ADD MLOAD DUP12 PUSH2 0x160 ADD MLOAD SWAP13 POP SWAP13 POP SWAP13 POP SWAP13 POP SWAP13 POP SWAP13 POP SWAP13 POP SWAP13 POP SWAP13 POP SWAP13 POP SWAP13 POP SWAP13 POP POP SWAP2 SWAP4 SWAP6 SWAP8 SWAP10 SWAP12 POP SWAP2 SWAP4 SWAP6 SWAP8 SWAP10 SWAP12 JUMP JUMPDEST PUSH1 0x5 DUP2 DUP2 SLOAD DUP2 LT PUSH2 0x1C72 JUMPI PUSH1 0x0 DUP1 REVERT JUMPDEST SWAP1 PUSH1 0x0 MSTORE PUSH1 0x20 PUSH1 0x0 KECCAK256 ADD PUSH1 0x0 SWAP2 POP SLOAD SWAP1 PUSH2 0x100 EXP SWAP1 DIV PUSH20 0xFFFFFFFFFFFFFFFFFFFFFFFFFFFFFFFFFFFFFFFF AND DUP2 JUMP JUMPDEST PUSH1 0x3 DUP1 DUP2 GT ISZERO PUSH2 0x1CB4 JUMPI PUSH2 0x1CB3 PUSH2 0x3EB0 JUMP JUMPDEST JUMPDEST PUSH1 0x1 PUSH1 0x0 CALLER PUSH20 0xFFFFFFFFFFFFFFFFFFFFFFFFFFFFFFFFFFFFFFFF AND PUSH20 0xFFFFFFFFFFFFFFFFFFFFFFFFFFFFFFFFFFFFFFFF AND DUP2 MSTORE PUSH1 0x20 ADD SWAP1 DUP2 MSTORE PUSH1 0x20 ADD PUSH1 0x0 KECCAK256 PUSH1 0x0 SWAP1 SLOAD SWAP1 PUSH2 0x100 EXP SWAP1 DIV PUSH1 0xFF AND PUSH1 0x3 DUP2 GT ISZERO PUSH2 0x1D13 JUMPI PUSH2 0x1D12 PUSH2 0x3EB0 JUMP JUMPDEST JUMPDEST EQ PUSH2 0x1D53 JUMPI PUSH1 0x40 MLOAD PUSH32 0x8C379A000000000000000000000000000000000000000000000000000000000 DUP2 MSTORE PUSH1 0x4 ADD PUSH2 0x1D4A SWAP1 PUSH2 0x4713 JUMP JUMPDEST PUSH1 0x40 MLOAD DUP1 SWAP2 SUB SWAP1 REVERT JUMPDEST PUSH1 0x1 PUSH1 0x2 PUSH1 0x0 DUP4 PUSH20 0xFFFFFFFFFFFFFFFFFFFFFFFFFFFFFFFFFFFFFFFF AND PUSH20 0xFFFFFFFFFFFFFFFFFFFFFFFFFFFFFFFFFFFFFFFF AND DUP2 MSTORE PUSH1 0x20 ADD SWAP1 DUP2 MSTORE PUSH1 0x20 ADD PUSH1 0x0 KECCAK256 PUSH1 0x6 ADD PUSH1 0x4 PUSH2 0x100 EXP DUP2 SLOAD DUP2 PUSH1 0xFF MUL NOT AND SWAP1 DUP4 ISZERO ISZERO MUL OR SWAP1 SSTORE POP DUP1 PUSH20 0xFFFFFFFFFFFFFFFFFFFFFFFFFFFFFFFFFFFFFFFF AND PUSH32 0xD3246DED9638F3A0C0BA5C93A9A153D20C9176E5C705E1E0A3F7E92E0CB0500B PUSH1 0x40 MLOAD PUSH1 0x40 MLOAD DUP1 SWAP2 SUB SWAP1 LOG2 POP JUMP JUMPDEST PUSH1 0x3 DUP1 DUP2 GT ISZERO PUSH2 0x1E07 JUMPI PUSH2 0x1E06 PUSH2 0x3EB0 JUMP JUMPDEST JUMPDEST PUSH1 0x1 PUSH1 0x0 CALLER PUSH20 0xFFFFFFFFFFFFFFFFFFFFFFFFFFFFFFFFFFFFFFFF AND PUSH20 0xFFFFFFFFFFFFFFFFFFFFFFFFFFFFFFFFFFFFFFFF AND DUP2 MSTORE PUSH1 0x20 ADD SWAP1 DUP2 MSTORE PUSH1 0x20 ADD PUSH1 0x0 KECCAK256 PUSH1 0x0 SWAP1 SLOAD SWAP1 PUSH2 0x100 EXP SWAP1 DIV PUSH1 0xFF AND PUSH1 0x3 DUP2 GT ISZERO PUSH2 0x1E66 JUMPI PUSH2 0x1E65 PUSH2 0x3EB0 JUMP JUMPDEST JUMPDEST EQ PUSH2 0x1EA6 JUMPI PUSH1 0x40 MLOAD PUSH32 0x8C379A000000000000000000000000000000000000000000000000000000000 DUP2 MSTORE PUSH1 0x4 ADD PUSH2 0x1E9D SWAP1 PUSH2 0x4713 JUMP JUMPDEST PUSH1 0x40 MLOAD DUP1 SWAP2 SUB SWAP1 REVERT JUMPDEST PUSH1 0x1 PUSH1 0x3 DUP2 GT ISZERO PUSH2 0x1EBA JUMPI PUSH2 0x1EB9 PUSH2 0x3EB0 JUMP JUMPDEST JUMPDEST DUP2 PUSH1 0x3 DUP2 GT ISZERO PUSH2 0x1ECD JUMPI PUSH2 0x1ECC PUSH2 0x3EB0 JUMP JUMPDEST JUMPDEST EQ DUP1 PUSH2 0x1EFD JUMPI POP PUSH1 0x2 PUSH1 0x3 DUP2 GT ISZERO PUSH2 0x1EE8 JUMPI PUSH2 0x1EE7 PUSH2 0x3EB0 JUMP JUMPDEST JUMPDEST DUP2 PUSH1 0x3 DUP2 GT ISZERO PUSH2 0x1EFB JUMPI PUSH2 0x1EFA PUSH2 0x3EB0 JUMP JUMPDEST JUMPDEST EQ JUMPDEST PUSH2 0x1F3C JUMPI PUSH1 0x40 MLOAD PUSH32 0x8C379A000000000000000000000000000000000000000000000000000000000 DUP2 MSTORE PUSH1 0x4 ADD PUSH2 0x1F33 SWAP1 PUSH2 0x4D4D JUMP JUMPDEST PUSH1 0x40 MLOAD DUP1 SWAP2 SUB SWAP1 REVERT JUMPDEST PUSH1 0x1 PUSH1 0x3 DUP2 GT ISZERO PUSH2 0x1F50 JUMPI PUSH2 0x1F4F PUSH2 0x3EB0 JUMP JUMPDEST JUMPDEST DUP2 PUSH1 0x3 DUP2 GT ISZERO PUSH2 0x1F63 JUMPI PUSH2 0x1F62 PUSH2 0x3EB0 JUMP JUMPDEST JUMPDEST SUB PUSH2 0x207B JUMPI PUSH1 0x1 PUSH1 0x3 DUP2 GT ISZERO PUSH2 0x1F7C JUMPI PUSH2 0x1F7B PUSH2 0x3EB0 JUMP JUMPDEST JUMPDEST PUSH1 0x1 PUSH1 0x0 DUP5 PUSH20 0xFFFFFFFFFFFFFFFFFFFFFFFFFFFFFFFFFFFFFFFF AND PUSH20 0xFFFFFFFFFFFFFFFFFFFFFFFFFFFFFFFFFFFFFFFF AND DUP2 MSTORE PUSH1 0x20 ADD SWAP1 DUP2 MSTORE PUSH1 0x20 ADD PUSH1 0x0 KECCAK256 PUSH1 0x0 SWAP1 SLOAD SWAP1 PUSH2 0x100 EXP SWAP1 DIV PUSH1 0xFF AND PUSH1 0x3 DUP2 GT ISZERO PUSH2 0x1FDB JUMPI PUSH2 0x1FDA PUSH2 0x3EB0 JUMP JUMPDEST JUMPDEST EQ PUSH2 0x201B JUMPI PUSH1 0x40 MLOAD PUSH32 0x8C379A000000000000000000000000000000000000000000000000000000000 DUP2 MSTORE PUSH1 0x4 ADD PUSH2 0x2012 SWAP1 PUSH2 0x4DDF JUMP JUMPDEST PUSH1 0x40 MLOAD DUP1 SWAP2 SUB SWAP1 REVERT JUMPDEST PUSH1 0x1 PUSH1 0x2 PUSH1 0x0 DUP5 PUSH20 0xFFFFFFFFFFFFFFFFFFFFFFFFFFFFFFFFFFFFFFFF AND PUSH20 0xFFFFFFFFFFFFFFFFFFFFFFFFFFFFFFFFFFFFFFFF AND DUP2 MSTORE PUSH1 0x20 ADD SWAP1 DUP2 MSTORE PUSH1 0x20 ADD PUSH1 0x0 KECCAK256 PUSH1 0x6 ADD PUSH1 0x1 PUSH2 0x100 EXP DUP2 SLOAD DUP2 PUSH1 0xFF MUL NOT AND SWAP1 DUP4 ISZERO ISZERO MUL OR SWAP1 SSTORE POP PUSH2 0x21B7 JUMP JUMPDEST PUSH1 0x2 PUSH1 0x3 DUP2 GT ISZERO PUSH2 0x208F JUMPI PUSH2 0x208E PUSH2 0x3EB0 JUMP JUMPDEST JUMPDEST DUP2 PUSH1 0x3 DUP2 GT ISZERO PUSH2 0x20A2 JUMPI PUSH2 0x20A1 PUSH2 0x3EB0 JUMP JUMPDEST JUMPDEST SUB PUSH2 0x21B6 JUMPI PUSH1 0x2 PUSH1 0x3 DUP2 GT ISZERO PUSH2 0x20BB JUMPI PUSH2 0x20BA PUSH2 0x3EB0 JUMP JUMPDEST JUMPDEST PUSH1 0x1 PUSH1 0x0 DUP5 PUSH20 0xFFFFFFFFFFFFFFFFFFFFFFFFFFFFFFFFFFFFFFFF AND PUSH20 0xFFFFFFFFFFFFFFFFFFFFFFFFFFFFFFFFFFFFFFFF AND DUP2 MSTORE PUSH1 0x20 ADD SWAP1 DUP2 MSTORE PUSH1 0x20 ADD PUSH1 0x0 KECCAK256 PUSH1 0x0 SWAP1 SLOAD SWAP1 PUSH2 0x100 EXP SWAP1 DIV PUSH1 0xFF AND PUSH1 0x3 DUP2 GT ISZERO PUSH2 0x211A JUMPI PUSH2 0x2119 PUSH2 0x3EB0 JUMP JUMPDEST JUMPDEST EQ PUSH2 0x215A JUMPI PUSH1 0x40 MLOAD PUSH32 0x8C379A000000000000000000000000000000000000000000000000000000000 DUP2 MSTORE PUSH1 0x4 ADD PUSH2 0x2151 SWAP1 PUSH2 0x4E71 JUMP JUMPDEST PUSH1 0x40 MLOAD DUP1 SWAP2 SUB SWAP1 REVERT JUMPDEST PUSH1 0x1 PUSH1 0x3 PUSH1 0x0 DUP5 PUSH20 0xFFFFFFFFFFFFFFFFFFFFFFFFFFFFFFFFFFFFFFFF AND PUSH20 0xFFFFFFFFFFFFFFFFFFFFFFFFFFFFFFFFFFFFFFFF AND DUP2 MSTORE PUSH1 0x20 ADD SWAP1 DUP2 MSTORE PUSH1 0x20 ADD PUSH1 0x0 KECCAK256 PUSH1 0x7 ADD PUSH1 0x0 PUSH2 0x100 EXP DUP2 SLOAD DUP2 PUSH1 0xFF MUL NOT AND SWAP1 DUP4 ISZERO ISZERO MUL OR SWAP1 SSTORE POP JUMPDEST JUMPDEST DUP2 PUSH20 0xFFFFFFFFFFFFFFFFFFFFFFFFFFFFFFFFFFFFFFFF AND PUSH32 0x3E60282061AA9F0AC8F17CB522AB49946225E94F8597D84E6504593EE06A81E0 DUP3 PUSH1 0x40 MLOAD PUSH2 0x21FD SWAP2 SWAP1 PUSH2 0x3F27 JUMP JUMPDEST PUSH1 0x40 MLOAD DUP1 SWAP2 SUB SWAP1 LOG2 POP POP JUMP JUMPDEST PUSH1 0x0 DUP8 MLOAD GT PUSH2 0x224D JUMPI PUSH1 0x40 MLOAD PUSH32 0x8C379A000000000000000000000000000000000000000000000000000000000 DUP2 MSTORE PUSH1 0x4 ADD PUSH2 0x2244 SWAP1 PUSH2 0x477F JUMP JUMPDEST PUSH1 0x40 MLOAD DUP1 SWAP2 SUB SWAP1 REVERT JUMPDEST PUSH1 0x0 DUP7 MLOAD GT PUSH2 0x2291 JUMPI PUSH1 0x40 MLOAD PUSH32 0x8C379A000000000000000000000000000000000000000000000000000000000 DUP2 MSTORE PUSH1 0x4 ADD PUSH2 0x2288 SWAP1 PUSH2 0x487D JUMP JUMPDEST PUSH1 0x40 MLOAD DUP1 SWAP2 SUB SWAP1 REVERT JUMPDEST PUSH1 0x0 DUP6 MLOAD GT PUSH2 0x22D5 JUMPI PUSH1 0x40 MLOAD PUSH32 0x8C379A000000000000000000000000000000000000000000000000000000000 DUP2 MSTORE PUSH1 0x4 ADD PUSH2 0x22CC SWAP1 PUSH2 0x4EDD JUMP JUMPDEST PUSH1 0x40 MLOAD DUP1 SWAP2 SUB SWAP1 REVERT JUMPDEST PUSH1 0x0 DUP5 MLOAD GT PUSH2 0x2319 JUMPI PUSH1 0x40 MLOAD PUSH32 0x8C379A000000000000000000000000000000000000000000000000000000000 DUP2 MSTORE PUSH1 0x4 ADD PUSH2 0x2310 SWAP1 PUSH2 0x4F49 JUMP JUMPDEST PUSH1 0x40 MLOAD DUP1 SWAP2 SUB SWAP1 REVERT JUMPDEST PUSH1 0x0 DUP4 MLOAD GT PUSH2 0x235D JUMPI PUSH1 0x40 MLOAD PUSH32 0x8C379A000000000000000000000000000000000000000000000000000000000 DUP2 MSTORE PUSH1 0x4 ADD PUSH2 0x2354 SWAP1 PUSH2 0x497B JUMP JUMPDEST PUSH1 0x40 MLOAD DUP1 SWAP2 SUB SWAP1 REVERT JUMPDEST PUSH1 0x0 DUP2 GT PUSH2 0x23A0 JUMPI PUSH1 0x40 MLOAD PUSH32 0x8C379A000000000000000000000000000000000000000000000000000000000 DUP2 MSTORE PUSH1 0x4 ADD PUSH2 0x2397 SWAP1 PUSH2 0x4FB5 JUMP JUMPDEST PUSH1 0x40 MLOAD DUP1 SWAP2 SUB SWAP1 REVERT JUMPDEST PUSH1 0x40 MLOAD DUP1 PUSH2 0x160 ADD PUSH1 0x40 MSTORE DUP1 CALLER PUSH20 0xFFFFFFFFFFFFFFFFFFFFFFFFFFFFFFFFFFFFFFFF AND DUP2 MSTORE PUSH1 0x20 ADD DUP9 DUP2 MSTORE PUSH1 0x20 ADD DUP3 DUP2 MSTORE PUSH1 0x20 ADD DUP8 DUP2 MSTORE PUSH1 0x20 ADD DUP7 DUP2 MSTORE PUSH1 0x20 ADD DUP6 DUP2 MSTORE PUSH1 0x20 ADD DUP5 DUP2 MSTORE PUSH1 0x20 ADD PUSH1 0x0 ISZERO ISZERO DUP2 MSTORE PUSH1 0x20 ADD PUSH1 0x0 ISZERO ISZERO DUP2 MSTORE PUSH1 0x20 ADD PUSH1 0x0 ISZERO ISZERO DUP2 MSTORE PUSH1 0x20 ADD DUP4 DUP2 MSTORE POP PUSH1 0x3 PUSH1 0x0 CALLER PUSH20 0xFFFFFFFFFFFFFFFFFFFFFFFFFFFFFFFFFFFFFFFF AND PUSH20 0xFFFFFFFFFFFFFFFFFFFFFFFFFFFFFFFFFFFFFFFF AND DUP2 MSTORE PUSH1 0x20 ADD SWAP1 DUP2 MSTORE PUSH1 0x20 ADD PUSH1 0x0 KECCAK256 PUSH1 0x0 DUP3 ADD MLOAD DUP2 PUSH1 0x0 ADD PUSH1 0x0 PUSH2 0x100 EXP DUP2 SLOAD DUP2 PUSH20 0xFFFFFFFFFFFFFFFFFFFFFFFFFFFFFFFFFFFFFFFF MUL NOT AND SWAP1 DUP4 PUSH20 0xFFFFFFFFFFFFFFFFFFFFFFFFFFFFFFFFFFFFFFFF AND MUL OR SWAP1 SSTORE POP PUSH1 0x20 DUP3 ADD MLOAD DUP2 PUSH1 0x1 ADD SWAP1 DUP2 PUSH2 0x24A6 SWAP2 SWAP1 PUSH2 0x4B47 JUMP JUMPDEST POP PUSH1 0x40 DUP3 ADD MLOAD DUP2 PUSH1 0x2 ADD SSTORE PUSH1 0x60 DUP3 ADD MLOAD DUP2 PUSH1 0x3 ADD SWAP1 DUP2 PUSH2 0x24C6 SWAP2 SWAP1 PUSH2 0x4B47 JUMP JUMPDEST POP PUSH1 0x80 DUP3 ADD MLOAD DUP2 PUSH1 0x4 ADD SWAP1 DUP2 PUSH2 0x24DC SWAP2 SWAP1 PUSH2 0x4B47 JUMP JUMPDEST POP PUSH1 0xA0 DUP3 ADD MLOAD DUP2 PUSH1 0x5 ADD SWAP1 DUP2 PUSH2 0x24F2 SWAP2 SWAP1 PUSH2 0x4B47 JUMP JUMPDEST POP PUSH1 0xC0 DUP3 ADD MLOAD DUP2 PUSH1 0x6 ADD SWAP1 DUP2 PUSH2 0x2508 SWAP2 SWAP1 PUSH2 0x4B47 JUMP JUMPDEST POP PUSH1 0xE0 DUP3 ADD MLOAD DUP2 PUSH1 0x7 ADD PUSH1 0x0 PUSH2 0x100 EXP DUP2 SLOAD DUP2 PUSH1 0xFF MUL NOT AND SWAP1 DUP4 ISZERO ISZERO MUL OR SWAP1 SSTORE POP PUSH2 0x100 DUP3 ADD MLOAD DUP2 PUSH1 0x7 ADD PUSH1 0x1 PUSH2 0x100 EXP DUP2 SLOAD DUP2 PUSH1 0xFF MUL NOT AND SWAP1 DUP4 ISZERO ISZERO MUL OR SWAP1 SSTORE POP PUSH2 0x120 DUP3 ADD MLOAD DUP2 PUSH1 0x7 ADD PUSH1 0x2 PUSH2 0x100 EXP DUP2 SLOAD DUP2 PUSH1 0xFF MUL NOT AND SWAP1 DUP4 ISZERO ISZERO MUL OR SWAP1 SSTORE POP PUSH2 0x140 DUP3 ADD MLOAD DUP2 PUSH1 0x8 ADD SWAP1 DUP2 PUSH2 0x2581 SWAP2 SWAP1 PUSH2 0x4B47 JUMP JUMPDEST POP SWAP1 POP POP PUSH1 0x2 PUSH1 0x1 PUSH1 0x0 CALLER PUSH20 0xFFFFFFFFFFFFFFFFFFFFFFFFFFFFFFFFFFFFFFFF AND PUSH20 0xFFFFFFFFFFFFFFFFFFFFFFFFFFFFFFFFFFFFFFFF AND DUP2 MSTORE PUSH1 0x20 ADD SWAP1 DUP2 MSTORE PUSH1 0x20 ADD PUSH1 0x0 KECCAK256 PUSH1 0x0 PUSH2 0x100 EXP DUP2 SLOAD DUP2 PUSH1 0xFF MUL NOT AND SWAP1 DUP4 PUSH1 0x3 DUP2 GT ISZERO PUSH2 0x25E8 JUMPI PUSH2 0x25E7 PUSH2 0x3EB0 JUMP JUMPDEST JUMPDEST MUL OR SWAP1 SSTORE POP PUSH1 0x5 CALLER SWAP1 DUP1 PUSH1 0x1 DUP2 SLOAD ADD DUP1 DUP3 SSTORE DUP1 SWAP2 POP POP PUSH1 0x1 SWAP1 SUB SWAP1 PUSH1 0x0 MSTORE PUSH1 0x20 PUSH1 0x0 KECCAK256 ADD PUSH1 0x0 SWAP1 SWAP2 SWAP1 SWAP2 SWAP1 SWAP2 PUSH2 0x100 EXP DUP2 SLOAD DUP2 PUSH20 0xFFFFFFFFFFFFFFFFFFFFFFFFFFFFFFFFFFFFFFFF MUL NOT AND SWAP1 DUP4 PUSH20 0xFFFFFFFFFFFFFFFFFFFFFFFFFFFFFFFFFFFFFFFF AND MUL OR SWAP1 SSTORE POP POP POP POP POP POP POP POP JUMP JUMPDEST PUSH1 0x60 PUSH1 0x0 DUP1 JUMPDEST PUSH1 0x4 DUP1 SLOAD SWAP1 POP DUP2 LT ISZERO PUSH2 0x27B8 JUMPI PUSH1 0x2 PUSH1 0x0 PUSH1 0x4 DUP4 DUP2 SLOAD DUP2 LT PUSH2 0x2684 JUMPI PUSH2 0x2683 PUSH2 0x4FD5 JUMP JUMPDEST JUMPDEST SWAP1 PUSH1 0x0 MSTORE PUSH1 0x20 PUSH1 0x0 KECCAK256 ADD PUSH1 0x0 SWAP1 SLOAD SWAP1 PUSH2 0x100 EXP SWAP1 DIV PUSH20 0xFFFFFFFFFFFFFFFFFFFFFFFFFFFFFFFFFFFFFFFF AND PUSH20 0xFFFFFFFFFFFFFFFFFFFFFFFFFFFFFFFFFFFFFFFF AND PUSH20 0xFFFFFFFFFFFFFFFFFFFFFFFFFFFFFFFFFFFFFFFF AND DUP2 MSTORE PUSH1 0x20 ADD SWAP1 DUP2 MSTORE PUSH1 0x20 ADD PUSH1 0x0 KECCAK256 PUSH1 0x6 ADD PUSH1 0x0 SWAP1 SLOAD SWAP1 PUSH2 0x100 EXP SWAP1 DIV PUSH1 0xFF AND ISZERO DUP1 ISZERO PUSH2 0x2791 JUMPI POP PUSH1 0x2 PUSH1 0x0 PUSH1 0x4 DUP4 DUP2 SLOAD DUP2 LT PUSH2 0x271A JUMPI PUSH2 0x2719 PUSH2 0x4FD5 JUMP JUMPDEST JUMPDEST SWAP1 PUSH1 0x0 MSTORE PUSH1 0x20 PUSH1 0x0 KECCAK256 ADD PUSH1 0x0 SWAP1 SLOAD SWAP1 PUSH2 0x100 EXP SWAP1 DIV PUSH20 0xFFFFFFFFFFFFFFFFFFFFFFFFFFFFFFFFFFFFFFFF AND PUSH20 0xFFFFFFFFFFFFFFFFFFFFFFFFFFFFFFFFFFFFFFFF AND PUSH20 0xFFFFFFFFFFFFFFFFFFFFFFFFFFFFFFFFFFFFFFFF AND DUP2 MSTORE PUSH1 0x20 ADD SWAP1 DUP2 MSTORE PUSH1 0x20 ADD PUSH1 0x0 KECCAK256 PUSH1 0x6 ADD PUSH1 0x1 SWAP1 SLOAD SWAP1 PUSH2 0x100 EXP SWAP1 DIV PUSH1 0xFF AND JUMPDEST ISZERO PUSH2 0x27A5 JUMPI DUP2 DUP1 PUSH2 0x27A1 SWAP1 PUSH2 0x5033 JUMP JUMPDEST SWAP3 POP POP JUMPDEST DUP1 DUP1 PUSH2 0x27B0 SWAP1 PUSH2 0x5033 JUMP JUMPDEST SWAP2 POP POP PUSH2 0x265F JUMP JUMPDEST POP PUSH1 0x0 DUP2 PUSH8 0xFFFFFFFFFFFFFFFF DUP2 GT ISZERO PUSH2 0x27D5 JUMPI PUSH2 0x27D4 PUSH2 0x3B3F JUMP JUMPDEST JUMPDEST PUSH1 0x40 MLOAD SWAP1 DUP1 DUP3 MSTORE DUP1 PUSH1 0x20 MUL PUSH1 0x20 ADD DUP3 ADD PUSH1 0x40 MSTORE DUP1 ISZERO PUSH2 0x280E JUMPI DUP2 PUSH1 0x20 ADD JUMPDEST PUSH2 0x27FB PUSH2 0x36FC JUMP JUMPDEST DUP2 MSTORE PUSH1 0x20 ADD SWAP1 PUSH1 0x1 SWAP1 SUB SWAP1 DUP2 PUSH2 0x27F3 JUMPI SWAP1 POP JUMPDEST POP SWAP1 POP PUSH1 0x0 DUP1 JUMPDEST PUSH1 0x4 DUP1 SLOAD SWAP1 POP DUP2 LT ISZERO PUSH2 0x2DCF JUMPI PUSH1 0x2 PUSH1 0x0 PUSH1 0x4 DUP4 DUP2 SLOAD DUP2 LT PUSH2 0x283A JUMPI PUSH2 0x2839 PUSH2 0x4FD5 JUMP JUMPDEST JUMPDEST SWAP1 PUSH1 0x0 MSTORE PUSH1 0x20 PUSH1 0x0 KECCAK256 ADD PUSH1 0x0 SWAP1 SLOAD SWAP1 PUSH2 0x100 EXP SWAP1 DIV PUSH20 0xFFFFFFFFFFFFFFFFFFFFFFFFFFFFFFFFFFFFFFFF AND PUSH20 0xFFFFFFFFFFFFFFFFFFFFFFFFFFFFFFFFFFFFFFFF AND PUSH20 0xFFFFFFFFFFFFFFFFFFFFFFFFFFFFFFFFFFFFFFFF AND DUP2 MSTORE PUSH1 0x20 ADD SWAP1 DUP2 MSTORE PUSH1 0x20 ADD PUSH1 0x0 KECCAK256 PUSH1 0x6 ADD PUSH1 0x0 SWAP1 SLOAD SWAP1 PUSH2 0x100 EXP SWAP1 DIV PUSH1 0xFF AND ISZERO DUP1 ISZERO PUSH2 0x2947 JUMPI POP PUSH1 0x2 PUSH1 0x0 PUSH1 0x4 DUP4 DUP2 SLOAD DUP2 LT PUSH2 0x28D0 JUMPI PUSH2 0x28CF PUSH2 0x4FD5 JUMP JUMPDEST JUMPDEST SWAP1 PUSH1 0x0 MSTORE PUSH1 0x20 PUSH1 0x0 KECCAK256 ADD PUSH1 0x0 SWAP1 SLOAD SWAP1 PUSH2 0x100 EXP SWAP1 DIV PUSH20 0xFFFFFFFFFFFFFFFFFFFFFFFFFFFFFFFFFFFFFFFF AND PUSH20 0xFFFFFFFFFFFFFFFFFFFFFFFFFFFFFFFFFFFFFFFF AND PUSH20 0xFFFFFFFFFFFFFFFFFFFFFFFFFFFFFFFFFFFFFFFF AND DUP2 MSTORE PUSH1 0x20 ADD SWAP1 DUP2 MSTORE PUSH1 0x20 ADD PUSH1 0x0 KECCAK256 PUSH1 0x6 ADD PUSH1 0x1 SWAP1 SLOAD SWAP1 PUSH2 0x100 EXP SWAP1 DIV PUSH1 0xFF AND JUMPDEST ISZERO PUSH2 0x2DBC JUMPI PUSH1 0x2 PUSH1 0x0 PUSH1 0x4 DUP4 DUP2 SLOAD DUP2 LT PUSH2 0x2964 JUMPI PUSH2 0x2963 PUSH2 0x4FD5 JUMP JUMPDEST JUMPDEST SWAP1 PUSH1 0x0 MSTORE PUSH1 0x20 PUSH1 0x0 KECCAK256 ADD PUSH1 0x0 SWAP1 SLOAD SWAP1 PUSH2 0x100 EXP SWAP1 DIV PUSH20 0xFFFFFFFFFFFFFFFFFFFFFFFFFFFFFFFFFFFFFFFF AND PUSH20 0xFFFFFFFFFFFFFFFFFFFFFFFFFFFFFFFFFFFFFFFF AND PUSH20 0xFFFFFFFFFFFFFFFFFFFFFFFFFFFFFFFFFFFFFFFF AND DUP2 MSTORE PUSH1 0x20 ADD SWAP1 DUP2 MSTORE PUSH1 0x20 ADD PUSH1 0x0 KECCAK256 PUSH1 0x40 MLOAD DUP1 PUSH2 0x180 ADD PUSH1 0x40 MSTORE SWAP1 DUP2 PUSH1 0x0 DUP3 ADD PUSH1 0x0 SWAP1 SLOAD SWAP1 PUSH2 0x100 EXP SWAP1 DIV PUSH20 0xFFFFFFFFFFFFFFFFFFFFFFFFFFFFFFFFFFFFFFFF AND PUSH20 0xFFFFFFFFFFFFFFFFFFFFFFFFFFFFFFFFFFFFFFFF AND PUSH20 0xFFFFFFFFFFFFFFFFFFFFFFFFFFFFFFFFFFFFFFFF AND DUP2 MSTORE PUSH1 0x20 ADD PUSH1 0x1 DUP3 ADD DUP1 SLOAD PUSH2 0x2A3B SWAP1 PUSH2 0x4696 JUMP JUMPDEST DUP1 PUSH1 0x1F ADD PUSH1 0x20 DUP1 SWAP2 DIV MUL PUSH1 0x20 ADD PUSH1 0x40 MLOAD SWAP1 DUP2 ADD PUSH1 0x40 MSTORE DUP1 SWAP3 SWAP2 SWAP1 DUP2 DUP2 MSTORE PUSH1 0x20 ADD DUP3 DUP1 SLOAD PUSH2 0x2A67 SWAP1 PUSH2 0x4696 JUMP JUMPDEST DUP1 ISZERO PUSH2 0x2AB4 JUMPI DUP1 PUSH1 0x1F LT PUSH2 0x2A89 JUMPI PUSH2 0x100 DUP1 DUP4 SLOAD DIV MUL DUP4 MSTORE SWAP2 PUSH1 0x20 ADD SWAP2 PUSH2 0x2AB4 JUMP JUMPDEST DUP3 ADD SWAP2 SWAP1 PUSH1 0x0 MSTORE PUSH1 0x20 PUSH1 0x0 KECCAK256 SWAP1 JUMPDEST DUP2 SLOAD DUP2 MSTORE SWAP1 PUSH1 0x1 ADD SWAP1 PUSH1 0x20 ADD DUP1 DUP4 GT PUSH2 0x2A97 JUMPI DUP3 SWAP1 SUB PUSH1 0x1F AND DUP3 ADD SWAP2 JUMPDEST POP POP POP POP POP DUP2 MSTORE PUSH1 0x20 ADD PUSH1 0x2 DUP3 ADD SLOAD DUP2 MSTORE PUSH1 0x20 ADD PUSH1 0x3 DUP3 ADD DUP1 SLOAD PUSH2 0x2AD7 SWAP1 PUSH2 0x4696 JUMP JUMPDEST DUP1 PUSH1 0x1F ADD PUSH1 0x20 DUP1 SWAP2 DIV MUL PUSH1 0x20 ADD PUSH1 0x40 MLOAD SWAP1 DUP2 ADD PUSH1 0x40 MSTORE DUP1 SWAP3 SWAP2 SWAP1 DUP2 DUP2 MSTORE PUSH1 0x20 ADD DUP3 DUP1 SLOAD PUSH2 0x2B03 SWAP1 PUSH2 0x4696 JUMP JUMPDEST DUP1 ISZERO PUSH2 0x2B50 JUMPI DUP1 PUSH1 0x1F LT PUSH2 0x2B25 JUMPI PUSH2 0x100 DUP1 DUP4 SLOAD DIV MUL DUP4 MSTORE SWAP2 PUSH1 0x20 ADD SWAP2 PUSH2 0x2B50 JUMP JUMPDEST DUP3 ADD SWAP2 SWAP1 PUSH1 0x0 MSTORE PUSH1 0x20 PUSH1 0x0 KECCAK256 SWAP1 JUMPDEST DUP2 SLOAD DUP2 MSTORE SWAP1 PUSH1 0x1 ADD SWAP1 PUSH1 0x20 ADD DUP1 DUP4 GT PUSH2 0x2B33 JUMPI DUP3 SWAP1 SUB PUSH1 0x1F AND DUP3 ADD SWAP2 JUMPDEST POP POP POP POP POP DUP2 MSTORE PUSH1 0x20 ADD PUSH1 0x4 DUP3 ADD DUP1 SLOAD DUP1 PUSH1 0x20 MUL PUSH1 0x20 ADD PUSH1 0x40 MLOAD SWAP1 DUP2 ADD PUSH1 0x40 MSTORE DUP1 SWAP3 SWAP2 SWAP1 DUP2 DUP2 MSTORE PUSH1 0x20 ADD DUP3 DUP1 SLOAD DUP1 ISZERO PUSH2 0x2BDD JUMPI PUSH1 0x20 MUL DUP3 ADD SWAP2 SWAP1 PUSH1 0x0 MSTORE PUSH1 0x20 PUSH1 0x0 KECCAK256 SWAP1 PUSH1 0x0 SWAP1 JUMPDEST DUP3 DUP3 SWAP1 SLOAD SWAP1 PUSH2 0x100 EXP SWAP1 DIV PUSH1 0xFF AND PUSH1 0x4 DUP2 GT ISZERO PUSH2 0x2BB7 JUMPI PUSH2 0x2BB6 PUSH2 0x3EB0 JUMP JUMPDEST JUMPDEST DUP2 MSTORE PUSH1 0x20 ADD SWAP1 PUSH1 0x1 ADD SWAP1 PUSH1 0x20 DUP3 PUSH1 0x0 ADD DIV SWAP3 DUP4 ADD SWAP3 PUSH1 0x1 SUB DUP3 MUL SWAP2 POP DUP1 DUP5 GT PUSH2 0x2B97 JUMPI SWAP1 POP JUMPDEST POP POP POP POP POP DUP2 MSTORE PUSH1 0x20 ADD PUSH1 0x5 DUP3 ADD DUP1 SLOAD PUSH2 0x2BF6 SWAP1 PUSH2 0x4696 JUMP JUMPDEST DUP1 PUSH1 0x1F ADD PUSH1 0x20 DUP1 SWAP2 DIV MUL PUSH1 0x20 ADD PUSH1 0x40 MLOAD SWAP1 DUP2 ADD PUSH1 0x40 MSTORE DUP1 SWAP3 SWAP2 SWAP1 DUP2 DUP2 MSTORE PUSH1 0x20 ADD DUP3 DUP1 SLOAD PUSH2 0x2C22 SWAP1 PUSH2 0x4696 JUMP JUMPDEST DUP1 ISZERO PUSH2 0x2C6F JUMPI DUP1 PUSH1 0x1F LT PUSH2 0x2C44 JUMPI PUSH2 0x100 DUP1 DUP4 SLOAD DIV MUL DUP4 MSTORE SWAP2 PUSH1 0x20 ADD SWAP2 PUSH2 0x2C6F JUMP JUMPDEST DUP3 ADD SWAP2 SWAP1 PUSH1 0x0 MSTORE PUSH1 0x20 PUSH1 0x0 KECCAK256 SWAP1 JUMPDEST DUP2 SLOAD DUP2 MSTORE SWAP1 PUSH1 0x1 ADD SWAP1 PUSH1 0x20 ADD DUP1 DUP4 GT PUSH2 0x2C52 JUMPI DUP3 SWAP1 SUB PUSH1 0x1F AND DUP3 ADD SWAP2 JUMPDEST POP POP POP POP POP DUP2 MSTORE PUSH1 0x20 ADD PUSH1 0x6 DUP3 ADD PUSH1 0x0 SWAP1 SLOAD SWAP1 PUSH2 0x100 EXP SWAP1 DIV PUSH1 0xFF AND ISZERO ISZERO ISZERO ISZERO DUP2 MSTORE PUSH1 0x20 ADD PUSH1 0x6 DUP3 ADD PUSH1 0x1 SWAP1 SLOAD SWAP1 PUSH2 0x100 EXP SWAP1 DIV PUSH1 0xFF AND ISZERO ISZERO ISZERO ISZERO DUP2 MSTORE PUSH1 0x20 ADD PUSH1 0x6 DUP3 ADD PUSH1 0x2 SWAP1 SLOAD SWAP1 PUSH2 0x100 EXP SWAP1 DIV PUSH1 0xFF AND ISZERO ISZERO ISZERO ISZERO DUP2 MSTORE PUSH1 0x20 ADD PUSH1 0x6 DUP3 ADD PUSH1 0x3 SWAP1 SLOAD SWAP1 PUSH2 0x100 EXP SWAP1 DIV PUSH1 0xFF AND ISZERO ISZERO ISZERO ISZERO DUP2 MSTORE PUSH1 0x20 ADD PUSH1 0x6 DUP3 ADD PUSH1 0x4 SWAP1 SLOAD SWAP1 PUSH2 0x100 EXP SWAP1 DIV PUSH1 0xFF AND ISZERO ISZERO ISZERO ISZERO DUP2 MSTORE PUSH1 0x20 ADD PUSH1 0x7 DUP3 ADD DUP1 SLOAD PUSH2 0x2D0F SWAP1 PUSH2 0x4696 JUMP JUMPDEST DUP1 PUSH1 0x1F ADD PUSH1 0x20 DUP1 SWAP2 DIV MUL PUSH1 0x20 ADD PUSH1 0x40 MLOAD SWAP1 DUP2 ADD PUSH1 0x40 MSTORE DUP1 SWAP3 SWAP2 SWAP1 DUP2 DUP2 MSTORE PUSH1 0x20 ADD DUP3 DUP1 SLOAD PUSH2 0x2D3B SWAP1 PUSH2 0x4696 JUMP JUMPDEST DUP1 ISZERO PUSH2 0x2D88 JUMPI DUP1 PUSH1 0x1F LT PUSH2 0x2D5D JUMPI PUSH2 0x100 DUP1 DUP4 SLOAD DIV MUL DUP4 MSTORE SWAP2 PUSH1 0x20 ADD SWAP2 PUSH2 0x2D88 JUMP JUMPDEST DUP3 ADD SWAP2 SWAP1 PUSH1 0x0 MSTORE PUSH1 0x20 PUSH1 0x0 KECCAK256 SWAP1 JUMPDEST DUP2 SLOAD DUP2 MSTORE SWAP1 PUSH1 0x1 ADD SWAP1 PUSH1 0x20 ADD DUP1 DUP4 GT PUSH2 0x2D6B JUMPI DUP3 SWAP1 SUB PUSH1 0x1F AND DUP3 ADD SWAP2 JUMPDEST POP POP POP POP POP DUP2 MSTORE POP POP DUP4 DUP4 DUP1 PUSH2 0x2D9D SWAP1 PUSH2 0x5033 JUMP JUMPDEST SWAP5 POP DUP2 MLOAD DUP2 LT PUSH2 0x2DB0 JUMPI PUSH2 0x2DAF PUSH2 0x4FD5 JUMP JUMPDEST JUMPDEST PUSH1 0x20 MUL PUSH1 0x20 ADD ADD DUP2 SWAP1 MSTORE POP JUMPDEST DUP1 DUP1 PUSH2 0x2DC7 SWAP1 PUSH2 0x5033 JUMP JUMPDEST SWAP2 POP POP PUSH2 0x2815 JUMP JUMPDEST POP DUP2 SWAP4 POP POP POP POP SWAP1 JUMP JUMPDEST PUSH1 0x2 PUSH1 0x20 MSTORE DUP1 PUSH1 0x0 MSTORE PUSH1 0x40 PUSH1 0x0 KECCAK256 PUSH1 0x0 SWAP2 POP SWAP1 POP DUP1 PUSH1 0x0 ADD PUSH1 0x0 SWAP1 SLOAD SWAP1 PUSH2 0x100 EXP SWAP1 DIV PUSH20 0xFFFFFFFFFFFFFFFFFFFFFFFFFFFFFFFFFFFFFFFF AND SWAP1 DUP1 PUSH1 0x1 ADD DUP1 SLOAD PUSH2 0x2E22 SWAP1 PUSH2 0x4696 JUMP JUMPDEST DUP1 PUSH1 0x1F ADD PUSH1 0x20 DUP1 SWAP2 DIV MUL PUSH1 0x20 ADD PUSH1 0x40 MLOAD SWAP1 DUP2 ADD PUSH1 0x40 MSTORE DUP1 SWAP3 SWAP2 SWAP1 DUP2 DUP2 MSTORE PUSH1 0x20 ADD DUP3 DUP1 SLOAD PUSH2 0x2E4E SWAP1 PUSH2 0x4696 JUMP JUMPDEST DUP1 ISZERO PUSH2 0x2E9B JUMPI DUP1 PUSH1 0x1F LT PUSH2 0x2E70 JUMPI PUSH2 0x100 DUP1 DUP4 SLOAD DIV MUL DUP4 MSTORE SWAP2 PUSH1 0x20 ADD SWAP2 PUSH2 0x2E9B JUMP JUMPDEST DUP3 ADD SWAP2 SWAP1 PUSH1 0x0 MSTORE PUSH1 0x20 PUSH1 0x0 KECCAK256 SWAP1 JUMPDEST DUP2 SLOAD DUP2 MSTORE SWAP1 PUSH1 0x1 ADD SWAP1 PUSH1 0x20 ADD DUP1 DUP4 GT PUSH2 0x2E7E JUMPI DUP3 SWAP1 SUB PUSH1 0x1F AND DUP3 ADD SWAP2 JUMPDEST POP POP POP POP POP SWAP1 DUP1 PUSH1 0x2 ADD SLOAD SWAP1 DUP1 PUSH1 0x3 ADD DUP1 SLOAD PUSH2 0x2EB6 SWAP1 PUSH2 0x4696 JUMP JUMPDEST DUP1 PUSH1 0x1F ADD PUSH1 0x20 DUP1 SWAP2 DIV MUL PUSH1 0x20 ADD PUSH1 0x40 MLOAD SWAP1 DUP2 ADD PUSH1 0x40 MSTORE DUP1 SWAP3 SWAP2 SWAP1 DUP2 DUP2 MSTORE PUSH1 0x20 ADD DUP3 DUP1 SLOAD PUSH2 0x2EE2 SWAP1 PUSH2 0x4696 JUMP JUMPDEST DUP1 ISZERO PUSH2 0x2F2F JUMPI DUP1 PUSH1 0x1F LT PUSH2 0x2F04 JUMPI PUSH2 0x100 DUP1 DUP4 SLOAD DIV MUL DUP4 MSTORE SWAP2 PUSH1 0x20 ADD SWAP2 PUSH2 0x2F2F JUMP JUMPDEST DUP3 ADD SWAP2 SWAP1 PUSH1 0x0 MSTORE PUSH1 0x20 PUSH1 0x0 KECCAK256 SWAP1 JUMPDEST DUP2 SLOAD DUP2 MSTORE SWAP1 PUSH1 0x1 ADD SWAP1 PUSH1 0x20 ADD DUP1 DUP4 GT PUSH2 0x2F12 JUMPI DUP3 SWAP1 SUB PUSH1 0x1F AND DUP3 ADD SWAP2 JUMPDEST POP POP POP POP POP SWAP1 DUP1 PUSH1 0x5 ADD DUP1 SLOAD PUSH2 0x2F44 SWAP1 PUSH2 0x4696 JUMP JUMPDEST DUP1 PUSH1 0x1F ADD PUSH1 0x20 DUP1 SWAP2 DIV MUL PUSH1 0x20 ADD PUSH1 0x40 MLOAD SWAP1 DUP2 ADD PUSH1 0x40 MSTORE DUP1 SWAP3 SWAP2 SWAP1 DUP2 DUP2 MSTORE PUSH1 0x20 ADD DUP3 DUP1 SLOAD PUSH2 0x2F70 SWAP1 PUSH2 0x4696 JUMP JUMPDEST DUP1 ISZERO PUSH2 0x2FBD JUMPI DUP1 PUSH1 0x1F LT PUSH2 0x2F92 JUMPI PUSH2 0x100 DUP1 DUP4 SLOAD DIV MUL DUP4 MSTORE SWAP2 PUSH1 0x20 ADD SWAP2 PUSH2 0x2FBD JUMP JUMPDEST DUP3 ADD SWAP2 SWAP1 PUSH1 0x0 MSTORE PUSH1 0x20 PUSH1 0x0 KECCAK256 SWAP1 JUMPDEST DUP2 SLOAD DUP2 MSTORE SWAP1 PUSH1 0x1 ADD SWAP1 PUSH1 0x20 ADD DUP1 DUP4 GT PUSH2 0x2FA0 JUMPI DUP3 SWAP1 SUB PUSH1 0x1F AND DUP3 ADD SWAP2 JUMPDEST POP POP POP POP POP SWAP1 DUP1 PUSH1 0x6 ADD PUSH1 0x0 SWAP1 SLOAD SWAP1 PUSH2 0x100 EXP SWAP1 DIV PUSH1 0xFF AND SWAP1 DUP1 PUSH1 0x6 ADD PUSH1 0x1 SWAP1 SLOAD SWAP1 PUSH2 0x100 EXP SWAP1 DIV PUSH1 0xFF AND SWAP1 DUP1 PUSH1 0x6 ADD PUSH1 0x2 SWAP1 SLOAD SWAP1 PUSH2 0x100 EXP SWAP1 DIV PUSH1 0xFF AND SWAP1 DUP1 PUSH1 0x6 ADD PUSH1 0x3 SWAP1 SLOAD SWAP1 PUSH2 0x100 EXP SWAP1 DIV PUSH1 0xFF AND SWAP1 DUP1 PUSH1 0x6 ADD PUSH1 0x4 SWAP1 SLOAD SWAP1 PUSH2 0x100 EXP SWAP1 DIV PUSH1 0xFF AND SWAP1 DUP1 PUSH1 0x7 ADD DUP1 SLOAD PUSH2 0x3031 SWAP1 PUSH2 0x4696 JUMP JUMPDEST DUP1 PUSH1 0x1F ADD PUSH1 0x20 DUP1 SWAP2 DIV MUL PUSH1 0x20 ADD PUSH1 0x40 MLOAD SWAP1 DUP2 ADD PUSH1 0x40 MSTORE DUP1 SWAP3 SWAP2 SWAP1 DUP2 DUP2 MSTORE PUSH1 0x20 ADD DUP3 DUP1 SLOAD PUSH2 0x305D SWAP1 PUSH2 0x4696 JUMP JUMPDEST DUP1 ISZERO PUSH2 0x30AA JUMPI DUP1 PUSH1 0x1F LT PUSH2 0x307F JUMPI PUSH2 0x100 DUP1 DUP4 SLOAD DIV MUL DUP4 MSTORE SWAP2 PUSH1 0x20 ADD SWAP2 PUSH2 0x30AA JUMP JUMPDEST DUP3 ADD SWAP2 SWAP1 PUSH1 0x0 MSTORE PUSH1 0x20 PUSH1 0x0 KECCAK256 SWAP1 JUMPDEST DUP2 SLOAD DUP2 MSTORE SWAP1 PUSH1 0x1 ADD SWAP1 PUSH1 0x20 ADD DUP1 DUP4 GT PUSH2 0x308D JUMPI DUP3 SWAP1 SUB PUSH1 0x1F AND DUP3 ADD SWAP2 JUMPDEST POP POP POP POP POP SWAP1 POP DUP12 JUMP JUMPDEST PUSH1 0x0 PUSH1 0x60 PUSH1 0x0 PUSH1 0x60 DUP1 PUSH1 0x60 DUP1 PUSH1 0x0 DUP1 PUSH1 0x0 PUSH1 0x60 PUSH1 0x2 PUSH1 0x3 DUP2 GT ISZERO PUSH2 0x30DB JUMPI PUSH2 0x30DA PUSH2 0x3EB0 JUMP JUMPDEST JUMPDEST PUSH1 0x1 PUSH1 0x0 DUP15 PUSH20 0xFFFFFFFFFFFFFFFFFFFFFFFFFFFFFFFFFFFFFFFF AND PUSH20 0xFFFFFFFFFFFFFFFFFFFFFFFFFFFFFFFFFFFFFFFF AND DUP2 MSTORE PUSH1 0x20 ADD SWAP1 DUP2 MSTORE PUSH1 0x20 ADD PUSH1 0x0 KECCAK256 PUSH1 0x0 SWAP1 SLOAD SWAP1 PUSH2 0x100 EXP SWAP1 DIV PUSH1 0xFF AND PUSH1 0x3 DUP2 GT ISZERO PUSH2 0x313A JUMPI PUSH2 0x3139 PUSH2 0x3EB0 JUMP JUMPDEST JUMPDEST EQ PUSH2 0x317A JUMPI PUSH1 0x40 MLOAD PUSH32 0x8C379A000000000000000000000000000000000000000000000000000000000 DUP2 MSTORE PUSH1 0x4 ADD PUSH2 0x3171 SWAP1 PUSH2 0x50ED JUMP JUMPDEST PUSH1 0x40 MLOAD DUP1 SWAP2 SUB SWAP1 REVERT JUMPDEST PUSH1 0x0 PUSH1 0x3 PUSH1 0x0 DUP15 PUSH20 0xFFFFFFFFFFFFFFFFFFFFFFFFFFFFFFFFFFFFFFFF AND PUSH20 0xFFFFFFFFFFFFFFFFFFFFFFFFFFFFFFFFFFFFFFFF AND DUP2 MSTORE PUSH1 0x20 ADD SWAP1 DUP2 MSTORE PUSH1 0x20 ADD PUSH1 0x0 KECCAK256 PUSH1 0x40 MLOAD DUP1 PUSH2 0x160 ADD PUSH1 0x40 MSTORE SWAP1 DUP2 PUSH1 0x0 DUP3 ADD PUSH1 0x0 SWAP1 SLOAD SWAP1 PUSH2 0x100 EXP SWAP1 DIV PUSH20 0xFFFFFFFFFFFFFFFFFFFFFFFFFFFFFFFFFFFFFFFF AND PUSH20 0xFFFFFFFFFFFFFFFFFFFFFFFFFFFFFFFFFFFFFFFF AND PUSH20 0xFFFFFFFFFFFFFFFFFFFFFFFFFFFFFFFFFFFFFFFF AND DUP2 MSTORE PUSH1 0x20 ADD PUSH1 0x1 DUP3 ADD DUP1 SLOAD PUSH2 0x322D SWAP1 PUSH2 0x4696 JUMP JUMPDEST DUP1 PUSH1 0x1F ADD PUSH1 0x20 DUP1 SWAP2 DIV MUL PUSH1 0x20 ADD PUSH1 0x40 MLOAD SWAP1 DUP2 ADD PUSH1 0x40 MSTORE DUP1 SWAP3 SWAP2 SWAP1 DUP2 DUP2 MSTORE PUSH1 0x20 ADD DUP3 DUP1 SLOAD PUSH2 0x3259 SWAP1 PUSH2 0x4696 JUMP JUMPDEST DUP1 ISZERO PUSH2 0x32A6 JUMPI DUP1 PUSH1 0x1F LT PUSH2 0x327B JUMPI PUSH2 0x100 DUP1 DUP4 SLOAD DIV MUL DUP4 MSTORE SWAP2 PUSH1 0x20 ADD SWAP2 PUSH2 0x32A6 JUMP JUMPDEST DUP3 ADD SWAP2 SWAP1 PUSH1 0x0 MSTORE PUSH1 0x20 PUSH1 0x0 KECCAK256 SWAP1 JUMPDEST DUP2 SLOAD DUP2 MSTORE SWAP1 PUSH1 0x1 ADD SWAP1 PUSH1 0x20 ADD DUP1 DUP4 GT PUSH2 0x3289 JUMPI DUP3 SWAP1 SUB PUSH1 0x1F AND DUP3 ADD SWAP2 JUMPDEST POP POP POP POP POP DUP2 MSTORE PUSH1 0x20 ADD PUSH1 0x2 DUP3 ADD SLOAD DUP2 MSTORE PUSH1 0x20 ADD PUSH1 0x3 DUP3 ADD DUP1 SLOAD PUSH2 0x32C9 SWAP1 PUSH2 0x4696 JUMP JUMPDEST DUP1 PUSH1 0x1F ADD PUSH1 0x20 DUP1 SWAP2 DIV MUL PUSH1 0x20 ADD PUSH1 0x40 MLOAD SWAP1 DUP2 ADD PUSH1 0x40 MSTORE DUP1 SWAP3 SWAP2 SWAP1 DUP2 DUP2 MSTORE PUSH1 0x20 ADD DUP3 DUP1 SLOAD PUSH2 0x32F5 SWAP1 PUSH2 0x4696 JUMP JUMPDEST DUP1 ISZERO PUSH2 0x3342 JUMPI DUP1 PUSH1 0x1F LT PUSH2 0x3317 JUMPI PUSH2 0x100 DUP1 DUP4 SLOAD DIV MUL DUP4 MSTORE SWAP2 PUSH1 0x20 ADD SWAP2 PUSH2 0x3342 JUMP JUMPDEST DUP3 ADD SWAP2 SWAP1 PUSH1 0x0 MSTORE PUSH1 0x20 PUSH1 0x0 KECCAK256 SWAP1 JUMPDEST DUP2 SLOAD DUP2 MSTORE SWAP1 PUSH1 0x1 ADD SWAP1 PUSH1 0x20 ADD DUP1 DUP4 GT PUSH2 0x3325 JUMPI DUP3 SWAP1 SUB PUSH1 0x1F AND DUP3 ADD SWAP2 JUMPDEST POP POP POP POP POP DUP2 MSTORE PUSH1 0x20 ADD PUSH1 0x4 DUP3 ADD DUP1 SLOAD PUSH2 0x335B SWAP1 PUSH2 0x4696 JUMP JUMPDEST DUP1 PUSH1 0x1F ADD PUSH1 0x20 DUP1 SWAP2 DIV MUL PUSH1 0x20 ADD PUSH1 0x40 MLOAD SWAP1 DUP2 ADD PUSH1 0x40 MSTORE DUP1 SWAP3 SWAP2 SWAP1 DUP2 DUP2 MSTORE PUSH1 0x20 ADD DUP3 DUP1 SLOAD PUSH2 0x3387 SWAP1 PUSH2 0x4696 JUMP JUMPDEST DUP1 ISZERO PUSH2 0x33D4 JUMPI DUP1 PUSH1 0x1F LT PUSH2 0x33A9 JUMPI PUSH2 0x100 DUP1 DUP4 SLOAD DIV MUL DUP4 MSTORE SWAP2 PUSH1 0x20 ADD SWAP2 PUSH2 0x33D4 JUMP JUMPDEST DUP3 ADD SWAP2 SWAP1 PUSH1 0x0 MSTORE PUSH1 0x20 PUSH1 0x0 KECCAK256 SWAP1 JUMPDEST DUP2 SLOAD DUP2 MSTORE SWAP1 PUSH1 0x1 ADD SWAP1 PUSH1 0x20 ADD DUP1 DUP4 GT PUSH2 0x33B7 JUMPI DUP3 SWAP1 SUB PUSH1 0x1F AND DUP3 ADD SWAP2 JUMPDEST POP POP POP POP POP DUP2 MSTORE PUSH1 0x20 ADD PUSH1 0x5 DUP3 ADD DUP1 SLOAD PUSH2 0x33ED SWAP1 PUSH2 0x4696 JUMP JUMPDEST DUP1 PUSH1 0x1F ADD PUSH1 0x20 DUP1 SWAP2 DIV MUL PUSH1 0x20 ADD PUSH1 0x40 MLOAD SWAP1 DUP2 ADD PUSH1 0x40 MSTORE DUP1 SWAP3 SWAP2 SWAP1 DUP2 DUP2 MSTORE PUSH1 0x20 ADD DUP3 DUP1 SLOAD PUSH2 0x3419 SWAP1 PUSH2 0x4696 JUMP JUMPDEST DUP1 ISZERO PUSH2 0x3466 JUMPI DUP1 PUSH1 0x1F LT PUSH2 0x343B JUMPI PUSH2 0x100 DUP1 DUP4 SLOAD DIV MUL DUP4 MSTORE SWAP2 PUSH1 0x20 ADD SWAP2 PUSH2 0x3466 JUMP JUMPDEST DUP3 ADD SWAP2 SWAP1 PUSH1 0x0 MSTORE PUSH1 0x20 PUSH1 0x0 KECCAK256 SWAP1 JUMPDEST DUP2 SLOAD DUP2 MSTORE SWAP1 PUSH1 0x1 ADD SWAP1 PUSH1 0x20 ADD DUP1 DUP4 GT PUSH2 0x3449 JUMPI DUP3 SWAP1 SUB PUSH1 0x1F AND DUP3 ADD SWAP2 JUMPDEST POP POP POP POP POP DUP2 MSTORE PUSH1 0x20 ADD PUSH1 0x6 DUP3 ADD DUP1 SLOAD PUSH2 0x347F SWAP1 PUSH2 0x4696 JUMP JUMPDEST DUP1 PUSH1 0x1F ADD PUSH1 0x20 DUP1 SWAP2 DIV MUL PUSH1 0x20 ADD PUSH1 0x40 MLOAD SWAP1 DUP2 ADD PUSH1 0x40 MSTORE DUP1 SWAP3 SWAP2 SWAP1 DUP2 DUP2 MSTORE PUSH1 0x20 ADD DUP3 DUP1 SLOAD PUSH2 0x34AB SWAP1 PUSH2 0x4696 JUMP JUMPDEST DUP1 ISZERO PUSH2 0x34F8 JUMPI DUP1 PUSH1 0x1F LT PUSH2 0x34CD JUMPI PUSH2 0x100 DUP1 DUP4 SLOAD DIV MUL DUP4 MSTORE SWAP2 PUSH1 0x20 ADD SWAP2 PUSH2 0x34F8 JUMP JUMPDEST DUP3 ADD SWAP2 SWAP1 PUSH1 0x0 MSTORE PUSH1 0x20 PUSH1 0x0 KECCAK256 SWAP1 JUMPDEST DUP2 SLOAD DUP2 MSTORE SWAP1 PUSH1 0x1 ADD SWAP1 PUSH1 0x20 ADD DUP1 DUP4 GT PUSH2 0x34DB JUMPI DUP3 SWAP1 SUB PUSH1 0x1F AND DUP3 ADD SWAP2 JUMPDEST POP POP POP POP POP DUP2 MSTORE PUSH1 0x20 ADD PUSH1 0x7 DUP3 ADD PUSH1 0x0 SWAP1 SLOAD SWAP1 PUSH2 0x100 EXP SWAP1 DIV PUSH1 0xFF AND ISZERO ISZERO ISZERO ISZERO DUP2 MSTORE PUSH1 0x20 ADD PUSH1 0x7 DUP3 ADD PUSH1 0x1 SWAP1 SLOAD SWAP1 PUSH2 0x100 EXP SWAP1 DIV PUSH1 0xFF AND ISZERO ISZERO ISZERO ISZERO DUP2 MSTORE PUSH1 0x20 ADD PUSH1 0x7 DUP3 ADD PUSH1 0x2 SWAP1 SLOAD SWAP1 PUSH2 0x100 EXP SWAP1 DIV PUSH1 0xFF AND ISZERO ISZERO ISZERO ISZERO DUP2 MSTORE PUSH1 0x20 ADD PUSH1 0x8 DUP3 ADD DUP1 SLOAD PUSH2 0x3562 SWAP1 PUSH2 0x4696 JUMP JUMPDEST DUP1 PUSH1 0x1F ADD PUSH1 0x20 DUP1 SWAP2 DIV MUL PUSH1 0x20 ADD PUSH1 0x40 MLOAD SWAP1 DUP2 ADD PUSH1 0x40 MSTORE DUP1 SWAP3 SWAP2 SWAP1 DUP2 DUP2 MSTORE PUSH1 0x20 ADD DUP3 DUP1 SLOAD PUSH2 0x358E SWAP1 PUSH2 0x4696 JUMP JUMPDEST DUP1 ISZERO PUSH2 0x35DB JUMPI DUP1 PUSH1 0x1F LT PUSH2 0x35B0 JUMPI PUSH2 0x100 DUP1 DUP4 SLOAD DIV MUL DUP4 MSTORE SWAP2 PUSH1 0x20 ADD SWAP2 PUSH2 0x35DB JUMP JUMPDEST DUP3 ADD SWAP2 SWAP1 PUSH1 0x0 MSTORE PUSH1 0x20 PUSH1 0x0 KECCAK256 SWAP1 JUMPDEST DUP2 SLOAD DUP2 MSTORE SWAP1 PUSH1 0x1 ADD SWAP1 PUSH1 0x20 ADD DUP1 DUP4 GT PUSH2 0x35BE JUMPI DUP3 SWAP1 SUB PUSH1 0x1F AND DUP3 ADD SWAP2 JUMPDEST POP POP POP POP POP DUP2 MSTORE POP POP SWAP1 POP DUP1 PUSH1 0x0 ADD MLOAD DUP2 PUSH1 0x20 ADD MLOAD DUP3 PUSH1 0x40 ADD MLOAD DUP4 PUSH1 0x60 ADD MLOAD DUP5 PUSH1 0x80 ADD MLOAD DUP6 PUSH1 0xA0 ADD MLOAD DUP7 PUSH1 0xC0 ADD MLOAD DUP8 PUSH1 0xE0 ADD MLOAD DUP9 PUSH2 0x100 ADD MLOAD DUP10 PUSH2 0x120 ADD MLOAD DUP11 PUSH2 0x140 ADD MLOAD SWAP12 POP SWAP12 POP SWAP12 POP SWAP12 POP SWAP12 POP SWAP12 POP SWAP12 POP SWAP12 POP SWAP12 POP SWAP12 POP SWAP12 POP POP SWAP2 SWAP4 SWAP6 SWAP8 SWAP10 SWAP12 SWAP1 SWAP3 SWAP5 SWAP7 SWAP9 SWAP11 POP JUMP JUMPDEST DUP3 DUP1 SLOAD DUP3 DUP3 SSTORE SWAP1 PUSH1 0x0 MSTORE PUSH1 0x20 PUSH1 0x0 KECCAK256 SWAP1 PUSH1 0x1F ADD PUSH1 0x20 SWAP1 DIV DUP2 ADD SWAP3 DUP3 ISZERO PUSH2 0x36EB JUMPI SWAP2 PUSH1 0x20 MUL DUP3 ADD PUSH1 0x0 JUMPDEST DUP4 DUP3 GT ISZERO PUSH2 0x36BC JUMPI DUP4 MLOAD DUP4 DUP3 PUSH2 0x100 EXP DUP2 SLOAD DUP2 PUSH1 0xFF MUL NOT AND SWAP1 DUP4 PUSH1 0x4 DUP2 GT ISZERO PUSH2 0x369B JUMPI PUSH2 0x369A PUSH2 0x3EB0 JUMP JUMPDEST JUMPDEST MUL OR SWAP1 SSTORE POP SWAP3 PUSH1 0x20 ADD SWAP3 PUSH1 0x1 ADD PUSH1 0x20 DUP2 PUSH1 0x0 ADD DIV SWAP3 DUP4 ADD SWAP3 PUSH1 0x1 SUB MUL PUSH2 0x366F JUMP JUMPDEST DUP1 ISZERO PUSH2 0x36E9 JUMPI DUP3 DUP2 PUSH2 0x100 EXP DUP2 SLOAD SWAP1 PUSH1 0xFF MUL NOT AND SWAP1 SSTORE PUSH1 0x1 ADD PUSH1 0x20 DUP2 PUSH1 0x0 ADD DIV SWAP3 DUP4 ADD SWAP3 PUSH1 0x1 SUB MUL PUSH2 0x36BC JUMP JUMPDEST POP JUMPDEST POP SWAP1 POP PUSH2 0x36F8 SWAP2 SWAP1 PUSH2 0x377D JUMP JUMPDEST POP SWAP1 JUMP JUMPDEST PUSH1 0x40 MLOAD DUP1 PUSH2 0x180 ADD PUSH1 0x40 MSTORE DUP1 PUSH1 0x0 PUSH20 0xFFFFFFFFFFFFFFFFFFFFFFFFFFFFFFFFFFFFFFFF AND DUP2 MSTORE PUSH1 0x20 ADD PUSH1 0x60 DUP2 MSTORE PUSH1 0x20 ADD PUSH1 0x0 DUP2 MSTORE PUSH1 0x20 ADD PUSH1 0x60 DUP2 MSTORE PUSH1 0x20 ADD PUSH1 0x60 DUP2 MSTORE PUSH1 0x20 ADD PUSH1 0x60 DUP2 MSTORE PUSH1 0x20 ADD PUSH1 0x0 ISZERO ISZERO DUP2 MSTORE PUSH1 0x20 ADD PUSH1 0x0 ISZERO ISZERO DUP2 MSTORE PUSH1 0x20 ADD PUSH1 0x0 ISZERO ISZERO DUP2 MSTORE PUSH1 0x20 ADD PUSH1 0x0 ISZERO ISZERO DUP2 MSTORE PUSH1 0x20 ADD PUSH1 0x0 ISZERO ISZERO DUP2 MSTORE PUSH1 0x20 ADD PUSH1 0x60 DUP2 MSTORE POP SWAP1 JUMP JUMPDEST JUMPDEST DUP1 DUP3 GT ISZERO PUSH2 0x3796 JUMPI PUSH1 0x0 DUP2 PUSH1 0x0 SWAP1 SSTORE POP PUSH1 0x1 ADD PUSH2 0x377E JUMP JUMPDEST POP SWAP1 JUMP JUMPDEST PUSH1 0x0 PUSH1 0x40 MLOAD SWAP1 POP SWAP1 JUMP JUMPDEST PUSH1 0x0 DUP1 REVERT JUMPDEST PUSH1 0x0 DUP1 REVERT JUMPDEST PUSH1 0x0 PUSH20 0xFFFFFFFFFFFFFFFFFFFFFFFFFFFFFFFFFFFFFFFF DUP3 AND SWAP1 POP SWAP2 SWAP1 POP JUMP JUMPDEST PUSH1 0x0 PUSH2 0x37D9 DUP3 PUSH2 0x37AE JUMP JUMPDEST SWAP1 POP SWAP2 SWAP1 POP JUMP JUMPDEST PUSH2 0x37E9 DUP2 PUSH2 0x37CE JUMP JUMPDEST DUP2 EQ PUSH2 0x37F4 JUMPI PUSH1 0x0 DUP1 REVERT JUMPDEST POP JUMP JUMPDEST PUSH1 0x0 DUP2 CALLDATALOAD SWAP1 POP PUSH2 0x3806 DUP2 PUSH2 0x37E0 JUMP JUMPDEST SWAP3 SWAP2 POP POP JUMP JUMPDEST PUSH1 0x0 PUSH1 0x20 DUP3 DUP5 SUB SLT ISZERO PUSH2 0x3822 JUMPI PUSH2 0x3821 PUSH2 0x37A4 JUMP JUMPDEST JUMPDEST PUSH1 0x0 PUSH2 0x3830 DUP5 DUP3 DUP6 ADD PUSH2 0x37F7 JUMP JUMPDEST SWAP2 POP POP SWAP3 SWAP2 POP POP JUMP JUMPDEST PUSH2 0x3842 DUP2 PUSH2 0x37CE JUMP JUMPDEST DUP3 MSTORE POP POP JUMP JUMPDEST PUSH1 0x0 DUP2 MLOAD SWAP1 POP SWAP2 SWAP1 POP JUMP JUMPDEST PUSH1 0x0 DUP3 DUP3 MSTORE PUSH1 0x20 DUP3 ADD SWAP1 POP SWAP3 SWAP2 POP POP JUMP JUMPDEST PUSH1 0x0 JUMPDEST DUP4 DUP2 LT ISZERO PUSH2 0x3882 JUMPI DUP1 DUP3 ADD MLOAD DUP2 DUP5 ADD MSTORE PUSH1 0x20 DUP2 ADD SWAP1 POP PUSH2 0x3867 JUMP JUMPDEST PUSH1 0x0 DUP5 DUP5 ADD MSTORE POP POP POP POP JUMP JUMPDEST PUSH1 0x0 PUSH1 0x1F NOT PUSH1 0x1F DUP4 ADD AND SWAP1 POP SWAP2 SWAP1 POP JUMP JUMPDEST PUSH1 0x0 PUSH2 0x38AA DUP3 PUSH2 0x3848 JUMP JUMPDEST PUSH2 0x38B4 DUP2 DUP6 PUSH2 0x3853 JUMP JUMPDEST SWAP4 POP PUSH2 0x38C4 DUP2 DUP6 PUSH1 0x20 DUP7 ADD PUSH2 0x3864 JUMP JUMPDEST PUSH2 0x38CD DUP2 PUSH2 0x388E JUMP JUMPDEST DUP5 ADD SWAP2 POP POP SWAP3 SWAP2 POP POP JUMP JUMPDEST PUSH1 0x0 DUP2 SWAP1 POP SWAP2 SWAP1 POP JUMP JUMPDEST PUSH2 0x38EB DUP2 PUSH2 0x38D8 JUMP JUMPDEST DUP3 MSTORE POP POP JUMP JUMPDEST PUSH1 0x0 DUP2 ISZERO ISZERO SWAP1 POP SWAP2 SWAP1 POP JUMP JUMPDEST PUSH2 0x3906 DUP2 PUSH2 0x38F1 JUMP JUMPDEST DUP3 MSTORE POP POP JUMP JUMPDEST PUSH1 0x0 PUSH2 0x160 DUP3 ADD SWAP1 POP PUSH2 0x3922 PUSH1 0x0 DUP4 ADD DUP15 PUSH2 0x3839 JUMP JUMPDEST DUP2 DUP2 SUB PUSH1 0x20 DUP4 ADD MSTORE PUSH2 0x3934 DUP2 DUP14 PUSH2 0x389F JUMP JUMPDEST SWAP1 POP PUSH2 0x3943 PUSH1 0x40 DUP4 ADD DUP13 PUSH2 0x38E2 JUMP JUMPDEST DUP2 DUP2 SUB PUSH1 0x60 DUP4 ADD MSTORE PUSH2 0x3955 DUP2 DUP12 PUSH2 0x389F JUMP JUMPDEST SWAP1 POP DUP2 DUP2 SUB PUSH1 0x80 DUP4 ADD MSTORE PUSH2 0x3969 DUP2 DUP11 PUSH2 0x389F JUMP JUMPDEST SWAP1 POP DUP2 DUP2 SUB PUSH1 0xA0 DUP4 ADD MSTORE PUSH2 0x397D DUP2 DUP10 PUSH2 0x389F JUMP JUMPDEST SWAP1 POP DUP2 DUP2 SUB PUSH1 0xC0 DUP4 ADD MSTORE PUSH2 0x3991 DUP2 DUP9 PUSH2 0x389F JUMP JUMPDEST SWAP1 POP PUSH2 0x39A0 PUSH1 0xE0 DUP4 ADD DUP8 PUSH2 0x38FD JUMP JUMPDEST PUSH2 0x39AE PUSH2 0x100 DUP4 ADD DUP7 PUSH2 0x38FD JUMP JUMPDEST PUSH2 0x39BC PUSH2 0x120 DUP4 ADD DUP6 PUSH2 0x38FD JUMP JUMPDEST DUP2 DUP2 SUB PUSH2 0x140 DUP4 ADD MSTORE PUSH2 0x39CF DUP2 DUP5 PUSH2 0x389F JUMP JUMPDEST SWAP1 POP SWAP13 SWAP12 POP POP POP POP POP POP POP POP POP POP POP POP JUMP JUMPDEST PUSH1 0x0 DUP2 MLOAD SWAP1 POP SWAP2 SWAP1 POP JUMP JUMPDEST PUSH1 0x0 DUP3 DUP3 MSTORE PUSH1 0x20 DUP3 ADD SWAP1 POP SWAP3 SWAP2 POP POP JUMP JUMPDEST PUSH1 0x0 DUP2 SWAP1 POP PUSH1 0x20 DUP3 ADD SWAP1 POP SWAP2 SWAP1 POP JUMP JUMPDEST PUSH2 0x3A16 DUP2 PUSH2 0x37CE JUMP JUMPDEST DUP3 MSTORE POP POP JUMP JUMPDEST PUSH1 0x0 PUSH2 0x3A28 DUP4 DUP4 PUSH2 0x3A0D JUMP JUMPDEST PUSH1 0x20 DUP4 ADD SWAP1 POP SWAP3 SWAP2 POP POP JUMP JUMPDEST PUSH1 0x0 PUSH1 0x20 DUP3 ADD SWAP1 POP SWAP2 SWAP1 POP JUMP JUMPDEST PUSH1 0x0 PUSH2 0x3A4C DUP3 PUSH2 0x39E1 JUMP JUMPDEST PUSH2 0x3A56 DUP2 DUP6 PUSH2 0x39EC JUMP JUMPDEST SWAP4 POP PUSH2 0x3A61 DUP4 PUSH2 0x39FD JUMP JUMPDEST DUP1 PUSH1 0x0 JUMPDEST DUP4 DUP2 LT ISZERO PUSH2 0x3A92 JUMPI DUP2 MLOAD PUSH2 0x3A79 DUP9 DUP3 PUSH2 0x3A1C JUMP JUMPDEST SWAP8 POP PUSH2 0x3A84 DUP4 PUSH2 0x3A34 JUMP JUMPDEST SWAP3 POP POP PUSH1 0x1 DUP2 ADD SWAP1 POP PUSH2 0x3A65 JUMP JUMPDEST POP DUP6 SWAP4 POP POP POP POP SWAP3 SWAP2 POP POP JUMP JUMPDEST PUSH1 0x0 PUSH1 0x20 DUP3 ADD SWAP1 POP DUP2 DUP2 SUB PUSH1 0x0 DUP4 ADD MSTORE PUSH2 0x3AB9 DUP2 DUP5 PUSH2 0x3A41 JUMP JUMPDEST SWAP1 POP SWAP3 SWAP2 POP POP JUMP JUMPDEST PUSH2 0x3ACA DUP2 PUSH2 0x38D8 JUMP JUMPDEST DUP2 EQ PUSH2 0x3AD5 JUMPI PUSH1 0x0 DUP1 REVERT JUMPDEST POP JUMP JUMPDEST PUSH1 0x0 DUP2 CALLDATALOAD SWAP1 POP PUSH2 0x3AE7 DUP2 PUSH2 0x3AC1 JUMP JUMPDEST SWAP3 SWAP2 POP POP JUMP JUMPDEST PUSH1 0x0 PUSH1 0x20 DUP3 DUP5 SUB SLT ISZERO PUSH2 0x3B03 JUMPI PUSH2 0x3B02 PUSH2 0x37A4 JUMP JUMPDEST JUMPDEST PUSH1 0x0 PUSH2 0x3B11 DUP5 DUP3 DUP6 ADD PUSH2 0x3AD8 JUMP JUMPDEST SWAP2 POP POP SWAP3 SWAP2 POP POP JUMP JUMPDEST PUSH1 0x0 PUSH1 0x20 DUP3 ADD SWAP1 POP PUSH2 0x3B2F PUSH1 0x0 DUP4 ADD DUP5 PUSH2 0x3839 JUMP JUMPDEST SWAP3 SWAP2 POP POP JUMP JUMPDEST PUSH1 0x0 DUP1 REVERT JUMPDEST PUSH1 0x0 DUP1 REVERT JUMPDEST PUSH32 0x4E487B7100000000000000000000000000000000000000000000000000000000 PUSH1 0x0 MSTORE PUSH1 0x41 PUSH1 0x4 MSTORE PUSH1 0x24 PUSH1 0x0 REVERT JUMPDEST PUSH2 0x3B77 DUP3 PUSH2 0x388E JUMP JUMPDEST DUP2 ADD DUP2 DUP2 LT PUSH8 0xFFFFFFFFFFFFFFFF DUP3 GT OR ISZERO PUSH2 0x3B96 JUMPI PUSH2 0x3B95 PUSH2 0x3B3F JUMP JUMPDEST JUMPDEST DUP1 PUSH1 0x40 MSTORE POP POP POP JUMP JUMPDEST PUSH1 0x0 PUSH2 0x3BA9 PUSH2 0x379A JUMP JUMPDEST SWAP1 POP PUSH2 0x3BB5 DUP3 DUP3 PUSH2 0x3B6E JUMP JUMPDEST SWAP2 SWAP1 POP JUMP JUMPDEST PUSH1 0x0 PUSH8 0xFFFFFFFFFFFFFFFF DUP3 GT ISZERO PUSH2 0x3BD5 JUMPI PUSH2 0x3BD4 PUSH2 0x3B3F JUMP JUMPDEST JUMPDEST PUSH2 0x3BDE DUP3 PUSH2 0x388E JUMP JUMPDEST SWAP1 POP PUSH1 0x20 DUP2 ADD SWAP1 POP SWAP2 SWAP1 POP JUMP JUMPDEST DUP3 DUP2 DUP4 CALLDATACOPY PUSH1 0x0 DUP4 DUP4 ADD MSTORE POP POP POP JUMP JUMPDEST PUSH1 0x0 PUSH2 0x3C0D PUSH2 0x3C08 DUP5 PUSH2 0x3BBA JUMP JUMPDEST PUSH2 0x3B9F JUMP JUMPDEST SWAP1 POP DUP3 DUP2 MSTORE PUSH1 0x20 DUP2 ADD DUP5 DUP5 DUP5 ADD GT ISZERO PUSH2 0x3C29 JUMPI PUSH2 0x3C28 PUSH2 0x3B3A JUMP JUMPDEST JUMPDEST PUSH2 0x3C34 DUP5 DUP3 DUP6 PUSH2 0x3BEB JUMP JUMPDEST POP SWAP4 SWAP3 POP POP POP JUMP JUMPDEST PUSH1 0x0 DUP3 PUSH1 0x1F DUP4 ADD SLT PUSH2 0x3C51 JUMPI PUSH2 0x3C50 PUSH2 0x3B35 JUMP JUMPDEST JUMPDEST DUP2 CALLDATALOAD PUSH2 0x3C61 DUP5 DUP3 PUSH1 0x20 DUP7 ADD PUSH2 0x3BFA JUMP JUMPDEST SWAP2 POP POP SWAP3 SWAP2 POP POP JUMP JUMPDEST PUSH1 0x0 PUSH8 0xFFFFFFFFFFFFFFFF DUP3 GT ISZERO PUSH2 0x3C85 JUMPI PUSH2 0x3C84 PUSH2 0x3B3F JUMP JUMPDEST JUMPDEST PUSH1 0x20 DUP3 MUL SWAP1 POP PUSH1 0x20 DUP2 ADD SWAP1 POP SWAP2 SWAP1 POP JUMP JUMPDEST PUSH1 0x0 DUP1 REVERT JUMPDEST PUSH1 0x5 DUP2 LT PUSH2 0x3CA8 JUMPI PUSH1 0x0 DUP1 REVERT JUMPDEST POP JUMP JUMPDEST PUSH1 0x0 DUP2 CALLDATALOAD SWAP1 POP PUSH2 0x3CBA DUP2 PUSH2 0x3C9B JUMP JUMPDEST SWAP3 SWAP2 POP POP JUMP JUMPDEST PUSH1 0x0 PUSH2 0x3CD3 PUSH2 0x3CCE DUP5 PUSH2 0x3C6A JUMP JUMPDEST PUSH2 0x3B9F JUMP JUMPDEST SWAP1 POP DUP1 DUP4 DUP3 MSTORE PUSH1 0x20 DUP3 ADD SWAP1 POP PUSH1 0x20 DUP5 MUL DUP4 ADD DUP6 DUP2 GT ISZERO PUSH2 0x3CF6 JUMPI PUSH2 0x3CF5 PUSH2 0x3C96 JUMP JUMPDEST JUMPDEST DUP4 JUMPDEST DUP2 DUP2 LT ISZERO PUSH2 0x3D1F JUMPI DUP1 PUSH2 0x3D0B DUP9 DUP3 PUSH2 0x3CAB JUMP JUMPDEST DUP5 MSTORE PUSH1 0x20 DUP5 ADD SWAP4 POP POP PUSH1 0x20 DUP2 ADD SWAP1 POP PUSH2 0x3CF8 JUMP JUMPDEST POP POP POP SWAP4 SWAP3 POP POP POP JUMP JUMPDEST PUSH1 0x0 DUP3 PUSH1 0x1F DUP4 ADD SLT PUSH2 0x3D3E JUMPI PUSH2 0x3D3D PUSH2 0x3B35 JUMP JUMPDEST JUMPDEST DUP2 CALLDATALOAD PUSH2 0x3D4E DUP5 DUP3 PUSH1 0x20 DUP7 ADD PUSH2 0x3CC0 JUMP JUMPDEST SWAP2 POP POP SWAP3 SWAP2 POP POP JUMP JUMPDEST PUSH1 0x0 DUP1 PUSH1 0x0 DUP1 PUSH1 0x0 DUP1 PUSH1 0xC0 DUP8 DUP10 SUB SLT ISZERO PUSH2 0x3D74 JUMPI PUSH2 0x3D73 PUSH2 0x37A4 JUMP JUMPDEST JUMPDEST PUSH1 0x0 DUP8 ADD CALLDATALOAD PUSH8 0xFFFFFFFFFFFFFFFF DUP2 GT ISZERO PUSH2 0x3D92 JUMPI PUSH2 0x3D91 PUSH2 0x37A9 JUMP JUMPDEST JUMPDEST PUSH2 0x3D9E DUP10 DUP3 DUP11 ADD PUSH2 0x3C3C JUMP JUMPDEST SWAP7 POP POP PUSH1 0x20 PUSH2 0x3DAF DUP10 DUP3 DUP11 ADD PUSH2 0x3AD8 JUMP JUMPDEST SWAP6 POP POP PUSH1 0x40 DUP8 ADD CALLDATALOAD PUSH8 0xFFFFFFFFFFFFFFFF DUP2 GT ISZERO PUSH2 0x3DD0 JUMPI PUSH2 0x3DCF PUSH2 0x37A9 JUMP JUMPDEST JUMPDEST PUSH2 0x3DDC DUP10 DUP3 DUP11 ADD PUSH2 0x3C3C JUMP JUMPDEST SWAP5 POP POP PUSH1 0x60 DUP8 ADD CALLDATALOAD PUSH8 0xFFFFFFFFFFFFFFFF DUP2 GT ISZERO PUSH2 0x3DFD JUMPI PUSH2 0x3DFC PUSH2 0x37A9 JUMP JUMPDEST JUMPDEST PUSH2 0x3E09 DUP10 DUP3 DUP11 ADD PUSH2 0x3D29 JUMP JUMPDEST SWAP4 POP POP PUSH1 0x80 DUP8 ADD CALLDATALOAD PUSH8 0xFFFFFFFFFFFFFFFF DUP2 GT ISZERO PUSH2 0x3E2A JUMPI PUSH2 0x3E29 PUSH2 0x37A9 JUMP JUMPDEST JUMPDEST PUSH2 0x3E36 DUP10 DUP3 DUP11 ADD PUSH2 0x3C3C JUMP JUMPDEST SWAP3 POP POP PUSH1 0xA0 DUP8 ADD CALLDATALOAD PUSH8 0xFFFFFFFFFFFFFFFF DUP2 GT ISZERO PUSH2 0x3E57 JUMPI PUSH2 0x3E56 PUSH2 0x37A9 JUMP JUMPDEST JUMPDEST PUSH2 0x3E63 DUP10 DUP3 DUP11 ADD PUSH2 0x3C3C JUMP JUMPDEST SWAP2 POP POP SWAP3 SWAP6 POP SWAP3 SWAP6 POP SWAP3 SWAP6 JUMP JUMPDEST PUSH1 0x0 DUP1 PUSH1 0x40 DUP4 DUP6 SUB SLT ISZERO PUSH2 0x3E87 JUMPI PUSH2 0x3E86 PUSH2 0x37A4 JUMP JUMPDEST JUMPDEST PUSH1 0x0 PUSH2 0x3E95 DUP6 DUP3 DUP7 ADD PUSH2 0x37F7 JUMP JUMPDEST SWAP3 POP POP PUSH1 0x20 PUSH2 0x3EA6 DUP6 DUP3 DUP7 ADD PUSH2 0x37F7 JUMP JUMPDEST SWAP2 POP POP SWAP3 POP SWAP3 SWAP1 POP JUMP JUMPDEST PUSH32 0x4E487B7100000000000000000000000000000000000000000000000000000000 PUSH1 0x0 MSTORE PUSH1 0x21 PUSH1 0x4 MSTORE PUSH1 0x24 PUSH1 0x0 REVERT JUMPDEST PUSH1 0x4 DUP2 LT PUSH2 0x3EF0 JUMPI PUSH2 0x3EEF PUSH2 0x3EB0 JUMP JUMPDEST JUMPDEST POP JUMP JUMPDEST PUSH1 0x0 DUP2 SWAP1 POP PUSH2 0x3F01 DUP3 PUSH2 0x3EDF JUMP JUMPDEST SWAP2 SWAP1 POP JUMP JUMPDEST PUSH1 0x0 PUSH2 0x3F11 DUP3 PUSH2 0x3EF3 JUMP JUMPDEST SWAP1 POP SWAP2 SWAP1 POP JUMP JUMPDEST PUSH2 0x3F21 DUP2 PUSH2 0x3F06 JUMP JUMPDEST DUP3 MSTORE POP POP JUMP JUMPDEST PUSH1 0x0 PUSH1 0x20 DUP3 ADD SWAP1 POP PUSH2 0x3F3C PUSH1 0x0 DUP4 ADD DUP5 PUSH2 0x3F18 JUMP JUMPDEST SWAP3 SWAP2 POP POP JUMP JUMPDEST PUSH1 0x0 DUP2 MLOAD SWAP1 POP SWAP2 SWAP1 POP JUMP JUMPDEST PUSH1 0x0 DUP3 DUP3 MSTORE PUSH1 0x20 DUP3 ADD SWAP1 POP SWAP3 SWAP2 POP POP JUMP JUMPDEST PUSH1 0x0 DUP2 SWAP1 POP PUSH1 0x20 DUP3 ADD SWAP1 POP SWAP2 SWAP1 POP JUMP JUMPDEST PUSH1 0x5 DUP2 LT PUSH2 0x3F7F JUMPI PUSH2 0x3F7E PUSH2 0x3EB0 JUMP JUMPDEST JUMPDEST POP JUMP JUMPDEST PUSH1 0x0 DUP2 SWAP1 POP PUSH2 0x3F90 DUP3 PUSH2 0x3F6E JUMP JUMPDEST SWAP2 SWAP1 POP JUMP JUMPDEST PUSH1 0x0 PUSH2 0x3FA0 DUP3 PUSH2 0x3F82 JUMP JUMPDEST SWAP1 POP SWAP2 SWAP1 POP JUMP JUMPDEST PUSH2 0x3FB0 DUP2 PUSH2 0x3F95 JUMP JUMPDEST DUP3 MSTORE POP POP JUMP JUMPDEST PUSH1 0x0 PUSH2 0x3FC2 DUP4 DUP4 PUSH2 0x3FA7 JUMP JUMPDEST PUSH1 0x20 DUP4 ADD SWAP1 POP SWAP3 SWAP2 POP POP JUMP JUMPDEST PUSH1 0x0 PUSH1 0x20 DUP3 ADD SWAP1 POP SWAP2 SWAP1 POP JUMP JUMPDEST PUSH1 0x0 PUSH2 0x3FE6 DUP3 PUSH2 0x3F42 JUMP JUMPDEST PUSH2 0x3FF0 DUP2 DUP6 PUSH2 0x3F4D JUMP JUMPDEST SWAP4 POP PUSH2 0x3FFB DUP4 PUSH2 0x3F5E JUMP JUMPDEST DUP1 PUSH1 0x0 JUMPDEST DUP4 DUP2 LT ISZERO PUSH2 0x402C JUMPI DUP2 MLOAD PUSH2 0x4013 DUP9 DUP3 PUSH2 0x3FB6 JUMP JUMPDEST SWAP8 POP PUSH2 0x401E DUP4 PUSH2 0x3FCE JUMP JUMPDEST SWAP3 POP POP PUSH1 0x1 DUP2 ADD SWAP1 POP PUSH2 0x3FFF JUMP JUMPDEST POP DUP6 SWAP4 POP POP POP POP SWAP3 SWAP2 POP POP JUMP JUMPDEST PUSH1 0x0 PUSH2 0x180 DUP3 ADD SWAP1 POP PUSH2 0x404F PUSH1 0x0 DUP4 ADD DUP16 PUSH2 0x3839 JUMP JUMPDEST DUP2 DUP2 SUB PUSH1 0x20 DUP4 ADD MSTORE PUSH2 0x4061 DUP2 DUP15 PUSH2 0x389F JUMP JUMPDEST SWAP1 POP PUSH2 0x4070 PUSH1 0x40 DUP4 ADD DUP14 PUSH2 0x38E2 JUMP JUMPDEST DUP2 DUP2 SUB PUSH1 0x60 DUP4 ADD MSTORE PUSH2 0x4082 DUP2 DUP13 PUSH2 0x389F JUMP JUMPDEST SWAP1 POP DUP2 DUP2 SUB PUSH1 0x80 DUP4 ADD MSTORE PUSH2 0x4096 DUP2 DUP12 PUSH2 0x3FDB JUMP JUMPDEST SWAP1 POP DUP2 DUP2 SUB PUSH1 0xA0 DUP4 ADD MSTORE PUSH2 0x40AA DUP2 DUP11 PUSH2 0x389F JUMP JUMPDEST SWAP1 POP PUSH2 0x40B9 PUSH1 0xC0 DUP4 ADD DUP10 PUSH2 0x38FD JUMP JUMPDEST PUSH2 0x40C6 PUSH1 0xE0 DUP4 ADD DUP9 PUSH2 0x38FD JUMP JUMPDEST PUSH2 0x40D4 PUSH2 0x100 DUP4 ADD DUP8 PUSH2 0x38FD JUMP JUMPDEST PUSH2 0x40E2 PUSH2 0x120 DUP4 ADD DUP7 PUSH2 0x38FD JUMP JUMPDEST PUSH2 0x40F0 PUSH2 0x140 DUP4 ADD DUP6 PUSH2 0x38FD JUMP JUMPDEST DUP2 DUP2 SUB PUSH2 0x160 DUP4 ADD MSTORE PUSH2 0x4103 DUP2 DUP5 PUSH2 0x389F JUMP JUMPDEST SWAP1 POP SWAP14 SWAP13 POP POP POP POP POP POP POP POP POP POP POP POP POP JUMP JUMPDEST PUSH1 0x4 DUP2 LT PUSH2 0x4123 JUMPI PUSH1 0x0 DUP1 REVERT JUMPDEST POP JUMP JUMPDEST PUSH1 0x0 DUP2 CALLDATALOAD SWAP1 POP PUSH2 0x4135 DUP2 PUSH2 0x4116 JUMP JUMPDEST SWAP3 SWAP2 POP POP JUMP JUMPDEST PUSH1 0x0 DUP1 PUSH1 0x40 DUP4 DUP6 SUB SLT ISZERO PUSH2 0x4152 JUMPI PUSH2 0x4151 PUSH2 0x37A4 JUMP JUMPDEST JUMPDEST PUSH1 0x0 PUSH2 0x4160 DUP6 DUP3 DUP7 ADD PUSH2 0x37F7 JUMP JUMPDEST SWAP3 POP POP PUSH1 0x20 PUSH2 0x4171 DUP6 DUP3 DUP7 ADD PUSH2 0x4126 JUMP JUMPDEST SWAP2 POP POP SWAP3 POP SWAP3 SWAP1 POP JUMP JUMPDEST PUSH1 0x0 DUP1 PUSH1 0x0 DUP1 PUSH1 0x0 DUP1 PUSH1 0x0 PUSH1 0xE0 DUP9 DUP11 SUB SLT ISZERO PUSH2 0x419A JUMPI PUSH2 0x4199 PUSH2 0x37A4 JUMP JUMPDEST JUMPDEST PUSH1 0x0 DUP9 ADD CALLDATALOAD PUSH8 0xFFFFFFFFFFFFFFFF DUP2 GT ISZERO PUSH2 0x41B8 JUMPI PUSH2 0x41B7 PUSH2 0x37A9 JUMP JUMPDEST JUMPDEST PUSH2 0x41C4 DUP11 DUP3 DUP12 ADD PUSH2 0x3C3C JUMP JUMPDEST SWAP8 POP POP PUSH1 0x20 DUP9 ADD CALLDATALOAD PUSH8 0xFFFFFFFFFFFFFFFF DUP2 GT ISZERO PUSH2 0x41E5 JUMPI PUSH2 0x41E4 PUSH2 0x37A9 JUMP JUMPDEST JUMPDEST PUSH2 0x41F1 DUP11 DUP3 DUP12 ADD PUSH2 0x3C3C JUMP JUMPDEST SWAP7 POP POP PUSH1 0x40 DUP9 ADD CALLDATALOAD PUSH8 0xFFFFFFFFFFFFFFFF DUP2 GT ISZERO PUSH2 0x4212 JUMPI PUSH2 0x4211 PUSH2 0x37A9 JUMP JUMPDEST JUMPDEST PUSH2 0x421E DUP11 DUP3 DUP12 ADD PUSH2 0x3C3C JUMP JUMPDEST SWAP6 POP POP PUSH1 0x60 DUP9 ADD CALLDATALOAD PUSH8 0xFFFFFFFFFFFFFFFF DUP2 GT ISZERO PUSH2 0x423F JUMPI PUSH2 0x423E PUSH2 0x37A9 JUMP JUMPDEST JUMPDEST PUSH2 0x424B DUP11 DUP3 DUP12 ADD PUSH2 0x3C3C JUMP JUMPDEST SWAP5 POP POP PUSH1 0x80 DUP9 ADD CALLDATALOAD PUSH8 0xFFFFFFFFFFFFFFFF DUP2 GT ISZERO PUSH2 0x426C JUMPI PUSH2 0x426B PUSH2 0x37A9 JUMP JUMPDEST JUMPDEST PUSH2 0x4278 DUP11 DUP3 DUP12 ADD PUSH2 0x3C3C JUMP JUMPDEST SWAP4 POP POP PUSH1 0xA0 DUP9 ADD CALLDATALOAD PUSH8 0xFFFFFFFFFFFFFFFF DUP2 GT ISZERO PUSH2 0x4299 JUMPI PUSH2 0x4298 PUSH2 0x37A9 JUMP JUMPDEST JUMPDEST PUSH2 0x42A5 DUP11 DUP3 DUP12 ADD PUSH2 0x3C3C JUMP JUMPDEST SWAP3 POP POP PUSH1 0xC0 PUSH2 0x42B6 DUP11 DUP3 DUP12 ADD PUSH2 0x3AD8 JUMP JUMPDEST SWAP2 POP POP SWAP3 SWAP6 SWAP9 SWAP2 SWAP5 SWAP8 POP SWAP3 SWAP6 POP JUMP JUMPDEST PUSH1 0x0 DUP2 MLOAD SWAP1 POP SWAP2 SWAP1 POP JUMP JUMPDEST PUSH1 0x0 DUP3 DUP3 MSTORE PUSH1 0x20 DUP3 ADD SWAP1 POP SWAP3 SWAP2 POP POP JUMP JUMPDEST PUSH1 0x0 DUP2 SWAP1 POP PUSH1 0x20 DUP3 ADD SWAP1 POP SWAP2 SWAP1 POP JUMP JUMPDEST PUSH1 0x0 DUP3 DUP3 MSTORE PUSH1 0x20 DUP3 ADD SWAP1 POP SWAP3 SWAP2 POP POP JUMP JUMPDEST PUSH1 0x0 PUSH2 0x430D DUP3 PUSH2 0x3848 JUMP JUMPDEST PUSH2 0x4317 DUP2 DUP6 PUSH2 0x42F1 JUMP JUMPDEST SWAP4 POP PUSH2 0x4327 DUP2 DUP6 PUSH1 0x20 DUP7 ADD PUSH2 0x3864 JUMP JUMPDEST PUSH2 0x4330 DUP2 PUSH2 0x388E JUMP JUMPDEST DUP5 ADD SWAP2 POP POP SWAP3 SWAP2 POP POP JUMP JUMPDEST PUSH2 0x4344 DUP2 PUSH2 0x38D8 JUMP JUMPDEST DUP3 MSTORE POP POP JUMP JUMPDEST PUSH1 0x0 DUP3 DUP3 MSTORE PUSH1 0x20 DUP3 ADD SWAP1 POP SWAP3 SWAP2 POP POP JUMP JUMPDEST PUSH1 0x0 PUSH2 0x4366 DUP3 PUSH2 0x3F42 JUMP JUMPDEST PUSH2 0x4370 DUP2 DUP6 PUSH2 0x434A JUMP JUMPDEST SWAP4 POP PUSH2 0x437B DUP4 PUSH2 0x3F5E JUMP JUMPDEST DUP1 PUSH1 0x0 JUMPDEST DUP4 DUP2 LT ISZERO PUSH2 0x43AC JUMPI DUP2 MLOAD PUSH2 0x4393 DUP9 DUP3 PUSH2 0x3FB6 JUMP JUMPDEST SWAP8 POP PUSH2 0x439E DUP4 PUSH2 0x3FCE JUMP JUMPDEST SWAP3 POP POP PUSH1 0x1 DUP2 ADD SWAP1 POP PUSH2 0x437F JUMP JUMPDEST POP DUP6 SWAP4 POP POP POP POP SWAP3 SWAP2 POP POP JUMP JUMPDEST PUSH2 0x43C2 DUP2 PUSH2 0x38F1 JUMP JUMPDEST DUP3 MSTORE POP POP JUMP JUMPDEST PUSH1 0x0 PUSH2 0x180 DUP4 ADD PUSH1 0x0 DUP4 ADD MLOAD PUSH2 0x43E1 PUSH1 0x0 DUP7 ADD DUP3 PUSH2 0x3A0D JUMP JUMPDEST POP PUSH1 0x20 DUP4 ADD MLOAD DUP5 DUP3 SUB PUSH1 0x20 DUP7 ADD MSTORE PUSH2 0x43F9 DUP3 DUP3 PUSH2 0x4302 JUMP JUMPDEST SWAP2 POP POP PUSH1 0x40 DUP4 ADD MLOAD PUSH2 0x440E PUSH1 0x40 DUP7 ADD DUP3 PUSH2 0x433B JUMP JUMPDEST POP PUSH1 0x60 DUP4 ADD MLOAD DUP5 DUP3 SUB PUSH1 0x60 DUP7 ADD MSTORE PUSH2 0x4426 DUP3 DUP3 PUSH2 0x4302 JUMP JUMPDEST SWAP2 POP POP PUSH1 0x80 DUP4 ADD MLOAD DUP5 DUP3 SUB PUSH1 0x80 DUP7 ADD MSTORE PUSH2 0x4440 DUP3 DUP3 PUSH2 0x435B JUMP JUMPDEST SWAP2 POP POP PUSH1 0xA0 DUP4 ADD MLOAD DUP5 DUP3 SUB PUSH1 0xA0 DUP7 ADD MSTORE PUSH2 0x445A DUP3 DUP3 PUSH2 0x4302 JUMP JUMPDEST SWAP2 POP POP PUSH1 0xC0 DUP4 ADD MLOAD PUSH2 0x446F PUSH1 0xC0 DUP7 ADD DUP3 PUSH2 0x43B9 JUMP JUMPDEST POP PUSH1 0xE0 DUP4 ADD MLOAD PUSH2 0x4482 PUSH1 0xE0 DUP7 ADD DUP3 PUSH2 0x43B9 JUMP JUMPDEST POP PUSH2 0x100 DUP4 ADD MLOAD PUSH2 0x4497 PUSH2 0x100 DUP7 ADD DUP3 PUSH2 0x43B9 JUMP JUMPDEST POP PUSH2 0x120 DUP4 ADD MLOAD PUSH2 0x44AC PUSH2 0x120 DUP7 ADD DUP3 PUSH2 0x43B9 JUMP JUMPDEST POP PUSH2 0x140 DUP4 ADD MLOAD PUSH2 0x44C1 PUSH2 0x140 DUP7 ADD DUP3 PUSH2 0x43B9 JUMP JUMPDEST POP PUSH2 0x160 DUP4 ADD MLOAD DUP5 DUP3 SUB PUSH2 0x160 DUP7 ADD MSTORE PUSH2 0x44DB DUP3 DUP3 PUSH2 0x4302 JUMP JUMPDEST SWAP2 POP POP DUP1 SWAP2 POP POP SWAP3 SWAP2 POP POP JUMP JUMPDEST PUSH1 0x0 PUSH2 0x44F4 DUP4 DUP4 PUSH2 0x43C8 JUMP JUMPDEST SWAP1 POP SWAP3 SWAP2 POP POP JUMP JUMPDEST PUSH1 0x0 PUSH1 0x20 DUP3 ADD SWAP1 POP SWAP2 SWAP1 POP JUMP JUMPDEST PUSH1 0x0 PUSH2 0x4514 DUP3 PUSH2 0x42C5 JUMP JUMPDEST PUSH2 0x451E DUP2 DUP6 PUSH2 0x42D0 JUMP JUMPDEST SWAP4 POP DUP4 PUSH1 0x20 DUP3 MUL DUP6 ADD PUSH2 0x4530 DUP6 PUSH2 0x42E1 JUMP JUMPDEST DUP1 PUSH1 0x0 JUMPDEST DUP6 DUP2 LT ISZERO PUSH2 0x456C JUMPI DUP5 DUP5 SUB DUP10 MSTORE DUP2 MLOAD PUSH2 0x454D DUP6 DUP3 PUSH2 0x44E8 JUMP JUMPDEST SWAP5 POP PUSH2 0x4558 DUP4 PUSH2 0x44FC JUMP JUMPDEST SWAP3 POP PUSH1 0x20 DUP11 ADD SWAP10 POP POP PUSH1 0x1 DUP2 ADD SWAP1 POP PUSH2 0x4534 JUMP JUMPDEST POP DUP3 SWAP8 POP DUP8 SWAP6 POP POP POP POP POP POP SWAP3 SWAP2 POP POP JUMP JUMPDEST PUSH1 0x0 PUSH1 0x20 DUP3 ADD SWAP1 POP DUP2 DUP2 SUB PUSH1 0x0 DUP4 ADD MSTORE PUSH2 0x4598 DUP2 DUP5 PUSH2 0x4509 JUMP JUMPDEST SWAP1 POP SWAP3 SWAP2 POP POP JUMP JUMPDEST PUSH1 0x0 PUSH2 0x160 DUP3 ADD SWAP1 POP PUSH2 0x45B6 PUSH1 0x0 DUP4 ADD DUP15 PUSH2 0x3839 JUMP JUMPDEST DUP2 DUP2 SUB PUSH1 0x20 DUP4 ADD MSTORE PUSH2 0x45C8 DUP2 DUP14 PUSH2 0x389F JUMP JUMPDEST SWAP1 POP PUSH2 0x45D7 PUSH1 0x40 DUP4 ADD DUP13 PUSH2 0x38E2 JUMP JUMPDEST DUP2 DUP2 SUB PUSH1 0x60 DUP4 ADD MSTORE PUSH2 0x45E9 DUP2 DUP12 PUSH2 0x389F JUMP JUMPDEST SWAP1 POP DUP2 DUP2 SUB PUSH1 0x80 DUP4 ADD MSTORE PUSH2 0x45FD DUP2 DUP11 PUSH2 0x389F JUMP JUMPDEST SWAP1 POP PUSH2 0x460C PUSH1 0xA0 DUP4 ADD DUP10 PUSH2 0x38FD JUMP JUMPDEST PUSH2 0x4619 PUSH1 0xC0 DUP4 ADD DUP9 PUSH2 0x38FD JUMP JUMPDEST PUSH2 0x4626 PUSH1 0xE0 DUP4 ADD DUP8 PUSH2 0x38FD JUMP JUMPDEST PUSH2 0x4634 PUSH2 0x100 DUP4 ADD DUP7 PUSH2 0x38FD JUMP JUMPDEST PUSH2 0x4642 PUSH2 0x120 DUP4 ADD DUP6 PUSH2 0x38FD JUMP JUMPDEST DUP2 DUP2 SUB PUSH2 0x140 DUP4 ADD MSTORE PUSH2 0x4655 DUP2 DUP5 PUSH2 0x389F JUMP JUMPDEST SWAP1 POP SWAP13 SWAP12 POP POP POP POP POP POP POP POP POP POP POP POP JUMP JUMPDEST PUSH32 0x4E487B7100000000000000000000000000000000000000000000000000000000 PUSH1 0x0 MSTORE PUSH1 0x22 PUSH1 0x4 MSTORE PUSH1 0x24 PUSH1 0x0 REVERT JUMPDEST PUSH1 0x0 PUSH1 0x2 DUP3 DIV SWAP1 POP PUSH1 0x1 DUP3 AND DUP1 PUSH2 0x46AE JUMPI PUSH1 0x7F DUP3 AND SWAP2 POP JUMPDEST PUSH1 0x20 DUP3 LT DUP2 SUB PUSH2 0x46C1 JUMPI PUSH2 0x46C0 PUSH2 0x4667 JUMP JUMPDEST JUMPDEST POP SWAP2 SWAP1 POP JUMP JUMPDEST PUSH32 0x4F6E6C792061646D696E00000000000000000000000000000000000000000000 PUSH1 0x0 DUP3 ADD MSTORE POP JUMP JUMPDEST PUSH1 0x0 PUSH2 0x46FD PUSH1 0xA DUP4 PUSH2 0x3853 JUMP JUMPDEST SWAP2 POP PUSH2 0x4708 DUP3 PUSH2 0x46C7 JUMP JUMPDEST PUSH1 0x20 DUP3 ADD SWAP1 POP SWAP2 SWAP1 POP JUMP JUMPDEST PUSH1 0x0 PUSH1 0x20 DUP3 ADD SWAP1 POP DUP2 DUP2 SUB PUSH1 0x0 DUP4 ADD MSTORE PUSH2 0x472C DUP2 PUSH2 0x46F0 JUMP JUMPDEST SWAP1 POP SWAP2 SWAP1 POP JUMP JUMPDEST PUSH32 0x4E616D6520697320726571756972656400000000000000000000000000000000 PUSH1 0x0 DUP3 ADD MSTORE POP JUMP JUMPDEST PUSH1 0x0 PUSH2 0x4769 PUSH1 0x10 DUP4 PUSH2 0x3853 JUMP JUMPDEST SWAP2 POP PUSH2 0x4774 DUP3 PUSH2 0x4733 JUMP JUMPDEST PUSH1 0x20 DUP3 ADD SWAP1 POP SWAP2 SWAP1 POP JUMP JUMPDEST PUSH1 0x0 PUSH1 0x20 DUP3 ADD SWAP1 POP DUP2 DUP2 SUB PUSH1 0x0 DUP4 ADD MSTORE PUSH2 0x4798 DUP2 PUSH2 0x475C JUMP JUMPDEST SWAP1 POP SWAP2 SWAP1 POP JUMP JUMPDEST PUSH32 0x446F6E6F72206D757374206265206174206C6561737420313820796561727320 PUSH1 0x0 DUP3 ADD MSTORE PUSH32 0x6F6C640000000000000000000000000000000000000000000000000000000000 PUSH1 0x20 DUP3 ADD MSTORE POP JUMP JUMPDEST PUSH1 0x0 PUSH2 0x47FB PUSH1 0x23 DUP4 PUSH2 0x3853 JUMP JUMPDEST SWAP2 POP PUSH2 0x4806 DUP3 PUSH2 0x479F JUMP JUMPDEST PUSH1 0x40 DUP3 ADD SWAP1 POP SWAP2 SWAP1 POP JUMP JUMPDEST PUSH1 0x0 PUSH1 0x20 DUP3 ADD SWAP1 POP DUP2 DUP2 SUB PUSH1 0x0 DUP4 ADD MSTORE PUSH2 0x482A DUP2 PUSH2 0x47EE JUMP JUMPDEST SWAP1 POP SWAP2 SWAP1 POP JUMP JUMPDEST PUSH32 0x426C6F6F64207479706520697320726571756972656400000000000000000000 PUSH1 0x0 DUP3 ADD MSTORE POP JUMP JUMPDEST PUSH1 0x0 PUSH2 0x4867 PUSH1 0x16 DUP4 PUSH2 0x3853 JUMP JUMPDEST SWAP2 POP PUSH2 0x4872 DUP3 PUSH2 0x4831 JUMP JUMPDEST PUSH1 0x20 DUP3 ADD SWAP1 POP SWAP2 SWAP1 POP JUMP JUMPDEST PUSH1 0x0 PUSH1 0x20 DUP3 ADD SWAP1 POP DUP2 DUP2 SUB PUSH1 0x0 DUP4 ADD MSTORE PUSH2 0x4896 DUP2 PUSH2 0x485A JUMP JUMPDEST SWAP1 POP SWAP2 SWAP1 POP JUMP JUMPDEST PUSH32 0x4174206C65617374206F6E65206F7267616E206D757374206265207370656369 PUSH1 0x0 DUP3 ADD MSTORE PUSH32 0x6669656400000000000000000000000000000000000000000000000000000000 PUSH1 0x20 DUP3 ADD MSTORE POP JUMP JUMPDEST PUSH1 0x0 PUSH2 0x48F9 PUSH1 0x24 DUP4 PUSH2 0x3853 JUMP JUMPDEST SWAP2 POP PUSH2 0x4904 DUP3 PUSH2 0x489D JUMP JUMPDEST PUSH1 0x40 DUP3 ADD SWAP1 POP SWAP2 SWAP1 POP JUMP JUMPDEST PUSH1 0x0 PUSH1 0x20 DUP3 ADD SWAP1 POP DUP2 DUP2 SUB PUSH1 0x0 DUP4 ADD MSTORE PUSH2 0x4928 DUP2 PUSH2 0x48EC JUMP JUMPDEST SWAP1 POP SWAP2 SWAP1 POP JUMP JUMPDEST PUSH32 0x4C6F636174696F6E206973207265717569726564000000000000000000000000 PUSH1 0x0 DUP3 ADD MSTORE POP JUMP JUMPDEST PUSH1 0x0 PUSH2 0x4965 PUSH1 0x14 DUP4 PUSH2 0x3853 JUMP JUMPDEST SWAP2 POP PUSH2 0x4970 DUP3 PUSH2 0x492F JUMP JUMPDEST PUSH1 0x20 DUP3 ADD SWAP1 POP SWAP2 SWAP1 POP JUMP JUMPDEST PUSH1 0x0 PUSH1 0x20 DUP3 ADD SWAP1 POP DUP2 DUP2 SUB PUSH1 0x0 DUP4 ADD MSTORE PUSH2 0x4994 DUP2 PUSH2 0x4958 JUMP JUMPDEST SWAP1 POP SWAP2 SWAP1 POP JUMP JUMPDEST PUSH1 0x0 DUP2 SWAP1 POP DUP2 PUSH1 0x0 MSTORE PUSH1 0x20 PUSH1 0x0 KECCAK256 SWAP1 POP SWAP2 SWAP1 POP JUMP JUMPDEST PUSH1 0x0 PUSH1 0x20 PUSH1 0x1F DUP4 ADD DIV SWAP1 POP SWAP2 SWAP1 POP JUMP JUMPDEST PUSH1 0x0 DUP3 DUP3 SHL SWAP1 POP SWAP3 SWAP2 POP POP JUMP JUMPDEST PUSH1 0x0 PUSH1 0x8 DUP4 MUL PUSH2 0x49FD PUSH32 0xFFFFFFFFFFFFFFFFFFFFFFFFFFFFFFFFFFFFFFFFFFFFFFFFFFFFFFFFFFFFFFFF DUP3 PUSH2 0x49C0 JUMP JUMPDEST PUSH2 0x4A07 DUP7 DUP4 PUSH2 0x49C0 JUMP JUMPDEST SWAP6 POP DUP1 NOT DUP5 AND SWAP4 POP DUP1 DUP7 AND DUP5 OR SWAP3 POP POP POP SWAP4 SWAP3 POP POP POP JUMP JUMPDEST PUSH1 0x0 DUP2 SWAP1 POP SWAP2 SWAP1 POP JUMP JUMPDEST PUSH1 0x0 PUSH2 0x4A44 PUSH2 0x4A3F PUSH2 0x4A3A DUP5 PUSH2 0x38D8 JUMP JUMPDEST PUSH2 0x4A1F JUMP JUMPDEST PUSH2 0x38D8 JUMP JUMPDEST SWAP1 POP SWAP2 SWAP1 POP JUMP JUMPDEST PUSH1 0x0 DUP2 SWAP1 POP SWAP2 SWAP1 POP JUMP JUMPDEST PUSH2 0x4A5E DUP4 PUSH2 0x4A29 JUMP JUMPDEST PUSH2 0x4A72 PUSH2 0x4A6A DUP3 PUSH2 0x4A4B JUMP JUMPDEST DUP5 DUP5 SLOAD PUSH2 0x49CD JUMP JUMPDEST DUP3 SSTORE POP POP POP POP JUMP JUMPDEST PUSH1 0x0 SWAP1 JUMP JUMPDEST PUSH2 0x4A87 PUSH2 0x4A7A JUMP JUMPDEST PUSH2 0x4A92 DUP2 DUP5 DUP5 PUSH2 0x4A55 JUMP JUMPDEST POP POP POP JUMP JUMPDEST JUMPDEST DUP2 DUP2 LT ISZERO PUSH2 0x4AB6 JUMPI PUSH2 0x4AAB PUSH1 0x0 DUP3 PUSH2 0x4A7F JUMP JUMPDEST PUSH1 0x1 DUP2 ADD SWAP1 POP PUSH2 0x4A98 JUMP JUMPDEST POP POP JUMP JUMPDEST PUSH1 0x1F DUP3 GT ISZERO PUSH2 0x4AFB JUMPI PUSH2 0x4ACC DUP2 PUSH2 0x499B JUMP JUMPDEST PUSH2 0x4AD5 DUP5 PUSH2 0x49B0 JUMP JUMPDEST DUP2 ADD PUSH1 0x20 DUP6 LT ISZERO PUSH2 0x4AE4 JUMPI DUP2 SWAP1 POP JUMPDEST PUSH2 0x4AF8 PUSH2 0x4AF0 DUP6 PUSH2 0x49B0 JUMP JUMPDEST DUP4 ADD DUP3 PUSH2 0x4A97 JUMP JUMPDEST POP POP JUMPDEST POP POP POP JUMP JUMPDEST PUSH1 0x0 DUP3 DUP3 SHR SWAP1 POP SWAP3 SWAP2 POP POP JUMP JUMPDEST PUSH1 0x0 PUSH2 0x4B1E PUSH1 0x0 NOT DUP5 PUSH1 0x8 MUL PUSH2 0x4B00 JUMP JUMPDEST NOT DUP1 DUP4 AND SWAP2 POP POP SWAP3 SWAP2 POP POP JUMP JUMPDEST PUSH1 0x0 PUSH2 0x4B37 DUP4 DUP4 PUSH2 0x4B0D JUMP JUMPDEST SWAP2 POP DUP3 PUSH1 0x2 MUL DUP3 OR SWAP1 POP SWAP3 SWAP2 POP POP JUMP JUMPDEST PUSH2 0x4B50 DUP3 PUSH2 0x3848 JUMP JUMPDEST PUSH8 0xFFFFFFFFFFFFFFFF DUP2 GT ISZERO PUSH2 0x4B69 JUMPI PUSH2 0x4B68 PUSH2 0x3B3F JUMP JUMPDEST JUMPDEST PUSH2 0x4B73 DUP3 SLOAD PUSH2 0x4696 JUMP JUMPDEST PUSH2 0x4B7E DUP3 DUP3 DUP6 PUSH2 0x4ABA JUMP JUMPDEST PUSH1 0x0 PUSH1 0x20 SWAP1 POP PUSH1 0x1F DUP4 GT PUSH1 0x1 DUP2 EQ PUSH2 0x4BB1 JUMPI PUSH1 0x0 DUP5 ISZERO PUSH2 0x4B9F JUMPI DUP3 DUP8 ADD MLOAD SWAP1 POP JUMPDEST PUSH2 0x4BA9 DUP6 DUP3 PUSH2 0x4B2B JUMP JUMPDEST DUP7 SSTORE POP PUSH2 0x4C11 JUMP JUMPDEST PUSH1 0x1F NOT DUP5 AND PUSH2 0x4BBF DUP7 PUSH2 0x499B JUMP JUMPDEST PUSH1 0x0 JUMPDEST DUP3 DUP2 LT ISZERO PUSH2 0x4BE7 JUMPI DUP5 DUP10 ADD MLOAD DUP3 SSTORE PUSH1 0x1 DUP3 ADD SWAP2 POP PUSH1 0x20 DUP6 ADD SWAP5 POP PUSH1 0x20 DUP2 ADD SWAP1 POP PUSH2 0x4BC2 JUMP JUMPDEST DUP7 DUP4 LT ISZERO PUSH2 0x4C04 JUMPI DUP5 DUP10 ADD MLOAD PUSH2 0x4C00 PUSH1 0x1F DUP10 AND DUP3 PUSH2 0x4B0D JUMP JUMPDEST DUP4 SSTORE POP JUMPDEST PUSH1 0x1 PUSH1 0x2 DUP9 MUL ADD DUP9 SSTORE POP POP POP JUMPDEST POP POP POP POP POP POP JUMP JUMPDEST PUSH1 0x0 PUSH1 0x40 DUP3 ADD SWAP1 POP DUP2 DUP2 SUB PUSH1 0x0 DUP4 ADD MSTORE PUSH2 0x4C33 DUP2 DUP6 PUSH2 0x3FDB JUMP JUMPDEST SWAP1 POP PUSH2 0x4C42 PUSH1 0x20 DUP4 ADD DUP5 PUSH2 0x38E2 JUMP JUMPDEST SWAP4 SWAP3 POP POP POP JUMP JUMPDEST PUSH32 0x41646472657373206973206E6F742061207265676973746572656420646F6E6F PUSH1 0x0 DUP3 ADD MSTORE PUSH32 0x7200000000000000000000000000000000000000000000000000000000000000 PUSH1 0x20 DUP3 ADD MSTORE POP JUMP JUMPDEST PUSH1 0x0 PUSH2 0x4CA5 PUSH1 0x21 DUP4 PUSH2 0x3853 JUMP JUMPDEST SWAP2 POP PUSH2 0x4CB0 DUP3 PUSH2 0x4C49 JUMP JUMPDEST PUSH1 0x40 DUP3 ADD SWAP1 POP SWAP2 SWAP1 POP JUMP JUMPDEST PUSH1 0x0 PUSH1 0x20 DUP3 ADD SWAP1 POP DUP2 DUP2 SUB PUSH1 0x0 DUP4 ADD MSTORE PUSH2 0x4CD4 DUP2 PUSH2 0x4C98 JUMP JUMPDEST SWAP1 POP SWAP2 SWAP1 POP JUMP JUMPDEST PUSH32 0x43616E206F6E6C792076657269667920446F6E6F72206F722050617469656E74 PUSH1 0x0 DUP3 ADD MSTORE PUSH32 0x20726F6C65730000000000000000000000000000000000000000000000000000 PUSH1 0x20 DUP3 ADD MSTORE POP JUMP JUMPDEST PUSH1 0x0 PUSH2 0x4D37 PUSH1 0x26 DUP4 PUSH2 0x3853 JUMP JUMPDEST SWAP2 POP PUSH2 0x4D42 DUP3 PUSH2 0x4CDB JUMP JUMPDEST PUSH1 0x40 DUP3 ADD SWAP1 POP SWAP2 SWAP1 POP JUMP JUMPDEST PUSH1 0x0 PUSH1 0x20 DUP3 ADD SWAP1 POP DUP2 DUP2 SUB PUSH1 0x0 DUP4 ADD MSTORE PUSH2 0x4D66 DUP2 PUSH2 0x4D2A JUMP JUMPDEST SWAP1 POP SWAP2 SWAP1 POP JUMP JUMPDEST PUSH32 0x55736572206973206E6F742072656769737465726564206173206120446F6E6F PUSH1 0x0 DUP3 ADD MSTORE PUSH32 0x7220746F20766572696679000000000000000000000000000000000000000000 PUSH1 0x20 DUP3 ADD MSTORE POP JUMP JUMPDEST PUSH1 0x0 PUSH2 0x4DC9 PUSH1 0x2B DUP4 PUSH2 0x3853 JUMP JUMPDEST SWAP2 POP PUSH2 0x4DD4 DUP3 PUSH2 0x4D6D JUMP JUMPDEST PUSH1 0x40 DUP3 ADD SWAP1 POP SWAP2 SWAP1 POP JUMP JUMPDEST PUSH1 0x0 PUSH1 0x20 DUP3 ADD SWAP1 POP DUP2 DUP2 SUB PUSH1 0x0 DUP4 ADD MSTORE PUSH2 0x4DF8 DUP2 PUSH2 0x4DBC JUMP JUMPDEST SWAP1 POP SWAP2 SWAP1 POP JUMP JUMPDEST PUSH32 0x55736572206973206E6F74207265676973746572656420617320612050617469 PUSH1 0x0 DUP3 ADD MSTORE PUSH32 0x656E7420746F2076657269667900000000000000000000000000000000000000 PUSH1 0x20 DUP3 ADD MSTORE POP JUMP JUMPDEST PUSH1 0x0 PUSH2 0x4E5B PUSH1 0x2D DUP4 PUSH2 0x3853 JUMP JUMPDEST SWAP2 POP PUSH2 0x4E66 DUP3 PUSH2 0x4DFF JUMP JUMPDEST PUSH1 0x40 DUP3 ADD SWAP1 POP SWAP2 SWAP1 POP JUMP JUMPDEST PUSH1 0x0 PUSH1 0x20 DUP3 ADD SWAP1 POP DUP2 DUP2 SUB PUSH1 0x0 DUP4 ADD MSTORE PUSH2 0x4E8A DUP2 PUSH2 0x4E4E JUMP JUMPDEST SWAP1 POP SWAP2 SWAP1 POP JUMP JUMPDEST PUSH32 0x4E6565646564206F7267616E2069732072657175697265640000000000000000 PUSH1 0x0 DUP3 ADD MSTORE POP JUMP JUMPDEST PUSH1 0x0 PUSH2 0x4EC7 PUSH1 0x18 DUP4 PUSH2 0x3853 JUMP JUMPDEST SWAP2 POP PUSH2 0x4ED2 DUP3 PUSH2 0x4E91 JUMP JUMPDEST PUSH1 0x20 DUP3 ADD SWAP1 POP SWAP2 SWAP1 POP JUMP JUMPDEST PUSH1 0x0 PUSH1 0x20 DUP3 ADD SWAP1 POP DUP2 DUP2 SUB PUSH1 0x0 DUP4 ADD MSTORE PUSH2 0x4EF6 DUP2 PUSH2 0x4EBA JUMP JUMPDEST SWAP1 POP SWAP2 SWAP1 POP JUMP JUMPDEST PUSH32 0x557267656E637920697320726571756972656400000000000000000000000000 PUSH1 0x0 DUP3 ADD MSTORE POP JUMP JUMPDEST PUSH1 0x0 PUSH2 0x4F33 PUSH1 0x13 DUP4 PUSH2 0x3853 JUMP JUMPDEST SWAP2 POP PUSH2 0x4F3E DUP3 PUSH2 0x4EFD JUMP JUMPDEST PUSH1 0x20 DUP3 ADD SWAP1 POP SWAP2 SWAP1 POP JUMP JUMPDEST PUSH1 0x0 PUSH1 0x20 DUP3 ADD SWAP1 POP DUP2 DUP2 SUB PUSH1 0x0 DUP4 ADD MSTORE PUSH2 0x4F62 DUP2 PUSH2 0x4F26 JUMP JUMPDEST SWAP1 POP SWAP2 SWAP1 POP JUMP JUMPDEST PUSH32 0x416765206D7573742062652067726561746572207468616E2030000000000000 PUSH1 0x0 DUP3 ADD MSTORE POP JUMP JUMPDEST PUSH1 0x0 PUSH2 0x4F9F PUSH1 0x1A DUP4 PUSH2 0x3853 JUMP JUMPDEST SWAP2 POP PUSH2 0x4FAA DUP3 PUSH2 0x4F69 JUMP JUMPDEST PUSH1 0x20 DUP3 ADD SWAP1 POP SWAP2 SWAP1 POP JUMP JUMPDEST PUSH1 0x0 PUSH1 0x20 DUP3 ADD SWAP1 POP DUP2 DUP2 SUB PUSH1 0x0 DUP4 ADD MSTORE PUSH2 0x4FCE DUP2 PUSH2 0x4F92 JUMP JUMPDEST SWAP1 POP SWAP2 SWAP1 POP JUMP JUMPDEST PUSH32 0x4E487B7100000000000000000000000000000000000000000000000000000000 PUSH1 0x0 MSTORE PUSH1 0x32 PUSH1 0x4 MSTORE PUSH1 0x24 PUSH1 0x0 REVERT JUMPDEST PUSH32 0x4E487B7100000000000000000000000000000000000000000000000000000000 PUSH1 0x0 MSTORE PUSH1 0x11 PUSH1 0x4 MSTORE PUSH1 0x24 PUSH1 0x0 REVERT JUMPDEST PUSH1 0x0 PUSH2 0x503E DUP3 PUSH2 0x38D8 JUMP JUMPDEST SWAP2 POP PUSH32 0xFFFFFFFFFFFFFFFFFFFFFFFFFFFFFFFFFFFFFFFFFFFFFFFFFFFFFFFFFFFFFFFF DUP3 SUB PUSH2 0x5070 JUMPI PUSH2 0x506F PUSH2 0x5004 JUMP JUMPDEST JUMPDEST PUSH1 0x1 DUP3 ADD SWAP1 POP SWAP2 SWAP1 POP JUMP JUMPDEST PUSH32 0x41646472657373206973206E6F74206120726567697374657265642070617469 PUSH1 0x0 DUP3 ADD MSTORE PUSH32 0x656E740000000000000000000000000000000000000000000000000000000000 PUSH1 0x20 DUP3 ADD MSTORE POP JUMP JUMPDEST PUSH1 0x0 PUSH2 0x50D7 PUSH1 0x23 DUP4 PUSH2 0x3853 JUMP JUMPDEST SWAP2 POP PUSH2 0x50E2 DUP3 PUSH2 0x507B JUMP JUMPDEST PUSH1 0x40 DUP3 ADD SWAP1 POP SWAP2 SWAP1 POP JUMP JUMPDEST PUSH1 0x0 PUSH1 0x20 DUP3 ADD SWAP1 POP DUP2 DUP2 SUB PUSH1 0x0 DUP4 ADD MSTORE PUSH2 0x5106 DUP2 PUSH2 0x50CA JUMP JUMPDEST SWAP1 POP SWAP2 SWAP1 POP JUMP INVALID LOG2 PUSH5 0x6970667358 0x22 SLT KECCAK256 POP 0xCC RETURN 0xA8 SUB 0x2E GASLIMIT PUSH10 0x2846C11E38D2AFB55BFA BASEFEE SSTORE 0xF CHAINID 0x22 0x4C 0xE5 ADD MULMOD 0xCF PUSH14 0x15234564736F6C63430008140033 "},"methodIdentifiers":{"donorList(uint256)":"5eed3dcb","donors(address)":"ca0cdea8","flagUser(address)":"a33a2d80","getAvailableOrgans()":"c9047be7","getDonorDetails(address)":"afcb67d3","getDonorList()":"48cfc779","getPatientDetails(address)":"efe2ccc1","getPatientList()":"503b1354","markDonorDeceased(address)":"4c1da6a9","markOrganAsMatched(address,address)":"8371a454","owner()":"8da5cb5b","patientList(uint256)":"babb1d41","patients(address)":"0869cfbc","registerDonor(string,uint256,string,uint8[],string,string)":"7bb848fc","registerPatient(string,string,string,string,string,string,uint256)":"c5f37813","revokeDonorCommitment(address)":"312b6d4d","roles(address)":"99374642","suspendUser(address)":"1e153acb","validateDonorCommitment(address)":"bbad68a6","verifyUser(address,uint8)":"c2c32425"}}}}}