{
  "_format": "hh-sol-artifact-1",
  "contractName": "OrganDonation",
  "sourceName": "contracts/OrganDonation.sol",
  "abi": [
    {
      "inputs": [],
      "stateMutability": "nonpayable",
      "type": "constructor"
    },
    {
      "anonymous": false,
      "inputs": [
        {
          "indexed": true,
          "internalType": "address",
          "name": "donor",
          "type": "address"
        }
      ],
      "name": "DonorCommitmentRevoked",
      "type": "event"
    },
    {
      "anonymous": false,
      "inputs": [
        {
          "indexed": true,
          "internalType": "address",
          "name": "donor",
          "type": "address"
        }
      ],
      "name": "DonorCommitmentValidated",
      "type": "event"
    },
    {
      "anonymous": false,
      "inputs": [
        {
          "indexed": true,
          "internalType": "address",
          "name": "donor",
          "type": "address"
        }
      ],
      "name": "DonorDeceased",
      "type": "event"
    },
    {
      "anonymous": false,
      "inputs": [
        {
          "indexed": true,
          "internalType": "address",
          "name": "donor",
          "type": "address"
        },
        {
          "indexed": true,
          "internalType": "address",
          "name": "patient",
          "type": "address"
        }
      ],
      "name": "MatchFound",
      "type": "event"
    },
    {
      "anonymous": false,
      "inputs": [
        {
          "indexed": true,
          "internalType": "address",
          "name": "donor",
          "type": "address"
        },
        {
          "indexed": false,
          "internalType": "enum OrganDonation.OrganType[]",
          "name": "organs",
          "type": "uint8[]"
        },
        {
          "indexed": false,
          "internalType": "uint256",
          "name": "age",
          "type": "uint256"
        }
      ],
      "name": "OrganRegistered",
      "type": "event"
    },
    {
      "anonymous": false,
      "inputs": [
        {
          "indexed": true,
          "internalType": "address",
          "name": "user",
          "type": "address"
        }
      ],
      "name": "UserFlagged",
      "type": "event"
    },
    {
      "anonymous": false,
      "inputs": [
        {
          "indexed": true,
          "internalType": "address",
          "name": "user",
          "type": "address"
        }
      ],
      "name": "UserSuspended",
      "type": "event"
    },
    {
      "anonymous": false,
      "inputs": [
        {
          "indexed": true,
          "internalType": "address",
          "name": "user",
          "type": "address"
        },
        {
          "indexed": false,
          "internalType": "enum OrganDonation.Role",
          "name": "role",
          "type": "uint8"
        }
      ],
      "name": "UserVerified",
      "type": "event"
    },
    {
      "inputs": [
        {
          "internalType": "uint256",
          "name": "",
          "type": "uint256"
        }
      ],
      "name": "donorList",
      "outputs": [
        {
          "internalType": "address",
          "name": "",
          "type": "address"
        }
      ],
      "stateMutability": "view",
      "type": "function"
    },
    {
      "inputs": [
        {
          "internalType": "address",
          "name": "",
          "type": "address"
        }
      ],
      "name": "donors",
      "outputs": [
        {
          "internalType": "address",
          "name": "donorAddress",
          "type": "address"
        },
        {
          "internalType": "string",
          "name": "name",
          "type": "string"
        },
        {
          "internalType": "uint256",
          "name": "age",
          "type": "uint256"
        },
        {
          "internalType": "string",
          "name": "bloodType",
          "type": "string"
        },
        {
          "internalType": "string",
          "name": "location",
          "type": "string"
        },
        {
          "internalType": "bool",
          "name": "deceased",
          "type": "bool"
        },
        {
          "internalType": "bool",
          "name": "verified",
          "type": "bool"
        },
        {
          "internalType": "bool",
          "name": "suspended",
          "type": "bool"
        },
        {
          "internalType": "bool",
          "name": "flagged",
          "type": "bool"
        },
        {
          "internalType": "bool",
          "name": "committed",
          "type": "bool"
        },
        {
          "internalType": "string",
          "name": "ipfsHash",
          "type": "string"
        }
      ],
      "stateMutability": "view",
      "type": "function"
    },
    {
      "inputs": [
        {
          "internalType": "address",
          "name": "user",
          "type": "address"
        }
      ],
      "name": "flagUser",
      "outputs": [],
      "stateMutability": "nonpayable",
      "type": "function"
    },
    {
      "inputs": [],
      "name": "getAvailableOrgans",
      "outputs": [
        {
          "components": [
            {
              "internalType": "address",
              "name": "donorAddress",
              "type": "address"
            },
            {
              "internalType": "string",
              "name": "name",
              "type": "string"
            },
            {
              "internalType": "uint256",
              "name": "age",
              "type": "uint256"
            },
            {
              "internalType": "string",
              "name": "bloodType",
              "type": "string"
            },
            {
              "internalType": "enum OrganDonation.OrganType[]",
              "name": "organs",
              "type": "uint8[]"
            },
            {
              "internalType": "string",
              "name": "location",
              "type": "string"
            },
            {
              "internalType": "bool",
              "name": "deceased",
              "type": "bool"
            },
            {
              "internalType": "bool",
              "name": "verified",
              "type": "bool"
            },
            {
              "internalType": "bool",
              "name": "suspended",
              "type": "bool"
            },
            {
              "internalType": "bool",
              "name": "flagged",
              "type": "bool"
            },
            {
              "internalType": "bool",
              "name": "committed",
              "type": "bool"
            },
            {
              "internalType": "string",
              "name": "ipfsHash",
              "type": "string"
            }
          ],
          "internalType": "struct OrganDonation.Donor[]",
          "name": "",
          "type": "tuple[]"
        }
      ],
      "stateMutability": "view",
      "type": "function"
    },
    {
      "inputs": [
        {
          "internalType": "address",
          "name": "_donorAddress",
          "type": "address"
        }
      ],
      "name": "getDonorDetails",
      "outputs": [
        {
          "internalType": "address",
          "name": "donorAddress",
          "type": "address"
        },
        {
          "internalType": "string",
          "name": "name",
          "type": "string"
        },
        {
          "internalType": "uint256",
          "name": "age",
          "type": "uint256"
        },
        {
          "internalType": "string",
          "name": "bloodType",
          "type": "string"
        },
        {
          "internalType": "enum OrganDonation.OrganType[]",
          "name": "organs",
          "type": "uint8[]"
        },
        {
          "internalType": "string",
          "name": "location",
          "type": "string"
        },
        {
          "internalType": "bool",
          "name": "deceased",
          "type": "bool"
        },
        {
          "internalType": "bool",
          "name": "verified",
          "type": "bool"
        },
        {
          "internalType": "bool",
          "name": "suspended",
          "type": "bool"
        },
        {
          "internalType": "bool",
          "name": "flagged",
          "type": "bool"
        },
        {
          "internalType": "bool",
          "name": "committed",
          "type": "bool"
        },
        {
          "internalType": "string",
          "name": "ipfsHash",
          "type": "string"
        }
      ],
      "stateMutability": "view",
      "type": "function"
    },
    {
      "inputs": [],
      "name": "getDonorList",
      "outputs": [
        {
          "internalType": "address[]",
          "name": "",
          "type": "address[]"
        }
      ],
      "stateMutability": "view",
      "type": "function"
    },
    {
      "inputs": [
        {
          "internalType": "address",
          "name": "_patientAddress",
          "type": "address"
        }
      ],
      "name": "getPatientDetails",
      "outputs": [
        {
          "internalType": "address",
          "name": "patientAddress",
          "type": "address"
        },
        {
          "internalType": "string",
          "name": "name",
          "type": "string"
        },
        {
          "internalType": "uint256",
          "name": "age",
          "type": "uint256"
        },
        {
          "internalType": "string",
          "name": "bloodType",
          "type": "string"
        },
        {
          "internalType": "string",
          "name": "neededOrgan",
          "type": "string"
        },
        {
          "internalType": "string",
          "name": "urgency",
          "type": "string"
        },
        {
          "internalType": "string",
          "name": "location",
          "type": "string"
        },
        {
          "internalType": "bool",
          "name": "verified",
          "type": "bool"
        },
        {
          "internalType": "bool",
          "name": "suspended",
          "type": "bool"
        },
        {
          "internalType": "bool",
          "name": "flagged",
          "type": "bool"
        },
        {
          "internalType": "string",
          "name": "ipfsHash",
          "type": "string"
        }
      ],
      "stateMutability": "view",
      "type": "function"
    },
    {
      "inputs": [],
      "name": "getPatientList",
      "outputs": [
        {
          "internalType": "address[]",
          "name": "",
          "type": "address[]"
        }
      ],
      "stateMutability": "view",
      "type": "function"
    },
    {
      "inputs": [
        {
          "internalType": "address",
          "name": "donor",
          "type": "address"
        }
      ],
      "name": "markDonorDeceased",
      "outputs": [],
      "stateMutability": "nonpayable",
      "type": "function"
    },
    {
      "inputs": [
        {
          "internalType": "address",
          "name": "donor",
          "type": "address"
        },
        {
          "internalType": "address",
          "name": "patient",
          "type": "address"
        }
      ],
      "name": "markOrganAsMatched",
      "outputs": [],
      "stateMutability": "nonpayable",
      "type": "function"
    },
    {
      "inputs": [],
      "name": "owner",
      "outputs": [
        {
          "internalType": "address",
          "name": "",
          "type": "address"
        }
      ],
      "stateMutability": "view",
      "type": "function"
    },
    {
      "inputs": [
        {
          "internalType": "uint256",
          "name": "",
          "type": "uint256"
        }
      ],
      "name": "patientList",
      "outputs": [
        {
          "internalType": "address",
          "name": "",
          "type": "address"
        }
      ],
      "stateMutability": "view",
      "type": "function"
    },
    {
      "inputs": [
        {
          "internalType": "address",
          "name": "",
          "type": "address"
        }
      ],
      "name": "patients",
      "outputs": [
        {
          "internalType": "address",
          "name": "patientAddress",
          "type": "address"
        },
        {
          "internalType": "string",
          "name": "name",
          "type": "string"
        },
        {
          "internalType": "uint256",
          "name": "age",
          "type": "uint256"
        },
        {
          "internalType": "string",
          "name": "bloodType",
          "type": "string"
        },
        {
          "internalType": "string",
          "name": "neededOrgan",
          "type": "string"
        },
        {
          "internalType": "string",
          "name": "urgency",
          "type": "string"
        },
        {
          "internalType": "string",
          "name": "location",
          "type": "string"
        },
        {
          "internalType": "bool",
          "name": "verified",
          "type": "bool"
        },
        {
          "internalType": "bool",
          "name": "suspended",
          "type": "bool"
        },
        {
          "internalType": "bool",
          "name": "flagged",
          "type": "bool"
        },
        {
          "internalType": "string",
          "name": "ipfsHash",
          "type": "string"
        }
      ],
      "stateMutability": "view",
      "type": "function"
    },
    {
      "inputs": [
        {
          "internalType": "string",
          "name": "name",
          "type": "string"
        },
        {
          "internalType": "uint256",
          "name": "_age",
          "type": "uint256"
        },
        {
          "internalType": "string",
          "name": "bloodType",
          "type": "string"
        },
        {
          "internalType": "enum OrganDonation.OrganType[]",
          "name": "organs",
          "type": "uint8[]"
        },
        {
          "internalType": "string",
          "name": "location",
          "type": "string"
        },
        {
          "internalType": "string",
          "name": "ipfsHash",
          "type": "string"
        }
      ],
      "name": "registerDonor",
      "outputs": [],
      "stateMutability": "nonpayable",
      "type": "function"
    },
    {
      "inputs": [
        {
          "internalType": "string",
          "name": "name",
          "type": "string"
        },
        {
          "internalType": "string",
          "name": "bloodType",
          "type": "string"
        },
        {
          "internalType": "string",
          "name": "neededOrgan",
          "type": "string"
        },
        {
          "internalType": "string",
          "name": "urgency",
          "type": "string"
        },
        {
          "internalType": "string",
          "name": "location",
          "type": "string"
        },
        {
          "internalType": "string",
          "name": "ipfsHash",
          "type": "string"
        },
        {
          "internalType": "uint256",
          "name": "_age",
          "type": "uint256"
        }
      ],
      "name": "registerPatient",
      "outputs": [],
      "stateMutability": "nonpayable",
      "type": "function"
    },
    {
      "inputs": [
        {
          "internalType": "address",
          "name": "donor",
          "type": "address"
        }
      ],
      "name": "revokeDonorCommitment",
      "outputs": [],
      "stateMutability": "nonpayable",
      "type": "function"
    },
    {
      "inputs": [
        {
          "internalType": "address",
          "name": "",
          "type": "address"
        }
      ],
      "name": "roles",
      "outputs": [
        {
          "internalType": "enum OrganDonation.Role",
          "name": "",
          "type": "uint8"
        }
      ],
      "stateMutability": "view",
      "type": "function"
    },
    {
      "inputs": [
        {
          "internalType": "address",
          "name": "user",
          "type": "address"
        }
      ],
      "name": "suspendUser",
      "outputs": [],
      "stateMutability": "nonpayable",
      "type": "function"
    },
    {
      "inputs": [
        {
          "internalType": "address",
          "name": "donor",
          "type": "address"
        }
      ],
      "name": "validateDonorCommitment",
      "outputs": [],
      "stateMutability": "nonpayable",
      "type": "function"
    },
    {
      "inputs": [
        {
          "internalType": "address",
          "name": "user",
          "type": "address"
        },
        {
          "internalType": "enum OrganDonation.Role",
          "name": "roleToVerify",
          "type": "uint8"
        }
      ],
      "name": "verifyUser",
      "outputs": [],
      "stateMutability": "nonpayable",
      "type": "function"
    }
  ],
  "bytecode": "0x60806040523480156200001157600080fd5b50336000806101000a81548173ffffffffffffffffffffffffffffffffffffffff021916908373ffffffffffffffffffffffffffffffffffffffff1602179055506003600160003373ffffffffffffffffffffffffffffffffffffffff1673ffffffffffffffffffffffffffffffffffffffff16815260200190815260200160002060006101000a81548160ff02191690836003811115620000b857620000b7620000c3565b5b0217905550620000f2565b7f4e487b7100000000000000000000000000000000000000000000000000000000600052602160045260246000fd5b61514380620001026000396000f3fe608060405234801561001057600080fd5b506004361061012c5760003560e01c806399374642116100ad578063c2c3242511610071578063c2c3242514610354578063c5f3781314610370578063c9047be71461038c578063ca0cdea8146103aa578063efe2ccc1146103e45761012c565b80639937464214610281578063a33a2d80146102b1578063afcb67d3146102cd578063babb1d4114610308578063bbad68a6146103385761012c565b8063503b1354116100f4578063503b1354146101dd5780635eed3dcb146101fb5780637bb848fc1461022b5780638371a454146102475780638da5cb5b146102635761012c565b80630869cfbc146101315780631e153acb1461016b578063312b6d4d1461018757806348cfc779146101a35780634c1da6a9146101c1575b600080fd5b61014b6004803603810190610146919061380c565b61041e565b6040516101629b9a9998979695949392919061390c565b60405180910390f35b6101856004803603810190610180919061380c565b6107ef565b005b6101a1600480360381019061019c919061380c565b610a94565b005b6101ab610be7565b6040516101b89190613a9f565b60405180910390f35b6101db60048036038101906101d6919061380c565b610c75565b005b6101e5610dc8565b6040516101f29190613a9f565b60405180910390f35b61021560048036038101906102109190613aed565b610e56565b6040516102229190613b1a565b60405180910390f35b61024560048036038101906102409190613d57565b610e95565b005b610261600480360381019061025c9190613e70565b61132e565b005b61026b61143e565b6040516102789190613b1a565b60405180910390f35b61029b6004803603810190610296919061380c565b611462565b6040516102a89190613f27565b60405180910390f35b6102cb60048036038101906102c6919061380c565b611482565b005b6102e760048036038101906102e2919061380c565b611727565b6040516102ff9c9b9a99989796959493929190614039565b60405180910390f35b610322600480360381019061031d9190613aed565b611c62565b60405161032f9190613b1a565b60405180910390f35b610352600480360381019061034d919061380c565b611ca1565b005b61036e6004803603810190610369919061413b565b611df4565b005b61038a6004803603810190610385919061417b565b612209565b005b610394612659565b6040516103a1919061457e565b60405180910390f35b6103c460048036038101906103bf919061380c565b612dd9565b6040516103db9b9a999897969594939291906145a0565b60405180910390f35b6103fe60048036038101906103f9919061380c565b6130b4565b6040516104159b9a9998979695949392919061390c565b60405180910390f35b60036020528060005260406000206000915090508060000160009054906101000a900473ffffffffffffffffffffffffffffffffffffffff169080600101805461046790614696565b80601f016020809104026020016040519081016040528092919081815260200182805461049390614696565b80156104e05780601f106104b5576101008083540402835291602001916104e0565b820191906000526020600020905b8154815290600101906020018083116104c357829003601f168201915b5050505050908060020154908060030180546104fb90614696565b80601f016020809104026020016040519081016040528092919081815260200182805461052790614696565b80156105745780601f1061054957610100808354040283529160200191610574565b820191906000526020600020905b81548152906001019060200180831161055757829003601f168201915b50505050509080600401805461058990614696565b80601f01602080910402602001604051908101604052809291908181526020018280546105b590614696565b80156106025780601f106105d757610100808354040283529160200191610602565b820191906000526020600020905b8154815290600101906020018083116105e557829003601f168201915b50505050509080600501805461061790614696565b80601f016020809104026020016040519081016040528092919081815260200182805461064390614696565b80156106905780601f1061066557610100808354040283529160200191610690565b820191906000526020600020905b81548152906001019060200180831161067357829003601f168201915b5050505050908060060180546106a590614696565b80601f01602080910402602001604051908101604052809291908181526020018280546106d190614696565b801561071e5780601f106106f35761010080835404028352916020019161071e565b820191906000526020600020905b81548152906001019060200180831161070157829003601f168201915b5050505050908060070160009054906101000a900460ff16908060070160019054906101000a900460ff16908060070160029054906101000a900460ff169080600801805461076c90614696565b80601f016020809104026020016040519081016040528092919081815260200182805461079890614696565b80156107e55780601f106107ba576101008083540402835291602001916107e5565b820191906000526020600020905b8154815290600101906020018083116107c857829003601f168201915b505050505090508b565b60038081111561080257610801613eb0565b5b600160003373ffffffffffffffffffffffffffffffffffffffff1673ffffffffffffffffffffffffffffffffffffffff16815260200190815260200160002060009054906101000a900460ff16600381111561086157610860613eb0565b5b146108a1576040517f08c379a000000000000000000000000000000000000000000000000000000000815260040161089890614713565b60405180910390fd5b600160038111156108b5576108b4613eb0565b5b600160008373ffffffffffffffffffffffffffffffffffffffff1673ffffffffffffffffffffffffffffffffffffffff16815260200190815260200160002060009054906101000a900460ff16600381111561091457610913613eb0565b5b03610979576001600260008373ffffffffffffffffffffffffffffffffffffffff1673ffffffffffffffffffffffffffffffffffffffff16815260200190815260200160002060060160026101000a81548160ff021916908315150217905550610a4e565b6002600381111561098d5761098c613eb0565b5b600160008373ffffffffffffffffffffffffffffffffffffffff1673ffffffffffffffffffffffffffffffffffffffff16815260200190815260200160002060009054906101000a900460ff1660038111156109ec576109eb613eb0565b5b03610a4d576001600360008373ffffffffffffffffffffffffffffffffffffffff1673ffffffffffffffffffffffffffffffffffffffff16815260200190815260200160002060070160016101000a81548160ff0219169083151502179055505b5b8073ffffffffffffffffffffffffffffffffffffffff167f904d1985d199946aad94a6990736c4602adcc5b717b04d0436ed05446b07169d60405160405180910390a250565b600380811115610aa757610aa6613eb0565b5b600160003373ffffffffffffffffffffffffffffffffffffffff1673ffffffffffffffffffffffffffffffffffffffff16815260200190815260200160002060009054906101000a900460ff166003811115610b0657610b05613eb0565b5b14610b46576040517f08c379a0000000000000000000000000000000000000000000000000000000008152600401610b3d90614713565b60405180910390fd5b6000600260008373ffffffffffffffffffffffffffffffffffffffff1673ffffffffffffffffffffffffffffffffffffffff16815260200190815260200160002060060160046101000a81548160ff0219169083151502179055508073ffffffffffffffffffffffffffffffffffffffff167ff2f9e1301b8fc7b02f69f6ec7d37d40ca019ddcb0a1ec4ea542256fba95cf69260405160405180910390a250565b60606004805480602002602001604051908101604052809291908181526020018280548015610c6b57602002820191906000526020600020905b8160009054906101000a900473ffffffffffffffffffffffffffffffffffffffff1673ffffffffffffffffffffffffffffffffffffffff1681526020019060010190808311610c21575b5050505050905090565b600380811115610c8857610c87613eb0565b5b600160003373ffffffffffffffffffffffffffffffffffffffff1673ffffffffffffffffffffffffffffffffffffffff16815260200190815260200160002060009054906101000a900460ff166003811115610ce757610ce6613eb0565b5b14610d27576040517f08c379a0000000000000000000000000000000000000000000000000000000008152600401610d1e90614713565b60405180910390fd5b6001600260008373ffffffffffffffffffffffffffffffffffffffff1673ffffffffffffffffffffffffffffffffffffffff16815260200190815260200160002060060160006101000a81548160ff0219169083151502179055508073ffffffffffffffffffffffffffffffffffffffff167f5d1f8ae728605f1c5a96c33df7ee3b56ded21030717a9f48200f94737da9fd2960405160405180910390a250565b60606005805480602002602001604051908101604052809291908181526020018280548015610e4c57602002820191906000526020600020905b8160009054906101000a900473ffffffffffffffffffffffffffffffffffffffff1673ffffffffffffffffffffffffffffffffffffffff1681526020019060010190808311610e02575b5050505050905090565b60048181548110610e6657600080fd5b906000526020600020016000915054906101000a900473ffffffffffffffffffffffffffffffffffffffff1681565b6000865111610ed9576040517f08c379a0000000000000000000000000000000000000000000000000000000008152600401610ed09061477f565b60405180910390fd5b6012851015610f1d576040517f08c379a0000000000000000000000000000000000000000000000000000000008152600401610f1490614811565b60405180910390fd5b6000845111610f61576040517f08c379a0000000000000000000000000000000000000000000000000000000008152600401610f589061487d565b60405180910390fd5b6000835111610fa5576040517f08c379a0000000000000000000000000000000000000000000000000000000008152600401610f9c9061490f565b60405180910390fd5b6000825111610fe9576040517f08c379a0000000000000000000000000000000000000000000000000000000008152600401610fe09061497b565b60405180910390fd5b6040518061018001604052803373ffffffffffffffffffffffffffffffffffffffff16815260200187815260200186815260200185815260200184815260200183815260200160001515815260200160001515815260200160001515815260200160001515815260200160001515815260200182815250600260003373ffffffffffffffffffffffffffffffffffffffff1673ffffffffffffffffffffffffffffffffffffffff16815260200190815260200160002060008201518160000160006101000a81548173ffffffffffffffffffffffffffffffffffffffff021916908373ffffffffffffffffffffffffffffffffffffffff16021790555060208201518160010190816110fb9190614b47565b5060408201518160020155606082015181600301908161111b9190614b47565b506080820151816004019080519060200190611138929190613646565b5060a082015181600501908161114e9190614b47565b5060c08201518160060160006101000a81548160ff02191690831515021790555060e08201518160060160016101000a81548160ff0219169083151502179055506101008201518160060160026101000a81548160ff0219169083151502179055506101208201518160060160036101000a81548160ff0219169083151502179055506101408201518160060160046101000a81548160ff0219169083151502179055506101608201518160070190816112089190614b47565b5090505060018060003373ffffffffffffffffffffffffffffffffffffffff1673ffffffffffffffffffffffffffffffffffffffff16815260200190815260200160002060006101000a81548160ff0219169083600381111561126e5761126d613eb0565b5b02179055506004339080600181540180825580915050600190039060005260206000200160009091909190916101000a81548173ffffffffffffffffffffffffffffffffffffffff021916908373ffffffffffffffffffffffffffffffffffffffff1602179055503373ffffffffffffffffffffffffffffffffffffffff167f7555fbe7a03a1845d092ae34447e52cc2cf366bbd2a8c185275753f775b0c3cc848760405161131e929190614c19565b60405180910390a2505050505050565b60038081111561134157611340613eb0565b5b600160003373ffffffffffffffffffffffffffffffffffffffff1673ffffffffffffffffffffffffffffffffffffffff16815260200190815260200160002060009054906101000a900460ff1660038111156113a05761139f613eb0565b5b146113e0576040517f08c379a00000000000000000000000000000000000000000000000000000000081526004016113d790614713565b60405180910390fd5b8073ffffffffffffffffffffffffffffffffffffffff168273ffffffffffffffffffffffffffffffffffffffff167f3182b38841de065eded850f9e9fa30850bb37c3a57df9bef3841138a94b7295660405160405180910390a35050565b60008054906101000a900473ffffffffffffffffffffffffffffffffffffffff1681565b60016020528060005260406000206000915054906101000a900460ff1681565b60038081111561149557611494613eb0565b5b600160003373ffffffffffffffffffffffffffffffffffffffff1673ffffffffffffffffffffffffffffffffffffffff16815260200190815260200160002060009054906101000a900460ff1660038111156114f4576114f3613eb0565b5b14611534576040517f08c379a000000000000000000000000000000000000000000000000000000000815260040161152b90614713565b60405180910390fd5b6001600381111561154857611547613eb0565b5b600160008373ffffffffffffffffffffffffffffffffffffffff1673ffffffffffffffffffffffffffffffffffffffff16815260200190815260200160002060009054906101000a900460ff1660038111156115a7576115a6613eb0565b5b0361160c576001600260008373ffffffffffffffffffffffffffffffffffffffff1673ffffffffffffffffffffffffffffffffffffffff16815260200190815260200160002060060160036101000a81548160ff0219169083151502179055506116e1565b600260038111156116205761161f613eb0565b5b600160008373ffffffffffffffffffffffffffffffffffffffff1673ffffffffffffffffffffffffffffffffffffffff16815260200190815260200160002060009054906101000a900460ff16600381111561167f5761167e613eb0565b5b036116e0576001600360008373ffffffffffffffffffffffffffffffffffffffff1673ffffffffffffffffffffffffffffffffffffffff16815260200190815260200160002060070160026101000a81548160ff0219169083151502179055505b5b8073ffffffffffffffffffffffffffffffffffffffff167faea35fc9a27361aba75788b01d0206dbe6018a2061ba0c177d99b2b18dd3728960405160405180910390a250565b600060606000606080606060008060008060006060600160038111156117505761174f613eb0565b5b600160008f73ffffffffffffffffffffffffffffffffffffffff1673ffffffffffffffffffffffffffffffffffffffff16815260200190815260200160002060009054906101000a900460ff1660038111156117af576117ae613eb0565b5b146117ef576040517f08c379a00000000000000000000000000000000000000000000000000000000081526004016117e690614cbb565b60405180910390fd5b6000600260008f73ffffffffffffffffffffffffffffffffffffffff1673ffffffffffffffffffffffffffffffffffffffff168152602001908152602001600020604051806101800160405290816000820160009054906101000a900473ffffffffffffffffffffffffffffffffffffffff1673ffffffffffffffffffffffffffffffffffffffff1673ffffffffffffffffffffffffffffffffffffffff1681526020016001820180546118a290614696565b80601f01602080910402602001604051908101604052809291908181526020018280546118ce90614696565b801561191b5780601f106118f05761010080835404028352916020019161191b565b820191906000526020600020905b8154815290600101906020018083116118fe57829003601f168201915b505050505081526020016002820154815260200160038201805461193e90614696565b80601f016020809104026020016040519081016040528092919081815260200182805461196a90614696565b80156119b75780601f1061198c576101008083540402835291602001916119b7565b820191906000526020600020905b81548152906001019060200180831161199a57829003601f168201915b5050505050815260200160048201805480602002602001604051908101604052809291908181526020018280548015611a4457602002820191906000526020600020906000905b82829054906101000a900460ff166004811115611a1e57611a1d613eb0565b5b815260200190600101906020826000010492830192600103820291508084116119fe5790505b50505050508152602001600582018054611a5d90614696565b80601f0160208091040260200160405190810160405280929190818152602001828054611a8990614696565b8015611ad65780601f10611aab57610100808354040283529160200191611ad6565b820191906000526020600020905b815481529060010190602001808311611ab957829003601f168201915b505050505081526020016006820160009054906101000a900460ff161515151581526020016006820160019054906101000a900460ff161515151581526020016006820160029054906101000a900460ff161515151581526020016006820160039054906101000a900460ff161515151581526020016006820160049054906101000a900460ff16151515158152602001600782018054611b7690614696565b80601f0160208091040260200160405190810160405280929190818152602001828054611ba290614696565b8015611bef5780601f10611bc457610100808354040283529160200191611bef565b820191906000526020600020905b815481529060010190602001808311611bd257829003601f168201915b5050505050815250509050806000015181602001518260400151836060015184608001518560a001518660c001518760e001518861010001518961012001518a61014001518b61016001519c509c509c509c509c509c509c509c509c509c509c509c505091939597999b5091939597999b565b60058181548110611c7257600080fd5b906000526020600020016000915054906101000a900473ffffffffffffffffffffffffffffffffffffffff1681565b600380811115611cb457611cb3613eb0565b5b600160003373ffffffffffffffffffffffffffffffffffffffff1673ffffffffffffffffffffffffffffffffffffffff16815260200190815260200160002060009054906101000a900460ff166003811115611d1357611d12613eb0565b5b14611d53576040517f08c379a0000000000000000000000000000000000000000000000000000000008152600401611d4a90614713565b60405180910390fd5b6001600260008373ffffffffffffffffffffffffffffffffffffffff1673ffffffffffffffffffffffffffffffffffffffff16815260200190815260200160002060060160046101000a81548160ff0219169083151502179055508073ffffffffffffffffffffffffffffffffffffffff167fd3246ded9638f3a0c0ba5c93a9a153d20c9176e5c705e1e0a3f7e92e0cb0500b60405160405180910390a250565b600380811115611e0757611e06613eb0565b5b600160003373ffffffffffffffffffffffffffffffffffffffff1673ffffffffffffffffffffffffffffffffffffffff16815260200190815260200160002060009054906101000a900460ff166003811115611e6657611e65613eb0565b5b14611ea6576040517f08c379a0000000000000000000000000000000000000000000000000000000008152600401611e9d90614713565b60405180910390fd5b60016003811115611eba57611eb9613eb0565b5b816003811115611ecd57611ecc613eb0565b5b1480611efd575060026003811115611ee857611ee7613eb0565b5b816003811115611efb57611efa613eb0565b5b145b611f3c576040517f08c379a0000000000000000000000000000000000000000000000000000000008152600401611f3390614d4d565b60405180910390fd5b60016003811115611f5057611f4f613eb0565b5b816003811115611f6357611f62613eb0565b5b0361207b5760016003811115611f7c57611f7b613eb0565b5b600160008473ffffffffffffffffffffffffffffffffffffffff1673ffffffffffffffffffffffffffffffffffffffff16815260200190815260200160002060009054906101000a900460ff166003811115611fdb57611fda613eb0565b5b1461201b576040517f08c379a000000000000000000000000000000000000000000000000000000000815260040161201290614ddf565b60405180910390fd5b6001600260008473ffffffffffffffffffffffffffffffffffffffff1673ffffffffffffffffffffffffffffffffffffffff16815260200190815260200160002060060160016101000a81548160ff0219169083151502179055506121b7565b6002600381111561208f5761208e613eb0565b5b8160038111156120a2576120a1613eb0565b5b036121b657600260038111156120bb576120ba613eb0565b5b600160008473ffffffffffffffffffffffffffffffffffffffff1673ffffffffffffffffffffffffffffffffffffffff16815260200190815260200160002060009054906101000a900460ff16600381111561211a57612119613eb0565b5b1461215a576040517f08c379a000000000000000000000000000000000000000000000000000000000815260040161215190614e71565b60405180910390fd5b6001600360008473ffffffffffffffffffffffffffffffffffffffff1673ffffffffffffffffffffffffffffffffffffffff16815260200190815260200160002060070160006101000a81548160ff0219169083151502179055505b5b8173ffffffffffffffffffffffffffffffffffffffff167f3e60282061aa9f0ac8f17cb522ab49946225e94f8597d84e6504593ee06a81e0826040516121fd9190613f27565b60405180910390a25050565b600087511161224d576040517f08c379a00000000000000000000000000000000000000000000000000000000081526004016122449061477f565b60405180910390fd5b6000865111612291576040517f08c379a00000000000000000000000000000000000000000000000000000000081526004016122889061487d565b60405180910390fd5b60008551116122d5576040517f08c379a00000000000000000000000000000000000000000000000000000000081526004016122cc90614edd565b60405180910390fd5b6000845111612319576040517f08c379a000000000000000000000000000000000000000000000000000000000815260040161231090614f49565b60405180910390fd5b600083511161235d576040517f08c379a00000000000000000000000000000000000000000000000000000000081526004016123549061497b565b60405180910390fd5b600081116123a0576040517f08c379a000000000000000000000000000000000000000000000000000000000815260040161239790614fb5565b60405180910390fd5b6040518061016001604052803373ffffffffffffffffffffffffffffffffffffffff16815260200188815260200182815260200187815260200186815260200185815260200184815260200160001515815260200160001515815260200160001515815260200183815250600360003373ffffffffffffffffffffffffffffffffffffffff1673ffffffffffffffffffffffffffffffffffffffff16815260200190815260200160002060008201518160000160006101000a81548173ffffffffffffffffffffffffffffffffffffffff021916908373ffffffffffffffffffffffffffffffffffffffff16021790555060208201518160010190816124a69190614b47565b506040820151816002015560608201518160030190816124c69190614b47565b5060808201518160040190816124dc9190614b47565b5060a08201518160050190816124f29190614b47565b5060c08201518160060190816125089190614b47565b5060e08201518160070160006101000a81548160ff0219169083151502179055506101008201518160070160016101000a81548160ff0219169083151502179055506101208201518160070160026101000a81548160ff0219169083151502179055506101408201518160080190816125819190614b47565b509050506002600160003373ffffffffffffffffffffffffffffffffffffffff1673ffffffffffffffffffffffffffffffffffffffff16815260200190815260200160002060006101000a81548160ff021916908360038111156125e8576125e7613eb0565b5b02179055506005339080600181540180825580915050600190039060005260206000200160009091909190916101000a81548173ffffffffffffffffffffffffffffffffffffffff021916908373ffffffffffffffffffffffffffffffffffffffff16021790555050505050505050565b60606000805b6004805490508110156127b857600260006004838154811061268457612683614fd5565b5b9060005260206000200160009054906101000a900473ffffffffffffffffffffffffffffffffffffffff1673ffffffffffffffffffffffffffffffffffffffff1673ffffffffffffffffffffffffffffffffffffffff16815260200190815260200160002060060160009054906101000a900460ff161580156127915750600260006004838154811061271a57612719614fd5565b5b9060005260206000200160009054906101000a900473ffffffffffffffffffffffffffffffffffffffff1673ffffffffffffffffffffffffffffffffffffffff1673ffffffffffffffffffffffffffffffffffffffff16815260200190815260200160002060060160019054906101000a900460ff165b156127a55781806127a190615033565b9250505b80806127b090615033565b91505061265f565b5060008167ffffffffffffffff8111156127d5576127d4613b3f565b5b60405190808252806020026020018201604052801561280e57816020015b6127fb6136fc565b8152602001906001900390816127f35790505b5090506000805b600480549050811015612dcf57600260006004838154811061283a57612839614fd5565b5b9060005260206000200160009054906101000a900473ffffffffffffffffffffffffffffffffffffffff1673ffffffffffffffffffffffffffffffffffffffff1673ffffffffffffffffffffffffffffffffffffffff16815260200190815260200160002060060160009054906101000a900460ff16158015612947575060026000600483815481106128d0576128cf614fd5565b5b9060005260206000200160009054906101000a900473ffffffffffffffffffffffffffffffffffffffff1673ffffffffffffffffffffffffffffffffffffffff1673ffffffffffffffffffffffffffffffffffffffff16815260200190815260200160002060060160019054906101000a900460ff165b15612dbc57600260006004838154811061296457612963614fd5565b5b9060005260206000200160009054906101000a900473ffffffffffffffffffffffffffffffffffffffff1673ffffffffffffffffffffffffffffffffffffffff1673ffffffffffffffffffffffffffffffffffffffff168152602001908152602001600020604051806101800160405290816000820160009054906101000a900473ffffffffffffffffffffffffffffffffffffffff1673ffffffffffffffffffffffffffffffffffffffff1673ffffffffffffffffffffffffffffffffffffffff168152602001600182018054612a3b90614696565b80601f0160208091040260200160405190810160405280929190818152602001828054612a6790614696565b8015612ab45780601f10612a8957610100808354040283529160200191612ab4565b820191906000526020600020905b815481529060010190602001808311612a9757829003601f168201915b5050505050815260200160028201548152602001600382018054612ad790614696565b80601f0160208091040260200160405190810160405280929190818152602001828054612b0390614696565b8015612b505780601f10612b2557610100808354040283529160200191612b50565b820191906000526020600020905b815481529060010190602001808311612b3357829003601f168201915b5050505050815260200160048201805480602002602001604051908101604052809291908181526020018280548015612bdd57602002820191906000526020600020906000905b82829054906101000a900460ff166004811115612bb757612bb6613eb0565b5b81526020019060010190602082600001049283019260010382029150808411612b975790505b50505050508152602001600582018054612bf690614696565b80601f0160208091040260200160405190810160405280929190818152602001828054612c2290614696565b8015612c6f5780601f10612c4457610100808354040283529160200191612c6f565b820191906000526020600020905b815481529060010190602001808311612c5257829003601f168201915b505050505081526020016006820160009054906101000a900460ff161515151581526020016006820160019054906101000a900460ff161515151581526020016006820160029054906101000a900460ff161515151581526020016006820160039054906101000a900460ff161515151581526020016006820160049054906101000a900460ff16151515158152602001600782018054612d0f90614696565b80601f0160208091040260200160405190810160405280929190818152602001828054612d3b90614696565b8015612d885780601f10612d5d57610100808354040283529160200191612d88565b820191906000526020600020905b815481529060010190602001808311612d6b57829003601f168201915b505050505081525050838380612d9d90615033565b945081518110612db057612daf614fd5565b5b60200260200101819052505b8080612dc790615033565b915050612815565b5081935050505090565b60026020528060005260406000206000915090508060000160009054906101000a900473ffffffffffffffffffffffffffffffffffffffff1690806001018054612e2290614696565b80601f0160208091040260200160405190810160405280929190818152602001828054612e4e90614696565b8015612e9b5780601f10612e7057610100808354040283529160200191612e9b565b820191906000526020600020905b815481529060010190602001808311612e7e57829003601f168201915b505050505090806002015490806003018054612eb690614696565b80601f0160208091040260200160405190810160405280929190818152602001828054612ee290614696565b8015612f2f5780601f10612f0457610100808354040283529160200191612f2f565b820191906000526020600020905b815481529060010190602001808311612f1257829003601f168201915b505050505090806005018054612f4490614696565b80601f0160208091040260200160405190810160405280929190818152602001828054612f7090614696565b8015612fbd5780601f10612f9257610100808354040283529160200191612fbd565b820191906000526020600020905b815481529060010190602001808311612fa057829003601f168201915b5050505050908060060160009054906101000a900460ff16908060060160019054906101000a900460ff16908060060160029054906101000a900460ff16908060060160039054906101000a900460ff16908060060160049054906101000a900460ff169080600701805461303190614696565b80601f016020809104026020016040519081016040528092919081815260200182805461305d90614696565b80156130aa5780601f1061307f576101008083540402835291602001916130aa565b820191906000526020600020905b81548152906001019060200180831161308d57829003601f168201915b505050505090508b565b60006060600060608060608060008060006060600260038111156130db576130da613eb0565b5b600160008e73ffffffffffffffffffffffffffffffffffffffff1673ffffffffffffffffffffffffffffffffffffffff16815260200190815260200160002060009054906101000a900460ff16600381111561313a57613139613eb0565b5b1461317a576040517f08c379a0000000000000000000000000000000000000000000000000000000008152600401613171906150ed565b60405180910390fd5b6000600360008e73ffffffffffffffffffffffffffffffffffffffff1673ffffffffffffffffffffffffffffffffffffffff168152602001908152602001600020604051806101600160405290816000820160009054906101000a900473ffffffffffffffffffffffffffffffffffffffff1673ffffffffffffffffffffffffffffffffffffffff1673ffffffffffffffffffffffffffffffffffffffff16815260200160018201805461322d90614696565b80601f016020809104026020016040519081016040528092919081815260200182805461325990614696565b80156132a65780601f1061327b576101008083540402835291602001916132a6565b820191906000526020600020905b81548152906001019060200180831161328957829003601f168201915b50505050508152602001600282015481526020016003820180546132c990614696565b80601f01602080910402602001604051908101604052809291908181526020018280546132f590614696565b80156133425780601f1061331757610100808354040283529160200191613342565b820191906000526020600020905b81548152906001019060200180831161332557829003601f168201915b5050505050815260200160048201805461335b90614696565b80601f016020809104026020016040519081016040528092919081815260200182805461338790614696565b80156133d45780601f106133a9576101008083540402835291602001916133d4565b820191906000526020600020905b8154815290600101906020018083116133b757829003601f168201915b505050505081526020016005820180546133ed90614696565b80601f016020809104026020016040519081016040528092919081815260200182805461341990614696565b80156134665780601f1061343b57610100808354040283529160200191613466565b820191906000526020600020905b81548152906001019060200180831161344957829003601f168201915b5050505050815260200160068201805461347f90614696565b80601f01602080910402602001604051908101604052809291908181526020018280546134ab90614696565b80156134f85780601f106134cd576101008083540402835291602001916134f8565b820191906000526020600020905b8154815290600101906020018083116134db57829003601f168201915b505050505081526020016007820160009054906101000a900460ff161515151581526020016007820160019054906101000a900460ff161515151581526020016007820160029054906101000a900460ff1615151515815260200160088201805461356290614696565b80601f016020809104026020016040519081016040528092919081815260200182805461358e90614696565b80156135db5780601f106135b0576101008083540402835291602001916135db565b820191906000526020600020905b8154815290600101906020018083116135be57829003601f168201915b5050505050815250509050806000015181602001518260400151836060015184608001518560a001518660c001518760e001518861010001518961012001518a61014001519b509b509b509b509b509b509b509b509b509b509b505091939597999b90929496989a50565b82805482825590600052602060002090601f016020900481019282156136eb5791602002820160005b838211156136bc57835183826101000a81548160ff0219169083600481111561369b5761369a613eb0565b5b0217905550926020019260010160208160000104928301926001030261366f565b80156136e95782816101000a81549060ff02191690556001016020816000010492830192600103026136bc565b505b5090506136f8919061377d565b5090565b604051806101800160405280600073ffffffffffffffffffffffffffffffffffffffff1681526020016060815260200160008152602001606081526020016060815260200160608152602001600015158152602001600015158152602001600015158152602001600015158152602001600015158152602001606081525090565b5b8082111561379657600081600090555060010161377e565b5090565b6000604051905090565b600080fd5b600080fd5b600073ffffffffffffffffffffffffffffffffffffffff82169050919050565b60006137d9826137ae565b9050919050565b6137e9816137ce565b81146137f457600080fd5b50565b600081359050613806816137e0565b92915050565b600060208284031215613822576138216137a4565b5b6000613830848285016137f7565b91505092915050565b613842816137ce565b82525050565b600081519050919050565b600082825260208201905092915050565b60005b83811015613882578082015181840152602081019050613867565b60008484015250505050565b6000601f19601f8301169050919050565b60006138aa82613848565b6138b48185613853565b93506138c4818560208601613864565b6138cd8161388e565b840191505092915050565b6000819050919050565b6138eb816138d8565b82525050565b60008115159050919050565b613906816138f1565b82525050565b600061016082019050613922600083018e613839565b8181036020830152613934818d61389f565b9050613943604083018c6138e2565b8181036060830152613955818b61389f565b90508181036080830152613969818a61389f565b905081810360a083015261397d818961389f565b905081810360c0830152613991818861389f565b90506139a060e08301876138fd565b6139ae6101008301866138fd565b6139bc6101208301856138fd565b8181036101408301526139cf818461389f565b90509c9b505050505050505050505050565b600081519050919050565b600082825260208201905092915050565b6000819050602082019050919050565b613a16816137ce565b82525050565b6000613a288383613a0d565b60208301905092915050565b6000602082019050919050565b6000613a4c826139e1565b613a5681856139ec565b9350613a61836139fd565b8060005b83811015613a92578151613a798882613a1c565b9750613a8483613a34565b925050600181019050613a65565b5085935050505092915050565b60006020820190508181036000830152613ab98184613a41565b905092915050565b613aca816138d8565b8114613ad557600080fd5b50565b600081359050613ae781613ac1565b92915050565b600060208284031215613b0357613b026137a4565b5b6000613b1184828501613ad8565b91505092915050565b6000602082019050613b2f6000830184613839565b92915050565b600080fd5b600080fd5b7f4e487b7100000000000000000000000000000000000000000000000000000000600052604160045260246000fd5b613b778261388e565b810181811067ffffffffffffffff82111715613b9657613b95613b3f565b5b80604052505050565b6000613ba961379a565b9050613bb58282613b6e565b919050565b600067ffffffffffffffff821115613bd557613bd4613b3f565b5b613bde8261388e565b9050602081019050919050565b82818337600083830152505050565b6000613c0d613c0884613bba565b613b9f565b905082815260208101848484011115613c2957613c28613b3a565b5b613c34848285613beb565b509392505050565b600082601f830112613c5157613c50613b35565b5b8135613c61848260208601613bfa565b91505092915050565b600067ffffffffffffffff821115613c8557613c84613b3f565b5b602082029050602081019050919050565b600080fd5b60058110613ca857600080fd5b50565b600081359050613cba81613c9b565b92915050565b6000613cd3613cce84613c6a565b613b9f565b90508083825260208201905060208402830185811115613cf657613cf5613c96565b5b835b81811015613d1f5780613d0b8882613cab565b845260208401935050602081019050613cf8565b5050509392505050565b600082601f830112613d3e57613d3d613b35565b5b8135613d4e848260208601613cc0565b91505092915050565b60008060008060008060c08789031215613d7457613d736137a4565b5b600087013567ffffffffffffffff811115613d9257613d916137a9565b5b613d9e89828a01613c3c565b9650506020613daf89828a01613ad8565b955050604087013567ffffffffffffffff811115613dd057613dcf6137a9565b5b613ddc89828a01613c3c565b945050606087013567ffffffffffffffff811115613dfd57613dfc6137a9565b5b613e0989828a01613d29565b935050608087013567ffffffffffffffff811115613e2a57613e296137a9565b5b613e3689828a01613c3c565b92505060a087013567ffffffffffffffff811115613e5757613e566137a9565b5b613e6389828a01613c3c565b9150509295509295509295565b60008060408385031215613e8757613e866137a4565b5b6000613e95858286016137f7565b9250506020613ea6858286016137f7565b9150509250929050565b7f4e487b7100000000000000000000000000000000000000000000000000000000600052602160045260246000fd5b60048110613ef057613eef613eb0565b5b50565b6000819050613f0182613edf565b919050565b6000613f1182613ef3565b9050919050565b613f2181613f06565b82525050565b6000602082019050613f3c6000830184613f18565b92915050565b600081519050919050565b600082825260208201905092915050565b6000819050602082019050919050565b60058110613f7f57613f7e613eb0565b5b50565b6000819050613f9082613f6e565b919050565b6000613fa082613f82565b9050919050565b613fb081613f95565b82525050565b6000613fc28383613fa7565b60208301905092915050565b6000602082019050919050565b6000613fe682613f42565b613ff08185613f4d565b9350613ffb83613f5e565b8060005b8381101561402c5781516140138882613fb6565b975061401e83613fce565b925050600181019050613fff565b5085935050505092915050565b60006101808201905061404f600083018f613839565b8181036020830152614061818e61389f565b9050614070604083018d6138e2565b8181036060830152614082818c61389f565b90508181036080830152614096818b613fdb565b905081810360a08301526140aa818a61389f565b90506140b960c08301896138fd565b6140c660e08301886138fd565b6140d46101008301876138fd565b6140e26101208301866138fd565b6140f06101408301856138fd565b818103610160830152614103818461389f565b90509d9c50505050505050505050505050565b6004811061412357600080fd5b50565b60008135905061413581614116565b92915050565b60008060408385031215614152576141516137a4565b5b6000614160858286016137f7565b925050602061417185828601614126565b9150509250929050565b600080600080600080600060e0888a03121561419a576141996137a4565b5b600088013567ffffffffffffffff8111156141b8576141b76137a9565b5b6141c48a828b01613c3c565b975050602088013567ffffffffffffffff8111156141e5576141e46137a9565b5b6141f18a828b01613c3c565b965050604088013567ffffffffffffffff811115614212576142116137a9565b5b61421e8a828b01613c3c565b955050606088013567ffffffffffffffff81111561423f5761423e6137a9565b5b61424b8a828b01613c3c565b945050608088013567ffffffffffffffff81111561426c5761426b6137a9565b5b6142788a828b01613c3c565b93505060a088013567ffffffffffffffff811115614299576142986137a9565b5b6142a58a828b01613c3c565b92505060c06142b68a828b01613ad8565b91505092959891949750929550565b600081519050919050565b600082825260208201905092915050565b6000819050602082019050919050565b600082825260208201905092915050565b600061430d82613848565b61431781856142f1565b9350614327818560208601613864565b6143308161388e565b840191505092915050565b614344816138d8565b82525050565b600082825260208201905092915050565b600061436682613f42565b614370818561434a565b935061437b83613f5e565b8060005b838110156143ac5781516143938882613fb6565b975061439e83613fce565b92505060018101905061437f565b5085935050505092915050565b6143c2816138f1565b82525050565b6000610180830160008301516143e16000860182613a0d565b50602083015184820360208601526143f98282614302565b915050604083015161440e604086018261433b565b50606083015184820360608601526144268282614302565b91505060808301518482036080860152614440828261435b565b91505060a083015184820360a086015261445a8282614302565b91505060c083015161446f60c08601826143b9565b5060e083015161448260e08601826143b9565b506101008301516144976101008601826143b9565b506101208301516144ac6101208601826143b9565b506101408301516144c16101408601826143b9565b506101608301518482036101608601526144db8282614302565b9150508091505092915050565b60006144f483836143c8565b905092915050565b6000602082019050919050565b6000614514826142c5565b61451e81856142d0565b935083602082028501614530856142e1565b8060005b8581101561456c578484038952815161454d85826144e8565b9450614558836144fc565b925060208a01995050600181019050614534565b50829750879550505050505092915050565b600060208201905081810360008301526145988184614509565b905092915050565b6000610160820190506145b6600083018e613839565b81810360208301526145c8818d61389f565b90506145d7604083018c6138e2565b81810360608301526145e9818b61389f565b905081810360808301526145fd818a61389f565b905061460c60a08301896138fd565b61461960c08301886138fd565b61462660e08301876138fd565b6146346101008301866138fd565b6146426101208301856138fd565b818103610140830152614655818461389f565b90509c9b505050505050505050505050565b7f4e487b7100000000000000000000000000000000000000000000000000000000600052602260045260246000fd5b600060028204905060018216806146ae57607f821691505b6020821081036146c1576146c0614667565b5b50919050565b7f4f6e6c792061646d696e00000000000000000000000000000000000000000000600082015250565b60006146fd600a83613853565b9150614708826146c7565b602082019050919050565b6000602082019050818103600083015261472c816146f0565b9050919050565b7f4e616d6520697320726571756972656400000000000000000000000000000000600082015250565b6000614769601083613853565b915061477482614733565b602082019050919050565b600060208201905081810360008301526147988161475c565b9050919050565b7f446f6e6f72206d757374206265206174206c656173742031382079656172732060008201527f6f6c640000000000000000000000000000000000000000000000000000000000602082015250565b60006147fb602383613853565b91506148068261479f565b604082019050919050565b6000602082019050818103600083015261482a816147ee565b9050919050565b7f426c6f6f64207479706520697320726571756972656400000000000000000000600082015250565b6000614867601683613853565b915061487282614831565b602082019050919050565b600060208201905081810360008301526148968161485a565b9050919050565b7f4174206c65617374206f6e65206f7267616e206d75737420626520737065636960008201527f6669656400000000000000000000000000000000000000000000000000000000602082015250565b60006148f9602483613853565b91506149048261489d565b604082019050919050565b60006020820190508181036000830152614928816148ec565b9050919050565b7f4c6f636174696f6e206973207265717569726564000000000000000000000000600082015250565b6000614965601483613853565b91506149708261492f565b602082019050919050565b6000602082019050818103600083015261499481614958565b9050919050565b60008190508160005260206000209050919050565b60006020601f8301049050919050565b600082821b905092915050565b6000600883026149fd7fffffffffffffffffffffffffffffffffffffffffffffffffffffffffffffffff826149c0565b614a0786836149c0565b95508019841693508086168417925050509392505050565b6000819050919050565b6000614a44614a3f614a3a846138d8565b614a1f565b6138d8565b9050919050565b6000819050919050565b614a5e83614a29565b614a72614a6a82614a4b565b8484546149cd565b825550505050565b600090565b614a87614a7a565b614a92818484614a55565b505050565b5b81811015614ab657614aab600082614a7f565b600181019050614a98565b5050565b601f821115614afb57614acc8161499b565b614ad5846149b0565b81016020851015614ae4578190505b614af8614af0856149b0565b830182614a97565b50505b505050565b600082821c905092915050565b6000614b1e60001984600802614b00565b1980831691505092915050565b6000614b378383614b0d565b9150826002028217905092915050565b614b5082613848565b67ffffffffffffffff811115614b6957614b68613b3f565b5b614b738254614696565b614b7e828285614aba565b600060209050601f831160018114614bb15760008415614b9f578287015190505b614ba98582614b2b565b865550614c11565b601f198416614bbf8661499b565b60005b82811015614be757848901518255600182019150602085019450602081019050614bc2565b86831015614c045784890151614c00601f891682614b0d565b8355505b6001600288020188555050505b505050505050565b60006040820190508181036000830152614c338185613fdb565b9050614c4260208301846138e2565b9392505050565b7f41646472657373206973206e6f742061207265676973746572656420646f6e6f60008201527f7200000000000000000000000000000000000000000000000000000000000000602082015250565b6000614ca5602183613853565b9150614cb082614c49565b604082019050919050565b60006020820190508181036000830152614cd481614c98565b9050919050565b7f43616e206f6e6c792076657269667920446f6e6f72206f722050617469656e7460008201527f20726f6c65730000000000000000000000000000000000000000000000000000602082015250565b6000614d37602683613853565b9150614d4282614cdb565b604082019050919050565b60006020820190508181036000830152614d6681614d2a565b9050919050565b7f55736572206973206e6f742072656769737465726564206173206120446f6e6f60008201527f7220746f20766572696679000000000000000000000000000000000000000000602082015250565b6000614dc9602b83613853565b9150614dd482614d6d565b604082019050919050565b60006020820190508181036000830152614df881614dbc565b9050919050565b7f55736572206973206e6f7420726567697374657265642061732061205061746960008201527f656e7420746f2076657269667900000000000000000000000000000000000000602082015250565b6000614e5b602d83613853565b9150614e6682614dff565b604082019050919050565b60006020820190508181036000830152614e8a81614e4e565b9050919050565b7f4e6565646564206f7267616e2069732072657175697265640000000000000000600082015250565b6000614ec7601883613853565b9150614ed282614e91565b602082019050919050565b60006020820190508181036000830152614ef681614eba565b9050919050565b7f557267656e637920697320726571756972656400000000000000000000000000600082015250565b6000614f33601383613853565b9150614f3e82614efd565b602082019050919050565b60006020820190508181036000830152614f6281614f26565b9050919050565b7f416765206d7573742062652067726561746572207468616e2030000000000000600082015250565b6000614f9f601a83613853565b9150614faa82614f69565b602082019050919050565b60006020820190508181036000830152614fce81614f92565b9050919050565b7f4e487b7100000000000000000000000000000000000000000000000000000000600052603260045260246000fd5b7f4e487b7100000000000000000000000000000000000000000000000000000000600052601160045260246000fd5b600061503e826138d8565b91507fffffffffffffffffffffffffffffffffffffffffffffffffffffffffffffffff82036150705761506f615004565b5b600182019050919050565b7f41646472657373206973206e6f7420612072656769737465726564207061746960008201527f656e740000000000000000000000000000000000000000000000000000000000602082015250565b60006150d7602383613853565b91506150e28261507b565b604082019050919050565b60006020820190508181036000830152615106816150ca565b905091905056fea264697066735822122050ccf3a8032e45692846c11e38d2afb55bfa48550f46224ce50109cf6d15234564736f6c63430008140033",
  "linkReferences": {},
  "deployedLinkReferences": {}
}